:020000040800F2
:10000000A0040020450100084D0100084F01000830
:1000100051010008530100085501000800000000CC
:100020000000000000000000000000005701000870
:1000300059010008000000005B0100085D01000894
:100040005F0100085F0100085F0100085F01000810
:100050005F0100085F0100085F0100085F01000800
:100060005F010008010800085F0100085F01000847
:100070005F0100085F0100085F0100085F010008E0
:100080005F0100085F0100085F0100085F010008D0
:100090005F0100085F0100085F01000845080008D3
:1000A0005F010008691300085F0100085F01000894
:1000B0008D1300085F0100085F0100085F01000860
:1000C0005F0100085F0100085F0100085F01000890
:1000D0005F0100085F0100085F0100085F01000880
:1000E0005D0700085F0100085F0100085F0100086C
:1000F000AD1300085F0100085F0100085F01000800
:100100005F0100085F0100085F0100085F0100084F
:100110005F0100085F0100085F0100085F0100083F
:100120005F0100085F0100085F0100085F0100082F
:10013000DFF80CD000F0F0FA00480047491E000834
:10014000A00400200648804706480047FEE7FEE777
:10015000FEE7FEE7FEE7FEE7FEE7FEE7FEE7FEE777
:1001600009130008310100080649074A086850438E
:1001700043F23902104408604008704701490860A2
:1001800070470000580000206D4EC6412DE9FE4F1B
:10019000804681EA0300C00F0C46009021F0004128
:1001A00023F00045B8EB0200A94105D240462146A4
:1001B00090461C460B46024623F00040104347D0B1
:1001C000270DC7F30A00C3F30A510290401A0190A9
:1001D00040286BDAC3F3130040F4801B009892466A
:1001E00020B10023D2EB030A63EB0B0B01985946B5
:1001F000C0F14002504600F0AFF806460D465046AA
:100200005946019A00F0B7F810EB0800614100244C
:1002100087EA115284EAE7731A4340D0009A62B326
:10022000019A012A4FEA075215DC001B61EB02011B
:100230004FF0004202EA0752CDE90042001C41F5AE
:10024000801132462B4600F0B7F803B0BDE8F08FBE
:1002500040462146F9E7001B61EB0201001C41F515
:10026000801300185B412018A2F5001747EB03012B
:1002700040EAD570B6196D4111E06D084FEA3606B7
:1002800045EAC0754FEA0752001B61EB0201001CF2
:1002900041F5801149084FEA3000001951413246BA
:1002A0002B4603B0BDE8F04F00F077B8009801226C
:1002B00040000023D0EB020263EBE073009821467C
:1002C0004FEAE074B8EB000061EB0401E9E783F06A
:1002D00000435BE781F0004158E70EB5C10F80EAAB
:1002E000E0700844CA07002140F233438DE80E0055
:1002F0000A460B4600F060F803B000BD30B5041E9E
:1003000071F1000404DB4FF00044404264EB010152
:10031000141E73F1000405DB1C464FF000435242EB
:1003200063EB04038B4208BF824230BD30B50B46FD
:10033000014600202022012409E021FA02F59D4215
:1003400005D303FA02F5491B04FA02F52844151EE9
:10035000A2F10102F1DC30BD202A04DB203A00FAD0
:1003600002F1002070479140C2F1200320FA03F30C
:10037000194390407047202A06DBCB17203A41FAF8
:1003800002F043EAE07306E041FA02F3D040C2F122
:100390002002914008431946704710B5141E73F1AE
:1003A000000408DA401C41F1000192185B411A4335
:1003B00001D120F0010010BD2DE9F04D92469B4681
:1003C00011B1B1FA81F202E0B0FA80F22032904627
:1003D000FFF7C2FF04460F4640EA0A0041EA0B015C
:1003E00053465A46084313D0114653EA010019D028
:1003F000C8F14002504600F0A1F905460E465046AD
:1004000059464246FFF7A8FF084305D0012004E003
:1004100020463946BDE8F08D0020054346EAE076E7
:100420002C4337430A986305E40AA0EB0800002236
:10043000FD0A44EA47540A3002D500200146E9E7A4
:10044000010510196941DDE9084500196941BDE858
:10045000F04DA2E72DE9FE4F81EA030404F00044C9
:1004600021F0004100944FF0000B23F0004350EACC
:1004700001045ED052EA03045BD0C3F30A54C1F313
:100480000A552C44A4F2F3340194A0FB0254C1F3A6
:10049000130141F48011C3F3130343F4801301FBF0
:1004A000024400FB034E840A970A44EA815447EA57
:1004B0008357A4FB076802958D0A05FB07854FEA61
:1004C000932C04FB0C542705029D4FEA065847EA7B
:1004D0001637B5EB08056EEB070C870E920E47EA50
:1004E000811742EA8312A7FB0201B6EB0B0164EB12
:1004F00000042B0D43EA0C335E1844EB1C50DA4623
:100500005146E7FB0201C5F313044FEA0B3343EAFC
:1005100014534FEA0432019C43EA0603A4F10C048D
:100520000294009CCDE900B4FFF746FF03B0BDE89C
:10053000F08F00200146F9E72DE9F04D81EA030430
:1005400004F0004B21F0004514464FF0000A23F060
:10055000004150EA050220D054EA01021DD0C5F343
:100560000A570246C5F31303C1F31300C1F30A5639
:1005700040F4801543F48013A7EB0608101BD64601
:1005800008F2FD3873EB050002D308F1010801E021
:1005900092185B41B8F1000F03DA00200146BDE874
:1005A000F08D00204FF48011064684460EE0171BA4
:1005B00073EB050705D3121B63EB050306434CEAF7
:1005C000010C49084FEA300092185B4150EA0107DC
:1005D000EDD152EA030012D082EA040083EA050159
:1005E000084305D0101BAB4106D20122002306E0D0
:1005F00000224FF0004302E06FF0010253101AEBAB
:1006000006004CEB085110EB0A0041EB0B01BDE872
:10061000F04DFFF7C2BE70B521F0004303430CD08C
:10062000C1F30A550024D5EB040564EB0403D61787
:10063000AD1AB34102DB0020014670BD201841EB2A
:10064000025170BD2DE9F04D00231A461B1A8A4154
:1006500003DB00200146BDE8F08DC1F30A52C1F36F
:10066000130141F480154FF0000BD10702D100189F
:100670006D41521E0027044640F2FF11384601EB3F
:10068000620A3E468046024600204FF4801100F088
:1006900055F8C2197141BB1846EB0100B4EB030CCD
:1006A00075EB000C04D3E41A65EB000517460E4603
:1006B000241908F101006D4180463428E3DDF91961
:1006C00046EB0600091BA84103D24FF0FF32134648
:1006D00001E0002213461BEB070046EB0A51BDE880
:1006E000F04DFFF75ABE000030B5041E71F1000452
:1006F00004DB4FF00044404264EB0101141E73F12F
:10070000000405DB1C464FF00043524263EB040338
:10071000994208BF904230BD064C074D06E0E068A4
:1007200040F0010394E8070098471034AC42F6D338
:10073000FFF702FD404E0008604E0008202A04DB4F
:10074000203A21FA02F00021704721FA02F3D0404A
:10075000C2F12002914008431946704710B501F0DC
:100760006BFB90B11F48006840F400401D490860D1
:100770001D491E4802F078F918B11D4800F098FF95
:100780002EE01C4800F094FF2AE001F03DFB90B100
:100790001448006840F48040124908601649134824
:1007A00002F062F918B1124800F082FF18E0134815
:1007B00000F07EFF14E001F02FFB88B109480068CB
:1007C00040F40050074908600C49084802F04CF911
:1007D00018B1074800F06CFF02E0074800F068FF1E
:1007E00010BD000014040140EC3400082800002073
:1007F00004350008E4340008FC340008F434000830
:1008000010B501F0F9FA88B10948006840F0080015
:10081000074908600749084802F026F918B1074857
:1008200000F046FF02E0064800F042FF10BD000065
:1008300014040140E43400082800002004350008B6
:10084000EC3400080548006800F4807028B10348C3
:10085000006840F48070014908607047140401404A
:1008600010B5F0234FF4A0720021084600F082FC7E
:10087000222002F091FB00BF00BF002404E00648E4
:10088000008802F091FB641CB4F5963FF7D300BFDB
:1008900000BF002010BD00003A0000202DE9F04705
:1008A00081468A4614461E46089F07FB04F06421D1
:1008B000B0FBF1F7334622465146484600F05AFC59
:1008C000222002F069FB00BF00BF4FF0000811E0DA
:1008D00000250BE0BD4204D30A48008802F064FB07
:1008E00003E00948008802F05FFB6D1CA542F1D3CC
:1008F00008F10108B045EBD300BF00BF0020BDE800
:10090000F08700003A000020380000202DE9F05F59
:100910008046894614461F46DDF828A0D3463B464C
:1009200022464946404600F025FC222002F034FBD6
:1009300000BF00BF781E00FB04F50AE0002605E0BA
:10094000A9193BF8110002F02FFB761CA642F7D341
:100950002D1B002DF2DA00BF00BF0020BDE8F09F84
:100960002DE9F04781468A4616462E48006818B998
:100970004FF0FF30BDE8F0872A4800684068361A1B
:10098000284909680988C81DC11700EB51714FEA51
:10099000E10824480068C16806FB08F0214A126893
:1009A000528800FB02151F48006843881D480068F4
:1009B00002885146484600F0DDFB222002F0ECFAA6
:1009C00000BF00BF002723E000241AE0297804F0CC
:1009D0000702114101F0010111B11349098801E039
:1009E00012490988084602F0DFFA04F007000728D8
:1009F00006D10C4800680088401EA04200D06D1C43
:100A0000641C084800680088A042DFD86D1C7F1C69
:100A1000044800684088B842D6D800BF00BF002014
:100A2000A8E700003C000020380000203A00002029
:100A300070B505460E461446012322463146284627
:100A400000F098FB222002F0A7FA00BF00BF03E0ED
:100A50000548008802F0A8FA201EA4F10104F7D18D
:100A600000BF00BF70BD0000380000202DE9F0413C
:100A700005460E4617461C463A4631462846FFF7BD
:100A8000D7FF31193A462846FFF7D2FF22463146B2
:100A9000284600F01FF8E8192246314600F01AF8FF
:100AA0000020BDE8F081000070B505460E461446F2
:100AB00009E014F8012B31462846FFF751FF04489E
:100AC00000680088054420780028F2D170BD00003D
:100AD0003C00002070B505460E4614462346012210
:100AE0003146284600F046FB222002F055FA00BFAE
:100AF00000BF03E00548008802F056FA201EA4F16A
:100B00000104F7D100BF00BF70BD00003800002015
:100B100070B5FE48806940F2ED110843FB498861D9
:100B2000FB48006800F0FF2444F0BB10F84908605F
:100B3000081D0068F74900EA0104F7482043F4491A
:100B4000091D0860F548006820F0704444F030400A
:100B5000F24908604FF0BB30091D0860F04800689A
:100B600020F00F0444F00B00ED490860ED484068A8
:100B7000ED4900EA0104ED482043EA494860EC48A9
:100B80000068EB490860EA481038006820F00F045C
:100B900044F00300E64910390860DC48406940F43D
:100BA0008070DA49486140F205404107C86141F26E
:100BB00011208861322000F08BFE0026304602F0C2
:100BC000EBF901F0ABFE0546472D7DD10120D94957
:100BD00008700021EA2002F0EBF92021EB2002F05E
:100BE000E7F90C21EC2002F0E3F9C721ED2002F037
:100BF000DFF93821E82002F0DBF91021E92002F0CA
:100C0000D7F90121F12002F0D3F91021F22002F0EE
:100C1000CFF90121402002F0CBF90021412002F060
:100C2000C7F90021422002F0C3F91021432002F04D
:100C3000BFF90E21442002F0BBF92421452002F027
:100C4000B7F90421462002F0B3F95021472002F001
:100C5000AFF90221482002F0ABF91321492002F03C
:100C6000A7F919214A2002F0A3F919214B2002F01B
:100C70009FF916214C2002F09BF91B21502002F015
:100C800097F93121512002F093F92F21522002F0DF
:100C90008FF93F21532002F08BF93F21542002F0BD
:100CA00087F93E21552002F083F92F21562002F0CA
:100CB0007FF97B21572002F07BF90921582002F0AF
:100CC00077F90621592000E089E002F071F9062148
:100CD0005A2002F06DF90C215B2002F069F91D2108
:100CE0005C2002F065F9CC215D2002F061F91B2146
:100CF000084602F05DF901211A2002F059F92F216E
:100D0000242002F055F95721252002F051F98821BD
:100D1000232002F04DF93621182002F049F9012173
:100D2000192002F045F90021012002F041F9882143
:100D30001F2002F03DF9C82000F0CAFD82211F20CB
:100D400002F036F9322000F0C3FD92211F2002F09C
:100D50002FF9322000F0BCFDD2211F2002F028F92B
:100D6000322000F0B5FD5521172002F021F90021B5
:100D7000084602F01DF911212F2002F019F9002177
:100D8000312002F015F90021322002F011F938214A
:100D9000282002F00DF9C82000F09AFD3C212820FF
:100DA00002F006F9A821162002F002F900210E2017
:100DB00002F0FEF800210F2002F0FAF801211020C5
:100DC00002F0F6F84021112002F0F2F80021122082
:100DD00002F0EEF80021132002F0EAF8A9E1002069
:100DE000544908704FF48071012002F0E1F84FF48B
:100DF000E061022002F0DCF80021042002F0D8F8C3
:100E000040F20721082002F0D3F80021092002F067
:100E1000CFF800210A2002F0CBF800210C2002F0CC
:100E2000C7F800210D2002F0C3F800210F2002F0C6
:100E3000BFF80021102002F0BBF80021112002F0C1
:100E4000B7F80021122002F0B3F80021132002F0BD
:100E5000AFF8C82000F03CFD41F2B021102002F0B4
:100E6000A7F80721112002F0A3F8322000F030FD8E
:100E700040F2BD11122002F09BF8322000F028FD54
:100E80004FF4A051132002F093F80E21292002F014
:100E90008FF8322000F01CFD0021202002F088F89D
:100EA0000021212002F084F8A5F5A840083838B1C7
:100EB000A0F57C50183800287DD005287CD167E04B
:100EC00040F60D31302002F073F841F62311312045
:100ED00002F06EF841F62641322002F069F842F243
:100EE0001C61332002F064F842F21941342002F010
:100EF0005FF840F60B51352002F05AF841F2060136
:100F0000362002F055F84FF4C26115E0001002409F
:100F10000014014000F0FF00BB0B00BB00180140B3
:100F2000001C014000200140FFF0F0FF000B0B000F
:100F30001408014040000020372002F039F840F248
:100F40000671382002F034F84FF44171392002F074
:100F50002FF840F605613A2002F02AF840F60161C8
:100F60003B2002F025F84FF487713C2002F020F876
:100F700040F20E513D2002F01BF840F203413E20AA
:100F800002F016F840F207613F2002F011F861E02C
:100F90000021302002F00CF840F20761312002F00D
:100FA00007F840F20531322002F002F80021352026
:100FB00001F0FEFF01E01DE01BE041F2046136207C
:100FC00001F0F6FF4FF40171372001F0F1FF01212C
:100FD000382001F0EDFF40F20771392001F0E8FF01
:100FE00000213C2001F0E4FF0F213D2001F0E0FF53
:100FF00030E000BF0621302001F0DAFF40F201119D
:10100000312001F0D5FF0321322001F0D1FF4FF450
:101010008371352001F0CCFF40F60231362001F01B
:10102000C7FF40F20231372001F0C2FF40F20771E2
:10103000382001F0BDFF0721392001F0B9FF4FF43E
:10104000C0613C2001F0B4FF40F20B213D2001F0D3
:10105000AFFF00BF00BF0021502001F0A9FFEF212A
:10106000512001F0A5FF0021522001F0A1FF40F224
:101070003F11532001F09CFFA5F5A840083830B17E
:10108000A0F57C50183850B1052807D100E000BF0A
:101090004FF41C51602001F08BFF06E000BF4FF4BD
:1010A0002741602001F084FF00BF00BF01216120C3
:1010B00001F07EFF00216A2001F07AFF00218020EC
:1010C00001F076FF0021812001F072FF00218220D3
:1010D00001F06EFF0021832001F06AFF00218420CF
:1010E00001F066FF0021852001F062FF10219020B1
:1010F00001F05EFF0021922001F05AFF03219320AE
:1011000001F056FF4FF48871952001F051FF002146
:10111000972001F04DFF0021982001F049FF41F296
:101120003801032001F044FF40F23711072001F09D
:101130003FFF4FF4807002490860002070BD00003E
:10114000100801400146024A11800020704700004B
:101150003A0000200146024801600020704700006C
:101160003C0000200146024A118000207047000028
:10117000380000202DE9F04704460D4616461F466C
:101180002648007860B3A019A0F10108E819A0F181
:101190000109C4F30F21022001F00AFFE1B203208C
:1011A00001F006FFC8F30F21042001F001FF08F051
:1011B000FF01052001F0FCFEC5F30F21062001F020
:1011C000F7FEE9B2072001F0F3FEC9F30F21082072
:1011D00001F0EEFE09F0FF01092001F0E9FE1BE03D
:1011E000A9B2502001F0E4FEE819401E81B251205E
:1011F00001F0DEFEA1B2522001F0DAFEA019401E7D
:1012000081B2532001F0D4FEA9B2202001F0D0FE1B
:10121000A1B2212001F0CCFEBDE8F0874000002003
:1012200010B500F001F810BD0CB500200190009041
:101230003348006840F480303149086000BF3048CE
:10124000006800F4003000900198401C0190009864
:1012500018B90198B0F5A06FF1D12948006800F4E1
:10126000003010B10120009001E0002000900098B3
:10127000012843D12348006840F01000214908604C
:101280000846006820F0030008600846006840F047
:10129000020008601A4840681949486008464068DA
:1012A00048600846406840F48060486008464068EE
:1012B00020F47C1048600846406840F4E81048601C
:1012C0000846006840F08070086000BF0C48006865
:1012D00000F000700028F9D00948406820F00300B1
:1012E000074948600846406840F00200486000BF77
:1012F0000348406800F00C000828F9D10CBD00003C
:10130000001002400020024010B51348006840F071
:1013100001001149086008464068104908400E491C
:101320004860084600680E4908400B4908600846B6
:10133000006820F4802008600846406820F4FE0021
:1013400048604FF41F008860FFF76AFF4FF00060AD
:101350000449086010BD0000001002400000FFF8C2
:10136000FFFFF6FE08ED00E010B50748008800F02A
:10137000010038B100F038FC0348008820F001007B
:101380000149088010BD0000102C01404FF0804042
:10139000008A00F0010038B14FF08040008A20F050
:1013A00001004FF0804108827047000010B50748E7
:1013B000008800F0010038B101F090FC034800887B
:1013C00020F001000149088010BD000010340140E8
:1013D0000FB4084B10B504A902AA039800F0B8F89E
:1013E000044602A9002000F05DF9204610BC5DF81B
:1013F00014FB0000A5160008490050EAC12018BFE0
:1014000004204A0D18BF40F0010040F2FF72B2EB19
:10141000515F08BF40F00200012808BF0520704757
:10142000002809DB00F01F020121914042099200CF
:1014300002F1E022C2F8001170472DE9F0414F1E81
:1014400000EBC7010446D1E9000115461E4637F0FE
:1014500006020DD02A463346FEF7FCFF7F1E04EB42
:10146000C703D3E90023FEF791FE37F00602F1D15E
:10147000022F25D0042F13D0062F18BFBDE8F0810E
:101480002A463346FEF7E6FFD4E90A23FEF77EFE3E
:101490002A463346FEF7DEFFD4E90823FEF776FE40
:1014A0002A463346FEF7D6FFD4E90623FEF76EFE42
:1014B0002A463346FEF7CEFFD4E90423FEF766FE44
:1014C0002A463346FEF7C6FFD4E90223FEF75EFE46
:1014D0002A463346FEF7BEFFD4E90023BDE8F041BB
:1014E000FEF754BE0022134610460149FFF724B808
:1014F0000000F03FFEF74ABE002213461046114698
:10150000FFF71AB840F2013200204FF0E041FFF738
:1015100082B80000024A00201107FFF77CB80000E3
:1015200001FDFFFF02E008C8121F08C1002AFAD11E
:1015300070477047002001E001C1121F002AFBD153
:101540007047000001490860704700005C000020FF
:101550002DE9FF4F89B09B460446002506E025286B
:101560000BD05A460B999047641C6D1C20780028BC
:10157000F5D10DB02846BDE8F08F0027B84601220E
:10158000474900E0074314F8013F203B02FA03F00B
:101590000842F7D120782E2819D114F8010F47F00E
:1015A00004072A280ED06FF02F022078A0F1300116
:1015B00009290CD808EB880102EB410100EB010876
:1015C000641CF2E70A98641C50F8048B0A90207897
:1015D0000028CED0642808D0692806D075281ED0EF
:1015E0005A460B9990476D1C58E00A994FF00A092A
:1015F00001C90A91002802DA40422D2102E0390592
:1016000004D52B218DF82010012103E0F90704D027
:101610002021F7E78A4608AE0DE00021FAE70A9993
:101620004FF00A0901C90A91F7E74946FEF77EFE25
:10163000303106F8011D0028F7D1ADEB060000F1AE
:101640002009780701D44FF00108C84502DDA8EB56
:10165000090000E000208046002706E008A85A465E
:10166000C05D0B9990476D1C7F1C5745F6DB04E06D
:1016700030205A460B9990476D1CB8F10001A8F133
:101680000108F5DC05E016F8010B5A460B99904766
:101690006D1CB9F10001A9F10109F4DC641C65E7D6
:1016A000092801000A68531C0B6010707047000085
:1016B000024A0168116041685160704728000020AB
:1016C0002DE9F84F0446DDE90A56671EA01800F11F
:1016D000010CA1F10108C81800F10109A5F1010AE6
:1016E0000C98284400F1010BA6F1010E0D9830442E
:1016F000401C00905F4509DAD44507DD009880451D
:1017000004DAF14502DD0120BDE8F88F0020FBE797
:101710007FB500241AE004EB84000E4901EB80053C
:1017200008200D4A12680D4B1B68CDE9012000937B
:10173000039008231A46D5E90001FFF7C1FF20B145
:1017400001F0A2FA012006490860641C032CE2DBC8
:101750007FBD0000600000201C0000201800002059
:10176000000000201FB50420114A1268114B1B68AD
:10177000CDE901200093039008231A460E48016822
:101780000E480068FFF79CFF88B100F0A7FB0C48EB
:101790000068401C0A49086000F0A2F90848006887
:1017A000032804D101F070FA0120064908601FBD2A
:1017B00034000020300000201C0000201800002011
:1017C000200000200400002010B50020FFF7BAFC24
:1017D000FFF746F810BDF8B504460D4616461F46FD
:1017E0000020FFF7BFFC4FF480603B46324629469D
:1017F00000902046FFF752F8F8BD000000B51048F1
:10180000806940F400600E49886106200D49088017
:101810004FF62050091D08800A481C38008840F007
:10182000010008491C39088001F03AFA06480068AE
:1018300040F000704FF0E021C1F8000100BD000051
:1018400000100240282C014000E100E00A48C06975
:1018500040F001000849C86106208904088547F660
:10186000906088858006808940F00100888188101A
:1018700002490860704700000010024000E100E0EB
:1018800000B51048806940F400500E49886100207E
:1018900001F0FEF848F6A0400B4908800A482038BD
:1018A000008840F0010008492039088001F00CFA56
:1018B0000648006840F480504FF0E021C1F8040170
:1018C00000BD0000001002402C34014004E100E0A3
:1018D0000949096842F21072B1FBF2F1484305E090
:1018E00000BF00BF00BF00BF00BF00BF011EA0F1CE
:1018F0000100F5D1704700004400002000B585B01C
:10190000FFF762FF00F04AF84FF47840FFF72AFC37
:101910000DA264210846FFF7C7F84FF6FF70FFF7E6
:1019200021FC0C480CA102686846FFF751FD6A468D
:101930008C211420FFF7B8F800BF01F025FB002828
:10194000FBD005B000BD00005065726475202121F8
:101950002100000010000020566F74726520736330
:101960006F7265203A2025640000000010B500F079
:1019700015F84FF47840FFF7F5FB05A264210846FF
:10198000FFF792F800BF01F0FFFA0028FBD010BD6E
:101990004741474E452021212100000008B5002085
:1019A000FFF7D0FB4FF6FF70FFF7DCFB1448FFF7A3
:1019B000D1FB14A218210320FFF776F81548FFF792
:1019C000C9FB15A2E8210320FFF76EF82048082381
:1019D0001A463C2100906420FEF798FF1D4808231A
:1019E0001A463C2100909120FEF790FF1A480423EC
:1019F0001A463E210090BE20FEF788FF08BD000079
:101A00009C4D00082020202020205041432D4D4196
:101A10004E0000008C4D000841726E617564204DCF
:101A2000617A757269657220202020202020202094
:101A300049555420413220202020202020202020E1
:101A4000204875676F205275737365696C000000DC
:101A5000C432000844300008C434000810B50446FD
:101A6000FFF79CFF1548FFF775FB94B94FF47840DA
:101A7000FFF778FB12A264210846FFF715F84FF62E
:101A8000FF70FFF76FFB10A28C216420FFF70CF8AA
:101A900013E0012C11D14FF6FF70FFF763FB0CA28E
:101AA00064210846FFF700F84FF47840FFF75AFB2F
:101AB00009A28C216420FEF7F7FF10BD9C4D0008A1
:101AC0003E20506C6179000020205175697400003F
:101AD0002020506C617900003E205175697400002F
:101AE000F8B54FF49D74E2264FF6FF70FFF73AFB0E
:101AF0000020FFF727FB3448FFF72CFB33A23146C9
:101B00002046FEF7D1FF0A3C002509E030480423B7
:101B10001A46711C00902046FEF7F8FEA41F6D1CAB
:101B20002C4800688542F1DB002501E0A41F6D1CF4
:101B300028480068C0F10300A842F7DCA41F26A2D1
:101B400031462046FEF7B0FF0E3C244808231A46D3
:101B5000314600902046FEF7D9FE103C1BA23146CC
:101B60002046FEF7A1FF0A3C002509E0184804239F
:101B70001A46711C00902046FEF7C8FEA41F6D1C7B
:101B8000174800688542F1DB002501E0A41F6D1CA9
:101B900013480068C0F10300A842F7DCA41F0EA29E
:101BA00031462046FEF780FF0E3C0E4808231A46B9
:101BB000314600902046FEF7A9FE0020FFF7D2FA3A
:101BC0000020FFF7BFFAF8BD8C4D00085D00000053
:101BD000C4340008200000205B00000044300008EE
:101BE00024000020C432000810B501F023F9FFF7EB
:101BF0008FFDFFF7B7FD10BD70B504460D46FEF72B
:101C0000B3FA291B90FBF1F201FB1200204470BDD6
:101C100001480088704700002404004010B5FEF71A
:101C200077FFFFF7D1FD10BD2149896941F001011E
:101C30001F4A91611146896941F002019161114683
:101C4000896941F0200191611146896941F48071EF
:101C500091611849496821F0706040F08061154A2F
:101C600051601146496821F4700040F480015160D0
:101C70001146496821F0704040F0804151600E49A2
:101C8000096821F4704040F480410B4A1160094911
:101C9000496821F00F0040F00401064A51601146E6
:101CA000096821F0704040F08041116070470000E9
:101CB00000100240002001400014014010B500F067
:101CC00009F810BD00B5FFF799FDFFF7BFFDFFF75D
:101CD000D7FD00BD0A48C06940F002000849C8614C
:101CE0000020084908804FF6FF70091D088005484C
:101CF0002838008840F001000249283908807047E0
:101D000000100240280400402DE9FF5F002435E068
:101D100004EB8400324901EB8009324AD9F80410FF
:101D20001268881AFEF7D9FA074600224FF080435E
:101D300000F008F905460E462B4AD9F80010126843
:101D4000881AFEF7CAFA074600224FF0804300F0D7
:101D5000F9F82A463346CDE90001FEF717FA824624
:101D600000F00EFF0022214BCDE90201FEF7C6FA7A
:101D700003D2002004B0BDE8F09F641C032CC7DB35
:101D80001B490968174A1268881AFEF7A6FA054621
:101D900000224FF0804300F0D5F8074688461549E9
:101DA0000968114A1268881AFEF797FA0546002258
:101DB0004FF0804300F0C6F882463A464346FEF7AD
:101DC000E5F9CDE9000100F0DBFE0022074BCDE98B
:101DD0000201FEF793FA01D20020CBE70120C9E708
:101DE00060000020340000203000002000806140AE
:101DF0001C0000201800002002480068012121EA90
:101E0000D00070470814014002488068012121EA8F
:101E1000903070470020014002488068012121EA8B
:101E2000503070470020014002488068012121EABB
:101E3000D01070470020014002488068012121EA4B
:101E4000D030704700200140FFF7E8FEFFF7ECFEBE
:101E5000FFF738FFFFF732FF35E00020FFF7FEFD08
:101E600000BF00F0D9FD0028FBD000F00AFE0020E2
:101E700015490860154908600120154908600020CF
:101E8000144908600DE000F01DFE00F0CBFE00BF1D
:101E90000E48006818B9104800680028F8D000F013
:101EA000F3FE0A48006818B9074800680028EAD01D
:101EB0000648006810B1FFF721FD04E00248006801
:101EC00008B1FFF753FDC8E7040000200000002020
:101ED0000C000020100000200800002008B504239A
:101EE0001A461548016815480068FFF774FC00BFE2
:101EF0004FF498711020FFF77FFE10490860E02131
:101F00001020FFF779FE0C490860FFF7FDFE00285E
:101F1000EED10B4804231A46009007480168074891
:101F20000068FEF7F3FC4FF6FF70FFF71BF9002087
:101F3000FFF708F908BD0000340000203000002041
:101F4000C43400082DE9F04D1D460C4698B01746E4
:101F500021F0004123F00043002814BF4FF0010C92
:101F60004FF0000C0CEB440CFE4A0CEB02064FEA5F
:101F7000620C66452BD33E0018BF012606EB4506D2
:101F80001644F94A964222D3F84A53EA070C02D083
:101F9000944205D148B918B000201146BDE8F08D33
:101FA000002808BF4FF0000C01D04FF0010C0CEBE3
:101FB000440212F5001F0AD8002F14BF4FF0010C85
:101FC0004FF0000C0CEB450212F5001F07D918B0BA
:101FD0003A462B462146BDE8F04DFFF78BBA00226A
:101FE000DFF88CA3002CB8BF534526DADFF884C392
:101FF0006345A8BF022220DADFF870C39C451CDCD1
:10200000DFF874C30CEB235CBCF1140F08DDCCF1DA
:10201000340627FA06FC0CFA06F6BE420DD108E09B
:102020005FB9CCF1140623FA06FC0CFA06F69E42C0
:1020300003D10CF00102C2F1020251EA000C19D1E5
:10204000002D17DA002C18BF022A01D0012A07D070
:102050000220FFF777FA18B0BDE8F04DFFF742BA5B
:102060000220FFF76FFAFFF73DFA18B081F0004148
:10207000BDE8F08DB7F1000C6CD1534525D104F1CA
:10208000804212F5801201BF00280020B74918B025
:1020900008BFBDE8F08DB548884207DC002DA1BF20
:1020A0006046294618B0BDE8F08D07E0281E05DA25
:1020B00080F0004118B06046BDE8F08DAF4979442A
:1020C000D1E9000118B0BDE8F08DDFF8A0C263458A
:1020D00025D1002D1FDA19B1514512D1D8B909E027
:1020E000002840F0EC82A24A214618B062F31E019B
:1020F000BDE8F08D0020214618B060F31E01BDE858
:10210000F08D08DA18B02346BDE8F04D02460020F5
:102110006146FEF711BA18B02146BDE8F08D514571
:1021200018DAB5F1804F0DD0A5F1005CBCF1FF5C71
:1021300010D1B4F1000C0DDB18B06146BDE8F04DD4
:1021400000F01EBD234618B00246BDE8F04D19460A
:10215000FEF780B9060024F0004C3BD1D9B15145BF
:1021600033D1002C06DD002DA1BF0020514618B050
:10217000BDE8F08D002C01DD002D1BDB002C13DAF7
:10218000002D11DB012A4FF0000014BF78497C4973
:1021900018B0BDE8F08D022A18BF002C0AD0012A21
:1021A00008D1002C06DA0AE0002CB8BF002D11DAA5
:1021B000012A04D0002018B00146BDE8F08D18B007
:1021C00000204FF00041BDE8F08DA1F14050B0F18A
:1021D0007F601AD0012000EBE47050EA020421D0A5
:1021E000624C521E4FF0000B104304BF4FF0000B27
:1021F000644C654883427CDD644A654893421FDD38
:10220000884217DB002D25DB37E0002C00DA4AB1CD
:10221000022A0CBF01204FF0FF3018B0BDE8F04D8E
:10222000FEF75BB80120FFF78DF918B0BDE8F04D5F
:10223000FFF762B94D4A8A4202DC002D0ADC1CE03D
:10224000814202DA002D18DA04E0484B994220DD81
:10225000002D12DD0220FFF775F9FFF753F905464F
:102260000E460022534658462146FEF7F3F818B0B2
:1022700066F31E012846BDE8F08D0220FFF762F9E3
:10228000FFF748F90A46214618B062F31E01BDE87F
:10229000F08D002230466146FEF719F880460E4662
:1022A0006FF00102FEF7B7F94FF05532394BFEF7E8
:1022B00011F842463346FEF7CDF80022364BFEF7C2
:1022C00009F8824642463346049110461946FEF705
:1022D000C1F85246049BFEF7BDF88A4600904FF0C5
:1022E000C0422E4B40463146FEF7B4F82C4A2B4BE9
:1022F00000E027E0CDE9060151460098FEF7AAF874
:1023000082460191274A284B40463146FEF7A2F803
:102310005246019BFDF7DBFF82460B4602460591C4
:10232000DDE90601FDF732FFDDE9062300268846D8
:102330003046FDF7CCFF5246059BFDF7CBFF02462A
:1023400000F07EB90020B1F5801F07DA3522304653
:102350006146FEF760F906466FF0340000EB21504D
:1023600024E00000FFFF1F00FFFF0F000000F03F10
:102370000000F07F0000404301FCFFFF762D0000CD
:102380000000F0FF0000F0BF0000E0410000F0435B
:10239000FFFFEF3F5555D53F0000E03F4715F73FA2
:1023A000FE822B6544DF5DF80BAE543EA0F2FF3099
:1023B0000190C1F3130040F07F6141F04051029160
:1023C000FE498842D8BF002004DDFD498142C8BFD4
:1023D000012001DD0D9008E000200D900198401CC7
:1023E00001900298A0F5801002900299F548784477
:1023F0000B910D9900EBC100D0E900230F933046FB
:102400000A920B99FDF763FFCDE90601DDE90A2188
:1024100030460F9BFDF7BAFE02460B460020EA4904
:10242000FEF78AF8059102460B460090DDE90601A9
:10243000FEF710F81490E5488A464FF000087844FB
:102440000299006812904FF0005040EA61010D9827
:102450000F9B01EB804000F5002109910A9A129828
:10246000FDF735FF32460B9BFDF734FF42465346DE
:10247000FDF7F0FF0646029140465146099B129A2D
:10248000FDF7E8FFDDE90623FDF724FF3246029B56
:10249000FDF71DFF059B009AFDF7DCFF0091149AE4
:1024A0000490534610461946FDF7D4FF06460246EF
:1024B000C7480B46029106217844FEF7BEFFCDE9DE
:1024C0000510029B324610461946FDF7C3FFDDE9B1
:1024D0000532FDF7BFFF05910646534640461946B3
:1024E000149AFDF753FE009B049AFDF7B3FF3246A2
:1024F000059BFDF74BFECDE90510424653461046BD
:102500001946FDF7A7FF0022B24B02910A90FDF792
:102510003DFEDDE90532FDF739FE0E464246AD4B84
:102520004046FDF7D4FE029B0A9AFDF7D0FEDDE996
:102530000532FDF7CFFE424602910A90334610461F
:102540005146FDF787FFCDE906015346149A0299DB
:102550000A98FDF77FFF8A4602903346424600996B
:102560000498FDF777FF5346029AFDF70FFE824667
:102570000B4602460591DDE90601FDF707FEDDE9A0
:102580000623002088460646FDF7A1FE5246059B1D
:10259000FDF7A0FE824609914FF060428E4B304617
:1025A0004146FDF757FF049006918C4A8A4B5046EE
:1025B0000999FDF74FFF82460291894A894B3046BF
:1025C0004146FDF747FF5246029BFDF7DFFD864B74
:1025D0007B440D9A03EBC203D3E90023FDF7D6FD3C
:1025E0000E9007910198FDF778FE0591DDE906133D
:1025F00082460E9A0498FDF7C9FD7C4A7A440D9BE9
:1026000002EBC303D3E9002300930292FDF7BEFD62
:102610005246059BFDF7BAFD0026884652463046D5
:10262000059BFDF754FE009B029AFDF750FE069BAA
:10263000049AFDF74CFE079B0E9AFDF74BFE0246EF
:1026400000200B46029038462946FDF703FF8246DC
:1026500001912B4638461946029AFDF738FE32465C
:102660004346FDF7F7FE5246019BFDF78FFD0746F7
:102670008A463246434629460298FDF7EBFE054658
:102680000E463A465346FDF781FD594A8846914227
:1026900021DBA8EB020353EA000210D12A4633469D
:1026A000FDF715FECDE90401524A534B3846514619
:1026B000FDF76CFDDDE90423FEF716F821D20220B8
:1026C000FEF740FFFEF71EFF0A46214618B062F3F0
:1026D0001E01BDE8F08D494B28F000429A4210D30C
:1026E000474A08EB020353EA00027FF4C6AD2A46CC
:1026F0003346FDF7ECFD3A465346FDF7F5FF7FF60E
:10270000BCAD0022019228F000403E493E4A01EB58
:102710002051824223DA481C4FF4801121FA00F044
:1027200040443A4AC0F30A517A44394BA1F2FF318E
:10273000CB4020EA0303C0F3130040F48010C1F142
:102740001401C84012680190B8F1000FBCBF4042AC
:10275000019028463146FDF7BAFD05460E462A4649
:10276000334638465146FDF711FD4FF0000842460A
:10277000284B40460591FDF76DFECDE90601264A3E
:10278000264B40460599FDF765FE009102902A46CA
:10279000334640460599FDF79AFD3A465346FDF704
:1027A00099FD1F4A1F4BFDF755FE009B029AFDF74E
:1027B000EDFC0746884602460B4635E08E9803003E
:1027C0007AB60B00BE2900000000F03FF629000099
:1027D000242900000000084009C7EE3FFD033ADC51
:1027E000F5015B14E02F3EBEFC270000C02700006F
:1027F00000009040FE822B654715973C00CC90402E
:1028000000346F3F01FCFFFF0000E03F0C27000099
:10281000FFFF0F00432EE63F396CA80C615C20BE21
:10282000EF39FAFE422EE63FDDE90601FDF7AEFC88
:10283000DDE9062305460E46FDF749FD3A464346C7
:10284000FDF748FD0F462A463346009010461946CC
:10285000FDF700FE824602462E4888460B460521BB
:102860007844FEF7EAFD52464346FDF7F3FD2A465B
:102870003346FDF72FFD80468A463B4628463146C3
:10288000009AFDF7E7FD3B46009AFDF77FFC0691B5
:10289000009000224FF0804340465146FDF717FD5F
:1028A0000F460C904246534628463146FDF7D2FD6E
:1028B0003B460C9AFDF740FE069B009AFDF707FD8C
:1028C0002A463346FDF703FD0022134BFDF702FDB8
:1028D000054601980E4601EB00510815002810DC52
:1028E00028463146019AFDF796FEFEF785FD04283D
:1028F00008BFFEF70FFE28463146019AFDF78BFE12
:1029000005460B4618B02A4658462146BDE8F04D0C
:10291000FDF7A0BDAC2500000000F03F4FF0D8400F
:102920004088704738B5002560E005EB85003149E7
:1029300001EB8004304904F10C0000F095F880B1FF
:10294000626802F10801012308222068FEF78EF870
:102950002A48009008231A46D4E90001FDF7D6FF63
:1029600043E0274904F10C0000F07EF878B162687A
:10297000511E012308222068FEF778F821480090B4
:1029800008231A46D4E90001FDF7C0FF2DE01E49D7
:1029900004F10C0000F068F880B1D4E9002102F1E4
:1029A000080008230122FEF761F818480090082368
:1029B0001A46D4E90001FDF7A9FF16E0144904F115
:1029C0000C0000F051F878B1D4E90021501E082322
:1029D0000122FEF74BF80F48009008231A46D4E96D
:1029E0000001FDF793FF00E038BD6D1C032D9CDB5B
:1029F00000BFF9E760000020E43400084434000818
:102A0000EC340008C4330008F434000844330008F0
:102A1000FC340008C432000810B5FFF70DFA50B1BD
:102A200010480078012806D100200E490870084699
:102A30000078FFF713F8FFF7DFF948B1094800788D
:102A400030B901200749087008460078FFF706F8FA
:102A5000FFF7EAF920B10348007808B9012010BD5A
:102A60000020FCE714000020024610680B68984222
:102A700005D150684B68984201D101207047002071
:102A8000FCE710B5FFF7C4F80446FDF777FB10BD6F
:102A900018B91F210A4A118010E0012803D1192119
:102AA000074A11800AE0022803D11321044A118049
:102AB00004E0032802D10D21014A11807047000073
:102AC0002834014038B50024FFF7F8F800F0B0F8DA
:102AD00000F07CF8FDF7C4FE0020FEF733FB002079
:102AE000FEF740FB214808231A4600902048016861
:102AF00020480068FDF70AFFFFF7F0F900BF31E05A
:102B0000E0211820FFF778F804EB84011A4A42F814
:102B10002100E0211820FFF76FF804EB8401164A2A
:102B200002EB8101486001210020FFF765F808B140
:102B3000012000E0002004EB84010F4A02EB810138
:102B400008720E4804EB84020B4B03EB82020090E8
:102B5000516804EB840253F8220008231A46FDF75B
:102B6000D5FE641C032CCBDB38BD000044300008CC
:102B70001C000020180000206000002044330008E2
:102B80002DE9F04106460F46FDF75CFD041E0D469B
:102B900018BF0120284320F00040C0F17F6000F101
:102BA000E040C00F0ED0301C18BF0120384320F089
:102BB0000040C0F17F6000F1E040C00F04BF012081
:102BC000FEF7C0FC20462946BDE8F08110B5134849
:102BD00000684EF208010843104908600F480C389D
:102BE00000684EF2080108430C490C3908600C4893
:102BF000406900F00F0446F26060204308494861D4
:102C000008468068C0F30B0444F4405088602820D4
:102C1000FEF706FC0920FEF703FC10BD0C04014082
:102C20000000014010B5FEF75BFF00F00BF810BD8F
:102C30000348008840F00100014908807047000007
:102C4000002C01400348008840F001000149088041
:102C500070470000003401400348006820F4807091
:102C60000149086070470000000401400548006801
:102C700020F46040034908600846006820F008001E
:102C8000086070470004014010B500F009F800F03A
:102C900011F800F019F8FFF7E9FFFFF7DDFF10BDAD
:102CA0000348008820F001000149088070470000B7
:102CB000002C01404FF08040008820F001004FF0D0
:102CC00080410880704700000348008820F0010020
:102CD00001490880704700000034014030B589B0D8
:102CE000002598E005EB85004D4901EB8004206844
:102CF000059060680690207AF0B14A49206809681A
:102D000088420CD0474920680968884203DD206862
:102D1000401E20602EE02068401C20602AE04249CE
:102D200060680968884203DD6068401E606021E0D9
:102D30006068401C60601DE03B496068096888422B
:102D40000CD0394960680968884203DD6068401E1C
:102D500060600FE06068401C60600BE031492068F3
:102D60000968884203DD2068401E206002E0206878
:102D7000401C20602068002801DC002020602068C2
:102D8000B0F59C7F02DB40F23710206060680028BD
:102D900001DC002060606068DA2801DBD920606017
:102DA000206807906068089005990798401AE060CD
:102DB00006990898411A216104201B4A1268194B90
:102DC0001B68CDE901200093039008231A46D4E93B
:102DD0000001FEF775FCD8B1FFF780F813480068D2
:102DE000401C1249086008460068032806D10120EB
:102DF0000F490860FFF748FF09B030BD0B48006875
:102E0000022802D10120FFF743FEFEF769FE01E030
:102E1000FFF788FD6D1C032DFFF664AF00BFEBE7E5
:102E2000600000203000002034000020240000203A
:102E30000000002008B5494800684949096808446D
:102E4000474908604548406846490968084445497B
:102E5000086043480068002802DC00204049086000
:102E60003F480068B0F59C7F03DB40F237103C49D7
:102E700008603C480068002802DC002039490860EE
:102E800038480068DA2802DBD9203649086036491C
:102E90003248FFF7E9FD98B1012308223148016863
:102EA00008312F480068FDF7E1FD304808231A4635
:102EB00000902C4801682A480068FDF727FD4BE088
:102EC0002B492648FFF7D0FD98B126480068411EDF
:102ED0000123082222480068FDF7C8FD2548082381
:102EE0001A4600901F4801681D480068FDF70EFD56
:102EF00032E021491948FFF7B7FD98B108230122B4
:102F000018480168164800680830FDF7AFFD1B48F7
:102F100008231A4600901348016811480068FDF71D
:102F2000F5FC19E016490D48FFF79EFD98B10C49D4
:102F30000968481E082301220A490968FDF796FD21
:102F4000104808231A4600900648016804480068A3
:102F5000FDF7DCFC00E008BD00BFFCE72800002016
:102F6000180000201C000020E4340008C4310008D0
:102F7000EC34000844310008F4340008C430000880
:102F8000FC3400084430000802488068012121EA2E
:102F900010207047002001404FF0D8410880704752
:102FA0004FF0D841488070474FF0D8414880704773
:102FB00070B505460C462846FFF7EEFF2046FFF7A2
:102FC000EFFF70BD00000000E0FFE0FFE0FFE0FF6A
:102FD000000000000000E0FFE0FFE0FFE0FFE0FF96
:102FE000E0FF0000E0FFE0FFE0FFE0FFE0FFE0FFC8
:102FF000E0FFE0FFE0FFE0FFE0FFE0FFE0FFE0FFD9
:10300000E0FFE0FFE0FFE0FFE0FFE0FFE0FFE0FFC8
:10301000E0FFE0FFE0FFE0FFE0FFE0FFE0FFE0FFB8
:10302000E0FFE0FF0000E0FFE0FFE0FFE0FFE0FF87
:10303000E0FF000000000000E0FFE0FFE0FFE0FF35
:103040000000000000000000E0FFE0FFE0FFE0FF04
:10305000000000000000E0FFE0FFE0FFE0FFE0FF15
:10306000E0FF0000E0FFE0FFE0FFE0FFE0FFE0FF47
:1030700000000000E0FFE0FFE0FFE0FFE0FF0000F5
:1030800000000000E0FFE0FFE0FFE0FFE0FF0000E5
:1030900000000000E0FFE0FFE0FFE0FFE0FFE0FFF6
:1030A000000000000000E0FFE0FFE0FFE0FFE0FFC5
:1030B000E0FF000000000000E0FFE0FFE0FFE0FFB5
:1030C0000000000000000000E0FFE0FFE0FFE0FF84
:1030D000000000000000E0FFE0FFE0FFE0FFE0FF95
:1030E000E0FF000000000000E0FFE0FFE0FFE0FF85
:1030F000E0FFE0FF000000000000E0FFE0FFE0FF75
:10310000E0FFE0FF000000000000E0FFE0FFE0FF64
:10311000E0FFE0FF00000000E0FFE0FFE0FFE0FF75
:10312000E0FFE0FF0000E0FFE0FFE0FFE0FFE0FF86
:10313000E0FF000000000000E0FFE0FFE0FFE0FF34
:10314000000000000000000000000000000000007F
:10315000000000000000E0FF000000000000000090
:10316000E0FF0000E0FFE0FFE0FF00000000E0FF04
:10317000E0FFE0FFE0FFE0FFE0FFE0FFE0FFE0FF57
:10318000E0FFE0FFE0FFE0FFE0FFE0FFE0FFE0FF47
:10319000E0FFE0FFE0FFE0FFE0FFE0FFE0FFE0FF37
:1031A000E0FFE0FF0000E0FFE0FFE0FFE0FFE0FF06
:1031B000E0FF000000000000E0FFE0FFE0FFE0FFB4
:1031C0000000000000000000E0FFE0FFE0FFE0FF83
:1031D000000000000000E0FFE0FFE0FFE0FFE0FF94
:1031E000E0FF0000E0FFE0FFE0FFE0FFE0FFE0FFC6
:1031F000E0FFE0FFE0FFE0FFE0FFE0FFE0FFE0FFD7
:10320000E0FFE0FFE0FFE0FFE0FFE0FFE0FFE0FFC6
:10321000E0FFE0FFE0FFE0FFE0FF00000000E0FF74
:10322000E0FFE0FF0000E0FF000000000000000001
:10323000E0FF0000000000000000000000000000AF
:10324000000000000000000000F800F800F800F89E
:1032500000000000000000F800F800F800F800F896
:1032600000F8000000F800F800F800F800F800F896
:1032700000F800F800F800F800F800F800F800F88E
:1032800000F800F800F800F800F800F800F800F87E
:1032900000F800F800F800F800F800F800F800F86E
:1032A00000F800F8000000F800F800F800F800F856
:1032B00000F800000000000000F800F800F800F836
:1032C000000000000000000000F800F800F800F81E
:1032D00000000000000000F800F800F800F800F816
:1032E00000F8000000F800F800F800F800F800F816
:1032F0000000000000F800F800F800F800F80000F6
:103300000000000000F800F800F800F800F80000E5
:103310000000000000F800F800F800F800F800F8DD
:1033200000000000000000F800F800F800F800F8C5
:1033300000F800000000000000F800F800F800F8B5
:10334000000000000000000000F800F800F800F89D
:1033500000000000000000F800F800F800F800F895
:1033600000F800000000000000F800F800F800F885
:1033700000F800F800000000000000F800F800F875
:1033800000F800F800000000000000F800F800F865
:1033900000F800F80000000000F800F800F800F85D
:1033A00000F800F8000000F800F800F800F800F855
:1033B00000F800000000000000F800F800F800F835
:1033C00000000000000000000000000000000000FD
:1033D00000000000000000F80000000000000000F5
:1033E00000F8000000F800F800F80000000000F805
:1033F00000F800F800F800F800F800F800F800F80D
:1034000000F800F800F800F800F800F800F800F8FC
:1034100000F800F800F800F800F800F800F800F8EC
:1034200000F800F8000000F800F800F800F800F8D4
:1034300000F800000000000000F800F800F800F8B4
:10344000000000000000000000F800F800F800F89C
:1034500000000000000000F800F800F800F800F894
:1034600000F8000000F800F800F800F800F800F894
:1034700000F800F800F800F800F800F800F800F88C
:1034800000F800F800F800F800F800F800F800F87C
:1034900000F800F800F800F800F80000000000F85C
:1034A00000F800F8000000F8000000000000000034
:1034B00000F8000000000000000000000000000014
:1034C000000000000000FFFFFFFF0000FFFFFFFF04
:1034D000FFFFFFFFFFFFFFFFFFFFFFFF0000FFFFFA
:1034E000FFFF000000000000FFFFFFFF00000000E2
:1034F00001000000FFFFFFFF0000000001000000CE
:1035000000000000000000000000000000000000BB
:103510000000000004040404040004000A0A0A0075
:10352000000000000A0A1F0A1F0A0A00041E050EF6
:10353000140F040003130804021918000205050201
:10354000150916000C0C0402000000000804020219
:103550000204080002040808080402000004150E12
:103560000E1504000004041F040400000000000005
:103570000C0C04020000001F00000000000000000E
:10358000000C0C0000100804020100000E111315BD
:1035900019110E000406040404040E000E11100E8E
:1035A00001011F001F10080C10110E00080C0A0961
:1035B0001F0808001F010F1010110E001C02010F40
:1035C00011110E001F101008040201000E11110E3F
:1035D00011110E000E11111E10080700000004004A
:1035E00004000000000004000404020010080402AB
:1035F0000408100000001F001F0000000204081053
:10360000080402000E11100C040004000E11151D18
:103610000D011E00040A11111F1111000F11110FCD
:1036200011110F000E11010101110E000F111111E6
:1036300011110F001F01010F01011F001F01010FD8
:10364000010101001E11010119111E001111111FAC
:10365000111111000E04040404040E001C080808D3
:1036600008090600110905030509110001010101FE
:1036700001011F00111B1515151111001111131552
:10368000191111000E11111111110E000F11110F4E
:10369000010101000E111111150916000F11110F72
:1036A000050911000E11010E10110E001F15040462
:1036B000040404001111111111110E001111111146
:1036C000110A04001111111515150A0011110A042F
:1036D0000A11110011110A04040404001F10080E3D
:1036E00002011F001E02020202021E00000102046B
:1036F000081000001E10101010101E00040A110007
:10370000000000000000000000001F000606040882
:1037100000000000000006080E091E0001010D1344
:1037200011130D0000000E1101110E0010101619DA
:103730001119160000000E111F010E000814040ECE
:103740000404040000000E191916100E01010D13D7
:10375000111111000400060404040E0008000808FA
:10376000080906000101090503050900060404040F
:1037700004040E0000000B151515150000000D13B4
:103780001111110000000E1111110E0000000D1397
:10379000130D0101000016191916101000000D1369
:1037A0000101010000001E010E100F0004041F049F
:1037B0000414080000001111111916000000111165
:1037C000110A04000000111115150A000000110A69
:1037D000040A1100000011111E10110E00001F0834
:1037E00004021F0008040402040408000404040086
:1037F0000404040002040408040402000215080082
:1038000000000000000000000000000000000C129A
:10381000120C000000000C1E1E0C000000001E1206
:10382000121E000000001E1E1E1E000000000C0CD8
:10383000121E000000000C0C1E1E000000001E12D4
:103840000C0C000000001E1E0C0C000000001816DE
:10385000161800000000181E1E1800000000061AAE
:103860001A0600000000061E1E06000000000C12D2
:10387000120C000000000C1E1E0C000000001E12A6
:10388000121E000000001E1E1E1E00000000000090
:103890000000000000000000000000000000000028
:1038A0000000000000000000000000000000000018
:1038B0000000000000000000000000000000800187
:1038C00080018001800180018001800180018001F0
:1038D00080018001800180010000000080018001E2
:1038E00000000000000000000000000000000000D8
:1038F000CC00CC00CC00CC00CC00CC000000000000
:1039000000000000000000000000000000000000B7
:1039100000000000000000000000000000000000A7
:103920000000000000000000600C600C600C30061D
:103930003006FE1FFE1F300638071803FE1FFE1F4D
:10394000180318038C018C018C010000000080001A
:10395000E003F80F9C0E8C1C8C188C009800F8016A
:10396000E007800E801C8C188C189C18B80CF00F87
:10397000E003800080000000000000000000000064
:1039800000000E181B0C110C110611061103110377
:103990009B018E01C038C06C6044604430443044A8
:1039A0001844186C0C380000000000000000E00112
:1039B000F0033807180618063003F001F000F8008D
:1039C0009C310E33061E061C061C063FFC73F021BC
:1039D00000000000000000000000000000000000E7
:1039E0000C000C000C000C000C000C00000000008F
:1039F00000000000000000000000000000000000C7
:103A000000000000000000000000000000000002B4
:103A100000038001C000C000600060003000300082
:103A200030003000300030003000300060006000B6
:103A3000C000C00080010003000200000000200060
:103A40006000C00080018001000300030006000642
:103A5000000600060006000600060006000300033C
:103A600080018001C0006000200000000000000014
:103A70000000000000000000C000C000D806F807E9
:103A8000E0013003380700000000000000000000E3
:103A90000000000000000000000000000000000026
:103AA0000000000000000000800180018001800112
:103AB0008001FC3FFC3F800180018001800180018A
:103AC00000000000000000000000000000000000F6
:103AD00000000000000000000000000000000000E6
:103AE0000000000000000000000000000000800155
:103AF00080010001000180000000000000000000C3
:103B000000000000000000000000000000000000B5
:103B100000000000E007E0070000000000000000D7
:103B20000000000000000000000000000000000095
:103B30000000000000000000000000000000000085
:103B40000000000000000000000000000000C000B5
:103B5000C000000000000000000000000000000C99
:103B6000000C0006000600060003000300038003AB
:103B7000800180018001C000C000C00060006000C2
:103B80000000000000000000000000000000E00352
:103B9000F007380E180C0C180C180C180C180C1810
:103BA0000C180C180C180C18180C380EF007E00341
:103BB0000000000000000000000000000000000104
:103BC0008001C001F001980188018001800180011D
:103BD00080018001800180018001800180018001DD
:103BE0000000000000000000000000000000E003F2
:103BF000F80F180C0C180C1800180018000C000610
:103C000000038001C000600030001800FC1FFC1F92
:103C10000000000000000000000000000000E001C3
:103C2000F807180E0C0C0C0C000C0006C003C007A3
:103C3000000C001800180C180C18180CF807E003FA
:103C40000000000000000000000000000000000C68
:103C5000000E000F000F800DC00C600C600C300CCB
:103C6000180C0C0CFC3FFC3F000C000C000C000C72
:103C70000000000000000000000000000000F80F3D
:103C8000F80F180018000C00EC03FC071C0E001CB9
:103C90000018001800180C181C0C180EF807E00388
:103CA0000000000000000000000000000000C0074D
:103CB000F00F381C181818000C00CC03EC0F3C0E49
:103CC0001C1C0C180C180C18181C380EF007E003FC
:103CD0000000000000000000000000000000FC1FC9
:103CE000FC1F000C00060006000380038001C001D9
:103CF000C000E00060006000700030003000300064
:103D00000000000000000000000000000000E003D0
:103D1000F007380E180C180C180C3806F007F007CE
:103D2000180C0C180C180C180C18380CF80FE003B1
:103D30000000000000000000000000000000E003A0
:103D4000F007380E1C0C0C180C180C181C1C381E14
:103D5000F81BE0190018000C000C1C0EF807F0010D
:103D60000000000000000000000000000000000053
:103D70000000000000000000800180010000000041
:103D80000000000000000000000000008001800131
:103D90000000000000000000000000000000000023
:103DA0000000000000000000800180010000000011
:103DB0000000000000000000000000008001800101
:103DC0000001000180000000000000000000000071
:103DD0000000000000000000000000000010001CB7
:103DE000800FE003F8001800F800E003800F001CCB
:103DF00000100000000000000000000000000000B3
:103E0000000000000000000000000000F81F00009B
:103E100000000000F81F000000000000000000008B
:103E20000000000000000000000000000000000092
:103E30000000000000000000000000000800380042
:103E4000F001C007001F0018001FC007F001380074
:103E50000800000000000000000000000000E00377
:103E6000F80F180C0C180C180018000C00060003B2
:103E70008001C000C000C00000000000C000C00001
:103E80000000000000000000000000000000000032
:103E9000E00718180420C229224A114409440944A1
:103EA000094409221113E20C024004201818E0070B
:103EB000000000000000000000000000000080037F
:103EC0008003C006C006C006600C600C30183018B5
:103ED0003018F83FF83F1C700C600C6006C006C03C
:103EE0000000000000000000000000000000FC03D3
:103EF000FC0F0C0C0C180C180C180C0CFC07FC0F0D
:103F00000C180C300C300C300C300C18FC1FFC075B
:103F10000000000000000000000000000000C007DA
:103F2000F01F38381C300C700660060006000600D2
:103F300006000600060006600C701C30F01FE0074B
:103F40000000000000000000000000000000FE0370
:103F5000FE0F060E0618061806300630063006302C
:103F600006300630063006180618060EFE0FFE0351
:103F70000000000000000000000000000000FC3F06
:103F8000FC3F0C000C000C000C000C00FC1FFC1F84
:103F90000C000C000C000C000C000C00FC3FFC3F63
:103FA0000000000000000000000000000000F83FDA
:103FB000F83F18001800180018001800F81FF81F24
:103FC0001800180018001800180018001800180031
:103FD0000000000000000000000000000000E00FF2
:103FE000F83F3C780E6006E007C00300030003FEC4
:103FF00003FE03C007C006C00EC03CF0F83FE00F50
:1040000000000000000000000000000000000C3074
:104010000C300C300C300C300C300C30FC3FFC3FC2
:104020000C300C300C300C300C300C300C300C30B0
:1040300000000000000000000000000000008001FF
:104040008001800180018001800180018001800168
:104050008001800180018001800180018001800158
:10406000000000000000000000000000000000064A
:104070000006000600060006000600060006000610
:10408000000600060006180618063807F003E001CF
:1040900000000000000000000000000000000630EA
:1040A0000618060C060606038601C60066007600A2
:1040B000DE008E0106030606060C061806300660B2
:1040C00000000000000000000000000000001800D8
:1040D0001800180018001800180018001800180020
:1040E000180018001800180018001800F81FF81F12
:1040F00000000000000000000000000000000EE0D2
:104100001EF01EF01EF036D836D836D836D866CC1B
:1041100066CC66CCC6C6C6C6C6C6C6C686C386C379
:1041200000000000000000000000000000000C3053
:104130001C303C303C306C306C30CC30CC308C316E
:104140000C330C330C360C360C3C0C3C0C380C305D
:104150000000000000000000000000000000E00778
:10416000F81F1C380E70066003C003C003C003C0F4
:1041700003C003C003C006600E701C38F81FE007C0
:104180000000000000000000000000000000FC0F24
:10419000FC1F0C380C300C300C300C300C18FC1F91
:1041A000FC070C000C000C000C000C000C000C00B8
:1041B0000000000000000000000000000000E00718
:1041C000F81F1C380E70066003E003C003C003C074
:1041D00003C003C007E006630E3F1C3CF83FE0F756
:1041E00000C0000000000000000000000000FE0F02
:1041F000FE1F06380630063006300638FE1FFE0762
:1042000006030606060C0618061806300630066079
:104210000000000000000000000000000000E003BB
:10422000F80F1C0C0C180C180C001C00F803E00F05
:10423000001E0038063006300E301C1CF80FE00758
:104240000000000000000000000000000000FE7FF1
:10425000FE7F80018001800180018001800180015A
:104260008001800180018001800180018001800146
:1042700000000000000000000000000000000C3002
:104280000C300C300C300C300C300C300C300C304E
:104290000C300C300C300C300C301818F81FE007C4
:1042A00000000000000000000000000000000360AB
:1042B0000630063006300C180C180C18180C180CA8
:1042C000380E30063006700760036003C001C0017D
:1042D000000000000000000000000000000003607B
:1042E000C361C361C3616633663366336633663365
:1042F00066336C1B6C1B6C1B2C1A3C1E380E380E64
:1043000000000000000000000000000000000FE0BE
:104310000C7018303018700C600EC00780038003DA
:10432000C003E006700C301C18180C300E6007E05B
:10433000000000000000000000000000000003C0BA
:1043400006600C301C383818300C6006E007C003DB
:104350008001800180018001800180018001800155
:104360000000000000000000000000000000FC7FD2
:10437000FC7F006000300018000C00060003800184
:10438000C0006000300018000C000600FE7FFE7FB9
:104390000000000000000000000000000000E0033A
:1043A000E00360006000600060006000600060008A
:1043B00060006000600060006000600060006000FD
:1043C000600060006000E003E003000000003000D7
:1043D0003000600060006000C000C000C000C0018C
:1043E0008001800180010003000300030006000635
:1043F0000000000000000000000000000000E003DA
:10440000E0030003000300030003000300030003B4
:104410000003000300030003000300030003000384
:10442000000300030003E003E003000000000000BD
:10443000C001C00160036003600330063006180C41
:10444000180C000000000000000000000000000048
:10445000000000000000000000000000000000005C
:10446000000000000000000000000000000000004C
:104470000000000000000000000000000000FFFF3E
:10448000FFFF0000000000000000000000000C0022
:104490000C000C000C000C000C00000000000000E0
:1044A000000000000000000000000000000000000C
:1044B00000000000000000000000000000000000FC
:1044C0000000000000000000F003F8071C0C0C0CBA
:1044D000000FF00FF80C0C0C0C0C1C0FF80FF01860
:1044E00000000000000000000000000000001800B4
:1044F0001800180018001800D803F80F380C181806
:1045000018181818181818181818380CF80FD80395
:10451000000000000000000000000000000000009B
:104520000000000000000000C003F007300E180C6F
:104530001800180018001800180C300EF007C003FF
:104540000000000000000000000000000000001853
:104550000018001800180018C01BF01F301C181895
:1045600018181818181818181818301CF01FC01B25
:10457000000000000000000000000000000000003B
:104580000000000000000000C003F00F300C1818FD
:10459000F81FF81F180018003818301CF00FC0075B
:1045A0000000000000000000000000000000800F7C
:1045B000C00FC000C000C000F007F007C000C0007E
:1045C000C000C000C000C000C000C000C000C000EB
:1045D00000000000000000000000000000000000DB
:1045E0000000000000000000E00DF80F180E0C0C99
:1045F0000C0C0C0C0C0C0C0C0C0C180EF80FE00D29
:10460000000C0C0C1C06F807F0010000000018005C
:104610001800180018001800D807F80F381C1818D0
:10462000181818181818181818181818181818180A
:104630000000000000000000000000000000C000BA
:10464000C000000000000000C000C000C000C000AA
:10465000C000C000C000C000C000C000C000C0005A
:104660000000000000000000000000000000C0008A
:10467000C000000000000000C000C000C000C0007A
:10468000C000C000C000C000C000C000C000C0002A
:10469000C000C000C000F8007800000000000C005E
:1046A0000C000C000C000C000C0C0C060C038C0114
:1046B000CC006C00FC009C018C030C030C060C0C61
:1046C0000000000000000000000000000000C0002A
:1046D000C000C000C000C000C000C000C000C000DA
:1046E000C000C000C000C000C000C000C000C000CA
:1046F00000000000000000000000000000000000BA
:1047000000000000000000007C3CFF7EC7E383C186
:1047100083C183C183C183C183C183C183C183C179
:104720000000000000000000000000000000000089
:1047300000000000000000009807F80F381C18184F
:1047400018181818181818181818181818181818E9
:104750000000000000000000000000000000000059
:104760000000000000000000C003F00F300C18181B
:1047700018181818181818181818300CF00FC0034B
:104780000000000000000000000000000000000029
:104790000000000000000000D803F80F380C1818C3
:1047A00018181818181818181818380CF80FD803F3
:1047B0001800180018001800180000000000000081
:1047C0000000000000000000C01BF01F301C181883
:1047D00018181818181818181818301CF01FC01BB3
:1047E0000018001800180018001800000000000051
:1047F0000000000000000000B007F003700030006F
:104800003000300030003000300030003000300028
:104810000000000000000000000000000000000098
:104820000000000000000000E003F003380E180C48
:104830003800F003C007000C180C380EF007E00336
:104840000000000000000000000000000000000068
:104850008000C000C000C000F007F007C000C0002A
:10486000C000C000C000C000C000C000C00780077A
:104870000000000000000000000000000000000038
:104880000000000000000000181818181818181868
:1048900018181818181818181818381CF01FE019CC
:1048A0000000000000000000000000000000000008
:1048B00000000000000000000C18180C180C180C68
:1048C000300630063006600360036003C001C0019B
:1048D00000000000000000000000000000000000D8
:1048E0000000000000000000C141C141C3616363DA
:1048F000636363633636363636361C1C1C1C1C1C40
:1049000000000000000000000000000000000000A7
:1049100000000000000000001C38381C300C60064D
:10492000C003C003C003C0036006300C381C1C3831
:104930000000000000000000000000000000000077
:104940000000000000000000183030183018701807
:10495000600C600CE00CC006C0068003800380037E
:1049600080018001C001F000700000000000000024
:104970000000000000000000FC1FFC1F000C0006EF
:1049800000038001C000600030001800FC1FFC1F05
:104990000000000000000000000000000000000314
:1049A0008001C000C000C000C000C000C0006000A6
:1049B0006000300060004000C000C000C000C000C7
:1049C000C000C00080010003000000000000800162
:1049D00080018001800180018001800180018001CF
:1049E00080018001800180018001800180018001BF
:1049F00080018001800180018001000000006000D2
:104A0000C000C0018001800180018001800100039D
:104A10000003000600030001800180018001800185
:104A200080018001C0006000000000000000000064
:104A3000000000000000000000000000F010F81F5F
:104A4000080F00000000000000000000000000004F
:104A50000000000000000000000000000000000056
:104A60000000000000000000000000000000000046
:104A70000000000000000000000000000000000036
:104A80000000000000000000000000000000000026
:104A9000000000000000C003300C081004200420B7
:104AA000024002400240024002400420042008105C
:104AB000300CC003000000000000000000000000F7
:104AC000000000000000C003F00FF81FFC3FFC3F97
:104AD000FE7FFE7FFE7FFE7FFE7FFC3FFC3FF81FD8
:104AE000F00FC00300000000000000000000000004
:104AF00000000000000000000000E007F00F1818A0
:104B000018181818181818181818F00FE0070000CF
:104B10000000000000000000000000000000000095
:104B200000000000000000000000E007F00FF81F88
:104B3000F81FF81FF81FF81FF81FF00FE00700001C
:104B40000000000000000000000000000000000065
:104B50000000000000000000000000000000000055
:104B6000000000008001C0036006300C18181818FF
:104B7000F81FF81F00000000000000000000000007
:104B80000000000000000000000000000000000025
:104B9000000000008001C003E007F00FF81FF81FBD
:104BA000F81FF81F000000000000000000000000D7
:104BB00000000000F81FF81F18181818300C6006C5
:104BC000C0038001000000000000000000000000A1
:104BD00000000000000000000000000000000000D5
:104BE00000000000F81FF81FF81FF81FF00FE00783
:104BF000C003800100000000000000000000000071
:104C000000000000000000000000000000000000A4
:104C100000000000000000000000E001F001980129
:104C20008C01860186018C019801F001E0010000F1
:104C30000000000000000000000000000000000074
:104C400000000000000000000000E001F001F80199
:104C5000FC01FE01FE01FC01F801F001E001000091
:104C60000000000000000000000000000000000044
:104C7000000000000000000000008007800F801985
:104C800080318061806180318019800F8007000051
:104C90000000000000000000000000000000000014
:104CA000000000000000000000008007800F801F4F
:104CB000803F807F807F803F801F800F80070000C3
:104CC0000000000000000000000000000000C00123
:104CD00020022002400130060808080808080808D9
:104CE00008080808080820022002200220022002EA
:104CF0002002200220022002200200000000C00149
:104D0000E003E003C001F007D80DD80DD80DD80D91
:104D1000D80DD80DD80D60036003600360036003F5
:104D20006003600360036003600300000000C001D3
:104D30002002200240013006080808080808041074
:104D40000220022040012002200210040808080866
:104D50000410041004200440000000000000C00102
:104D6000E003E003C001F007D80DD80DD80DCC1931
:104D7000C631C261C001600360037006380C180CB4
:104D80000C180C180C300C60000000000600080025
:104D900020000000700000000C3500081000180012
:104DA00020000000700000008C38000800000000A7
:104DB000000000000000F03F000000000000F83F8D
:104DC00000000000000000000000004003B8E23FC7
:104DD000000000000000000006D0CF43EBFD4C3E79
:104DE000033333333333E33FFFAB6FDBB66DDB3F6E
:104DF0004D268F515555D53F01411DA96074D13FB6
:104E000065DBC9934A86CD3FEF4E454A287ECA3FAF
:104E10003E5555555555C53F93BDBE166CC166BF31
:104E20002CDE25AF6A56113FF16BD2C541BDBBBE2A
:104E3000D0A4BE726937663E00000000000000008A
:104E4000604E0008000000206000000024150008EB
:104E5000C04E000860000020400400003415000827
:104E60000000000000000000000000000000000042
:104E70000000000000000000A0000000780000001A
:104E80000000000000000000000000000000000022
:104E900000000000000000000000FFFF0000000014
:104EA0000000000000A24A04000000000000000012
:104EB00001020304060708090000000000000000CA
:0400000508000145A9
:00000001FF
