:020000040800F2
:1000000058040020450100084D0100084F01000878
:1000100051010008530100085501000800000000CC
:100020000000000000000000000000005701000870
:1000300059010008000000005B0100085D01000894
:100040005F0100085F0100085F0100085F01000810
:100050005F0100085F0100085F0100085F01000800
:100060005F010008810200085F0100085F010008CD
:100070005F0100085F0100085F0100085F010008E0
:100080005F0100085F0100085F0100085F010008D0
:100090005F0100085F0100085F010008C502000859
:1000A0005F010008790D00085F0100085F0100088A
:1000B0009D0D00085F0100085F0100085F01000856
:1000C0005F0100085F0100085F0100085F01000890
:1000D0005F0100085F0100085F0100085F01000880
:1000E000DD0100085F0100085F0100085F010008F2
:1000F000BD0D00085F0100085F0100085F010008F6
:100100005F0100085F0100085F0100085F0100084F
:100110005F0100085F0100085F0100085F0100083F
:100120005F0100085F0100085F0100085F0100082F
:10013000DFF80CD000F040F800480047CD1400086C
:10014000580400200648804706480047FEE7FEE7BF
:10015000FEE7FEE7FEE7FEE7FEE7FEE7FEE7FEE777
:10016000190D0008310100080649074A0868504384
:1001700043F23902104408604008704701490860A2
:1001800070470000500000206D4EC64130B50B4650
:10019000014600202022012409E021FA02F59D42B7
:1001A00005D303FA02F5491B04FA02F52844151E8B
:1001B000A2F10102F1DC30BD064C074D06E0E0681B
:1001C00040F0010394E8070098471034AC42F6D39E
:1001D000FFF7B2FFC4360008E436000810B501F09E
:1001E0006DF990B11F48006840F400401D49086057
:1001F0001D491E4801F0E0F918B11D4800F0CCFE81
:100200002EE01C4800F0C8FE2AE001F03FF990B152
:100210001448006840F480401249086016491348A9
:1002200001F0CAF918B1124800F0B6FE18E0134800
:1002300000F0B2FE14E001F031F988B1094800681D
:1002400040F40050074908600C49084801F0B4F92F
:1002500018B1074800F0A0FE02E0074800F09CFE3D
:1002600010BD000014040140041E000828000020F6
:100270001C1E0008FC1D0008141E00080C1E0008AF
:1002800010B501F0FBF888B10948006840F008009B
:10029000074908600749084801F08EF918B1074876
:1002A00000F07AFE02E0064800F076FE10BD000085
:1002B00014040140FC1D0008280000201C1E00083A
:1002C000041E00080548006800F4807028B1034847
:1002D000006840F4807001490860704714040140D0
:1002E00010B5F0234FF4A0720021084600F04AFC3C
:1002F000222001F0DDFA00BF00BF002404E0064820
:10030000008801F0DDFA641CB4F5963FF7D300BF16
:1003100000BF002010BD0000320000202DE9F05F7A
:100320008046894614461F46DDF828A0D3463B4642
:1003300022464946404600F025FC222001F0B8FA4A
:1003400000BF00BF781E00FB04F50AE0002605E0B0
:10035000A9193BF8110001F0B3FA761CA642F7D3B5
:100360002D1B002DF2DA00BF00BF0020BDE8F09F7A
:100370002DE9F04781468A4616462E48006818B98E
:100380004FF0FF30BDE8F0872A4800684068361A11
:10039000284909680988C81DC11700EB51714FEA47
:1003A000E10824480068C16806FB08F0214A126889
:1003B000528800FB02151F48006843881D480068EA
:1003C00002885146484600F0DDFB222001F070FA19
:1003D00000BF00BF002723E000241AE0297804F0C2
:1003E0000702114101F0010111B11349098801E02F
:1003F00012490988084601F063FA04F0070007284B
:1004000006D10C4800680088401EA04200D06D1C38
:10041000641C084800680088A042DFD86D1C7F1C5F
:10042000044800684088B842D6D800BF00BF00200A
:10043000A8E7000034000020300000203200002037
:1004400070B505460E46144601232246314628461D
:1004500000F098FB222001F02BFA00BF00BF03E060
:100460000548008801F02CFA201EA4F10104F7D100
:1004700000BF00BF70BD0000300000202DE9F0413A
:1004800005460E4617461C463A4631462846FFF7B3
:10049000D7FF31193A462846FFF7D2FF22463146A8
:1004A000284600F01FF8E8192246314600F01AF8F5
:1004B0000020BDE8F081000070B505460E461446E8
:1004C00009E014F8012B31462846FFF751FF044894
:1004D00000680088054420780028F2D170BD000033
:1004E0003400002070B505460E461446234601220E
:1004F0003146284600F046FB222001F0D9F900BF22
:1005000000BF03E00548008801F0DAF9201EA4F1DD
:100510000104F7D100BF00BF70BD00003000002013
:1005200070B5FE48806940F2ED110843FB498861CF
:10053000FB48006800F0FF2444F0BB10F849086055
:10054000081D0068F74900EA0104F7482043F44910
:10055000091D0860F548006820F0704444F0304000
:10056000F24908604FF0BB30091D0860F048006890
:1005700020F00F0444F00B00ED490860ED4840689E
:10058000ED4900EA0104ED482043EA494860EC489F
:100590000068EB490860EA481038006820F00F0452
:1005A00044F00300E64910390860DC48406940F433
:1005B0008070DA49486140F205404107C86141F264
:1005C00011208861322000F065FD0026304601F0E0
:1005D0006FF900F0C5FF0546472D7DD10120D949AF
:1005E00008700021EA2001F06FF92021EB2001F0D2
:1005F0006BF90C21EC2001F067F9C721ED2001F027
:1006000063F93821E82001F05FF91021E92001F0B9
:100610005BF90121F12001F057F91021F22001F0DE
:1006200053F90121402001F04FF90021412001F050
:100630004BF90021422001F047F91021432001F03D
:1006400043F90E21442001F03FF92421452001F017
:100650003BF90421462001F037F95021472001F0F1
:1006600033F90221482001F02FF91321492001F02C
:100670002BF919214A2001F027F919214B2001F00B
:1006800023F916214C2001F01FF91B21502001F005
:100690001BF93121512001F017F92F21522001F0CF
:1006A00013F93F21532001F00FF93F21542001F0AD
:1006B0000BF93E21552001F007F92F21562001F0BA
:1006C00003F97B21572001F0FFF80921582001F0A0
:1006D000FBF80621592000E089E001F0F5F8062139
:1006E0005A2001F0F1F80C215B2001F0EDF81D21FA
:1006F0005C2001F0E9F8CC215D2001F0E5F81B2138
:10070000084601F0E1F801211A2001F0DDF82F215F
:10071000242001F0D9F85721252001F0D5F88821AF
:10072000232001F0D1F83621182001F0CDF8012165
:10073000192001F0C9F80021012001F0C5F8882135
:100740001F2001F0C1F8C82000F0A4FC82211F2066
:1007500001F0BAF8322000F09DFC92211F2001F038
:10076000B3F8322000F096FCD2211F2001F0ACF843
:10077000322000F08FFC5521172001F0A5F8002150
:10078000084601F0A1F811212F2001F09DF8002169
:10079000312001F099F80021322001F095F838213C
:1007A000282001F091F8C82000F074FC3C2128209A
:1007B00001F08AF8A821162001F086F800210E2009
:1007C00001F082F800210F2001F07EF801211020B5
:1007D00001F07AF84021112001F076F80021122072
:1007E00001F072F80021132001F06EF8A9E1002059
:1007F000544908704FF48071012001F065F84FF4FE
:10080000E061022001F060F80021042001F05CF8B2
:1008100040F20721082001F057F80021092001F0DB
:1008200053F800210A2001F04FF800210C2001F0BC
:100830004BF800210D2001F047F800210F2001F0B6
:1008400043F80021102001F03FF80021112001F0B1
:100850003BF80021122001F037F80021132001F0AD
:1008600033F8C82000F016FC41F2B021102001F04E
:100870002BF80721112001F027F8322000F00AFCA4
:1008800040F2BD11122001F01FF8322000F002FCEE
:100890004FF4A051132001F017F80E21292001F088
:1008A00013F8322000F0F6FB0021202001F00CF8B4
:1008B0000021212001F008F8A5F5A840083838B13A
:1008C000A0F57C50183800287DD005287CD167E041
:1008D00040F60D31302000F0F7FF41F623113120B2
:1008E00000F0F2FF41F62641322000F0EDFF42F227
:1008F0001C61332000F0E8FF42F21941342000F07F
:10090000E3FF40F60B51352000F0DEFF41F2060117
:10091000362000F0D9FF4FF4C26115E0001002400C
:100920000014014000F0FF00BB0B00BB00180140A9
:10093000001C014000200140FFF0F0FF000B0B0005
:100940001408014038000020372000F0BDFF40F2BD
:100950000671382000F0B8FF4FF44171392000F0E3
:10096000B3FF40F605613A2000F0AEFF40F60161AA
:100970003B2000F0A9FF4FF487713C2000F0A4FF5A
:1009800040F20E513D2000F09FFF40F203413E2017
:1009900000F09AFF40F207613F2000F095FF61E010
:1009A0000021302000F090FF40F20761312000F07C
:1009B0008BFF40F20531322000F086FF0021352008
:1009C00000F082FF01E01DE01BE041F204613620EF
:1009D00000F07AFF4FF40171372000F075FF01211C
:1009E000382000F071FF40F20771392000F06CFFF1
:1009F00000213C2000F068FF0F213D2000F064FF43
:100A000030E000BF0621302000F05EFF40F201110F
:100A1000312000F059FF0321322000F055FF4FF440
:100A20008371352000F050FF40F60231362000F08F
:100A30004BFF40F20231372000F046FF40F20771D1
:100A4000382000F041FF0721392000F03DFF4FF42E
:100A5000C0613C2000F038FF40F20B213D2000F047
:100A600033FF00BF00BF0021502000F02DFFEF2119
:100A7000512000F029FF0021522000F025FF40F214
:100A80003F11532000F020FFA5F5A840083830B1F1
:100A9000A0F57C50183850B1052807D100E000BF00
:100AA0004FF41C51602000F00FFF06E000BF4FF430
:100AB0002741602000F008FF00BF00BF0121612036
:100AC00000F002FF00216A2000F0FEFE00218020DD
:100AD00000F0FAFE0021812000F0F6FE00218220C5
:100AE00000F0F2FE0021832000F0EEFE00218420C1
:100AF00000F0EAFE0021852000F0E6FE10219020A3
:100B000000F0E2FE0021922000F0DEFE032193209F
:100B100000F0DAFE4FF48871952000F0D5FE002138
:100B2000972000F0D1FE0021982000F0CDFE41F288
:100B30003801032000F0C8FE40F23711072000F012
:100B4000C3FE4FF4807002490860002070BD0000B1
:100B5000100801400146024A118000207047000041
:100B6000320000200146024801600020704700006A
:100B7000340000200146024A118000207047000026
:100B8000300000202DE9F04704460D4616461F466A
:100B90002648007860B3A019A0F10108E819A0F177
:100BA0000109C4F30F21022000F08EFEE1B2032000
:100BB00000F08AFEC8F30F21042000F085FE08F043
:100BC000FF01052000F080FEC5F30F21062000F094
:100BD0007BFEE9B2072000F077FEC9F30F21082061
:100BE00000F072FE09F0FF01092000F06DFE1BE02D
:100BF000A9B2502000F068FEE819401E81B25120D1
:100C000000F062FEA1B2522000F05EFEA019401E6C
:100C100081B2532000F058FEA9B2202000F054FE0B
:100C2000A1B2212000F050FEBDE8F087380000207E
:100C300010B500F001F810BD0CB500200190009037
:100C40003348006840F480303149086000BF3048C4
:100C5000006800F4003000900198401C019000985A
:100C600018B90198B0F5A06FF1D12948006800F4D7
:100C7000003010B10120009001E0002000900098A9
:100C8000012843D12348006840F010002149086042
:100C90000846006820F0030008600846006840F03D
:100CA000020008601A4840681949486008464068D0
:100CB00048600846406840F48060486008464068E4
:100CC00020F47C1048600846406840F4E810486012
:100CD0000846006840F08070086000BF0C4800685B
:100CE00000F000700028F9D00948406820F00300A7
:100CF000074948600846406840F00200486000BF6D
:100D00000348406800F00C000828F9D10CBD000031
:100D1000001002400020024010B51348006840F067
:100D200001001149086008464068104908400E4912
:100D30004860084600680E4908400B4908600846AC
:100D4000006820F4802008600846406820F4FE0017
:100D500048604FF41F008860FFF76AFF4FF00060A3
:100D60000449086010BD0000001002400000FFF8B8
:100D7000FFFFF6FE08ED00E010B50748008800F020
:100D8000010038B100F0D0FC0348008820F00100D9
:100D90000149088010BD0000102C01404FF0804038
:100DA000008A00F0010038B14FF08040008A20F046
:100DB00001004FF08041088270470000054800881C
:100DC00000F0010028B10348008820F0010001492B
:100DD00008807047103401400FB4084B10B504A9C7
:100DE00002AA039800F028F8044602A9002000F0A7
:100DF000CDF8204610BC5DF814FB00008D0F0008F4
:100E0000002809DB00F01F020121914042099200F5
:100E100002F1E022C2F80011704702E008C8121F78
:100E200008C1002AFAD170477047002001E001C1D3
:100E3000121F002AFBD170472DE9FF4F89B09B4656
:100E40000446002506E025280BD05A460B9990470A
:100E5000641C6D1C20780028F5D10DB02846BDE833
:100E6000F08F0027B8460122474900E0074314F8F5
:100E7000013F203B02FA03F00842F7D120782E28E8
:100E800019D114F8010F47F004072A280ED06FF08B
:100E90002F022078A0F1300109290CD808EB880135
:100EA00002EB410100EB0108641CF2E70A98641CA4
:100EB00050F8048B0A9020780028CED0642808D0FF
:100EC000692806D075281ED05A460B9990476D1C8C
:100ED00058E00A994FF00A0901C90A91002802DA7C
:100EE00040422D2102E0390504D52B218DF8201038
:100EF000012103E0F90704D02021F7E78A4608AE74
:100F00000DE00021FAE70A994FF00A0901C90A9198
:100F1000F7E74946FFF73AF9303106F8011D002896
:100F2000F7D1ADEB060000F12009780701D44FF0AE
:100F30000108C84502DDA8EB090000E0002080465A
:100F4000002706E008A85A46C05D0B9990476D1C23
:100F50007F1C5745F6DB04E030205A460B9990473A
:100F60006D1CB8F10001A8F10108F5DC05E016F8E8
:100F7000010B5A460B9990476D1CB9F10001A9F17C
:100F80000109F4DC641C65E7092801000A68531CA8
:100F90000B60107070470000024A016811604168E0
:100FA000516070472800002010B50020FFF7D2FDE7
:100FB000FFF796F910BD000000B51048806940F4B5
:100FC00000600E49886103200D4908804FF62050CB
:100FD000091D08800A481C38008840F001000849B3
:100FE0001C39088000F082FB0648006840F0007061
:100FF0004FF0E021C1F8000100BD000000100240E8
:10100000282C014000E100E000B50C48C06940F028
:1010100001000A49C86103208904088547F69060E9
:1010200088858006808940F00100888100F068FB97
:101030004FF080500249086000BD000000100240DF
:1010400000E100E000B51048806940F400500E490E
:101050008861002000F0C4FA48F6A0400B490880DF
:101060000A482038008840F00100084920390880EB
:1010700000F050FB0648006840F480504FF0E0213B
:10108000C1F8040100BD0000001002402C340140F2
:1010900004E100E00949096842F21072B1FBF2F183
:1010A000484305E000BF00BF00BF00BF00BF00BF56
:1010B000011EA0F10100F5D1704700003C000020A6
:1010C00000B585B0FFF770FF00F04AF84FF47840A4
:1010D000FFF750FD0DA264210846FFF7EDF94FF62A
:1010E000FF70FFF747FD0C480CA102686846FFF748
:1010F00073FE6A468C211420FFF7DEF900BF00F072
:10110000CFFB0028FBD005B000BD00005065726425
:10111000752021212100000010000020566F7472FC
:10112000652073636F7265203A202564000000001B
:1011300010B500F015F84FF47840FFF71BFD05A23D
:1011400064210846FFF7B8F900BF00F0A9FB0028AA
:10115000FBD010BD4741474E452021212100000012
:1011600008B50020FFF7F6FC4FF6FF70FFF702FD11
:101170001448FFF7F7FC14A218210320FFF79CF98D
:101180001548FFF7EFFC15A2E8210320FFF794F9BB
:10119000204808231A463C2100906420FFF7BEF83F
:1011A0001D4808231A463C2100909120FFF7B6F80D
:1011B0001A4804231A463E210090BE20FFF7AEF8DD
:1011C00008BD0000B4360008202020202020504117
:1011D000432D4D414E000000A436000841726E615F
:1011E0007564204D617A7572696572202020202017
:1011F000202020204955542041322020202020202A
:1012000020202020204875676F2052757373656910
:101210006C000000DC1B00085C190008DC1D0008E5
:1012200010B50446FFF79CFF1548FFF79BFC94B9E7
:101230004FF47840FFF79EFC12A264210846FFF7A6
:101240003BF94FF6FF70FFF795FC10A28C2164204C
:10125000FFF732F913E0012C11D14FF6FF70FFF7C1
:1012600089FC0CA264210846FFF726F94FF4784068
:10127000FFF780FC09A28C216420FFF71DF910BD47
:10128000B43600083E20506C617900002020517572
:10129000697400002020506C617900003E20517577
:1012A00069740000F8B54FF49D74E2264FF6FF70A4
:1012B000FFF760FC0020FFF74DFC2A48FFF752FCC7
:1012C00029A231462046FFF7F7F80A3C002509E03D
:1012D000264804231A46711C00902046FFF71EF88A
:1012E000A41F6D1C224800688542F1DBA41F21A2C7
:1012F00031462046FFF7E0F80E3C1F4808231A4607
:10130000314600902046FFF709F8103C16A23146FE
:101310002046FFF7D1F80A3C002509E013480423D2
:101320001A46711C00902046FEF7F8FFA41F6D1CA2
:10133000124800688542F1DBA41F0EA23146204608
:10134000FFF7BAF80E3C0E4808231A4631460090C3
:101350002046FEF7E3FF0020FFF70CFC0020FFF71C
:10136000F9FBF8BDA43600085D000000DC1D000894
:10137000200000205B0000005C1900082400002011
:10138000DC1B00080148008870470000240400406E
:1013900010B5FFF7C5F8FFF707FE10BD21498969B1
:1013A00041F001011F4A91611146896941F0020132
:1013B00091611146896941F0200191611146896965
:1013C00041F4807191611849496821F0706040F0E2
:1013D0008061154A51601146496821F4700040F45B
:1013E000800151601146496821F0704040F0804111
:1013F00051600E49096821F4704040F480410B4A65
:1014000011600949496821F00F0040F00401064AC3
:1014100051601146096821F0704040F08041116030
:1014200070470000001002400020014000140140FD
:1014300010B500F009F810BD00B5FFF7BDFDFFF7CE
:10144000E3FDFFF7FFFD00BD0A48C06940F0020060
:101450000849C8610020084908804FF6FF70091D3F
:10146000088005482838008840F0010002492839E2
:1014700008807047001002402804004002480068BD
:10148000012121EAD0007047081401400248806819
:10149000012121EA90307047002001400248806815
:1014A000012121EA50307047002001400248806845
:1014B000012121EAD01070470020014002488068D5
:1014C000012121EAD030704700200140FFF760FF82
:1014D000FFF764FFFFF7B0FFFFF7AAFF35E000203A
:1014E000FFF79EFE00BF00F03FF80028FBD000F0A1
:1014F00070F8002015490860154908600120154959
:1015000008600020144908600DE000F083F800F046
:10151000CBF800BF0E48006818B9104800680028D2
:10152000F8D000F0D9F80A48006818B907480068F0
:101530000028EAD00648006810B1FFF7C1FD04E0BA
:101540000248006808B1FFF7F3FDC8E70400002077
:10155000000000200C0000201000002008000020E7
:101560004FF0D8404088704710B5FFF7A7FF50B143
:1015700010480078012806D100200E49087008465E
:101580000078FFF74DFEFFF779FF48B10948007872
:1015900030B901200749087008460078FFF740FE7F
:1015A000FFF784FF20B10348007808B9012010BD7F
:1015B0000020FCE714000020024610680B689842E7
:1015C00005D150684B68984201D101207047002036
:1015D000FCE710B5FFF7D6FE0446FEF7CFFD10BDC1
:1015E00018B91F210A4A118010E0012803D11921DE
:1015F000074A11800AE0022803D11321044A11800E
:1016000004E0032802D10D21014A11807047000037
:101610002834014008B5FEF763FE0020FFF79AFA70
:101620000020FFF7A7FA00F043F8064808231A46FF
:1016300000900548016805480068FEF76FFE00F05D
:1016400007F808BD5C1900081C00002018000020E5
:1016500010B5134800684EF20801084310490860AD
:101660000F480C3800684EF2080108430C490C3949
:1016700008600C48406900F00F0446F260602043A7
:101680000849486108468068C0F30B0444F44050A0
:1016900088602820FFF7B4FB0920FFF7B1FB10BDDD
:1016A0000C0401400000014010B5FFF7FBFD10BD28
:1016B0000348008840F0010001490880704700009D
:1016C000002C01400348006820F480700149086044
:1016D000704700000004014010B500F007F800F06A
:1016E0000FF800F017F8FFF7EDFF10BD0348008872
:1016F00020F001000149088070470000002C0140E3
:101700004FF08040008820F001004FF080410880B9
:10171000704700000348008820F00100014908805C
:10172000704700000034014008B552480068524933
:1017300009680844504908604E4840684F490968A4
:1017400008444E4908604C480068082802DC09201B
:101750004949086048480068B0F59C7F03DB40F2C7
:1017600037104549086045480068082802DC092010
:101770004249086041480068E02802DBDF203F4919
:1017800008603F493B48FFF717FFB8B13B48006886
:10179000082813DB0123082238480168083136483D
:1017A0000068FEF76BFE374808231A46009033485E
:1017B000016831480068FEF7B1FD58E032492D4814
:1017C000FFF7FAFEB8B12D480068E02813DC2B487B
:1017D0000068411E0123082227480068FEF74EFEDC
:1017E0002A4808231A4600902448016822480068C5
:1017F000FEF794FD3BE026491E48FFF7DDFEB8B139
:101800001D480068082813DB082301221B480168D3
:10181000194800680830FEF731FE1E4808231A46B2
:1018200000901648016814480068FEF777FD1EE036
:1018300019491048FFF7C0FEC0B10F480068B0F565
:101840009C7F13DC0C490968481E082301220B49C0
:101850000968FEF713FE114808231A46009007484E
:10186000016805480068FEF759FD00E008BD00BFAB
:10187000FCE7000028000020180000201C000020C9
:10188000FC1D0008DC1A0008041E00085C1A000891
:101890000C1E0008DC190008141E00085C19000862
:1018A00002488068012121EA102070470020014091
:1018B0004FF0D841088070474FF0D84148807047BA
:1018C0004FF0D8414880704770B505460C46284611
:1018D000FFF7EEFF2046FFF7EFFF70BD00000000AE
:1018E000E0FFE0FFE0FFE0FF000000000000E0FF9D
:1018F000E0FFE0FFE0FFE0FFE0FF0000E0FFE0FFCF
:10190000E0FFE0FFE0FFE0FFE0FFE0FFE0FFE0FFDF
:10191000E0FFE0FFE0FFE0FFE0FFE0FFE0FFE0FFCF
:10192000E0FFE0FFE0FFE0FFE0FFE0FFE0FFE0FFBF
:10193000E0FFE0FFE0FFE0FFE0FFE0FF0000E0FF8E
:10194000E0FFE0FFE0FFE0FFE0FF0000000000003C
:10195000E0FFE0FFE0FFE0FF00000000000000000B
:10196000E0FFE0FFE0FFE0FF000000000000E0FF1C
:10197000E0FFE0FFE0FFE0FFE0FF0000E0FFE0FF4E
:10198000E0FFE0FFE0FFE0FF00000000E0FFE0FF1D
:10199000E0FFE0FFE0FF000000000000E0FFE0FFEC
:1019A000E0FFE0FFE0FF000000000000E0FFE0FFDC
:1019B000E0FFE0FFE0FFE0FF000000000000E0FFCC
:1019C000E0FFE0FFE0FFE0FFE0FF000000000000BC
:1019D000E0FFE0FFE0FFE0FF00000000000000008B
:1019E000E0FFE0FFE0FFE0FF000000000000E0FF9C
:1019F000E0FFE0FFE0FFE0FFE0FF0000000000008C
:101A0000E0FFE0FFE0FFE0FFE0FFE0FF000000009C
:101A10000000E0FFE0FFE0FFE0FFE0FF000000006B
:101A20000000E0FFE0FFE0FFE0FFE0FF000000005B
:101A3000E0FFE0FFE0FFE0FFE0FFE0FF0000E0FF8D
:101A4000E0FFE0FFE0FFE0FFE0FF0000000000003B
:101A5000E0FFE0FFE0FFE0FF00000000000000000A
:101A60000000000000000000000000000000E0FF97
:101A70000000000000000000E0FF0000E0FFE0FFC9
:101A8000E0FF00000000E0FFE0FFE0FFE0FFE0FF1C
:101A9000E0FFE0FFE0FFE0FFE0FFE0FFE0FFE0FF4E
:101AA000E0FFE0FFE0FFE0FFE0FFE0FFE0FFE0FF3E
:101AB000E0FFE0FFE0FFE0FFE0FFE0FF0000E0FF0D
:101AC000E0FFE0FFE0FFE0FFE0FF000000000000BB
:101AD000E0FFE0FFE0FFE0FF00000000000000008A
:101AE000E0FFE0FFE0FFE0FF000000000000E0FF9B
:101AF000E0FFE0FFE0FFE0FFE0FF0000E0FFE0FFCD
:101B0000E0FFE0FFE0FFE0FFE0FFE0FFE0FFE0FFDD
:101B1000E0FFE0FFE0FFE0FFE0FFE0FFE0FFE0FFCD
:101B2000E0FFE0FFE0FFE0FFE0FFE0FFE0FFE0FFBD
:101B3000E0FF00000000E0FFE0FFE0FF0000E0FF4A
:101B40000000000000000000E0FF000000000000B6
:101B50000000000000000000000000000000000085
:101B600000F800F800F800F800000000000000F89D
:101B700000F800F800F800F800F8000000F800F89D
:101B800000F800F800F800F800F800F800F800F895
:101B900000F800F800F800F800F800F800F800F885
:101BA00000F800F800F800F800F800F800F800F875
:101BB00000F800F800F800F800F800F8000000F85D
:101BC00000F800F800F800F800F80000000000003D
:101BD00000F800F800F800F8000000000000000025
:101BE00000F800F800F800F800000000000000F81D
:101BF00000F800F800F800F800F8000000F800F81D
:101C000000F800F800F800F80000000000F800F804
:101C100000F800F800F800000000000000F800F8EC
:101C200000F800F800F800000000000000F800F8DC
:101C300000F800F800F800F800000000000000F8CC
:101C400000F800F800F800F800F8000000000000BC
:101C500000F800F800F800F80000000000000000A4
:101C600000F800F800F800F800000000000000F89C
:101C700000F800F800F800F800F80000000000008C
:101C800000F800F800F800F800F800F80000000084
:101C9000000000F800F800F800F800F8000000006C
:101CA000000000F800F800F800F800F8000000005C
:101CB00000F800F800F800F800F800F8000000F85C
:101CC00000F800F800F800F800F80000000000003C
:101CD00000F800F800F800F8000000000000000024
:101CE000000000000000000000000000000000F8FC
:101CF000000000000000000000F8000000F800F8FC
:101D000000F80000000000F800F800F800F800F803
:101D100000F800F800F800F800F800F800F800F803
:101D200000F800F800F800F800F800F800F800F8F3
:101D300000F800F800F800F800F800F8000000F8DB
:101D400000F800F800F800F800F8000000000000BB
:101D500000F800F800F800F80000000000000000A3
:101D600000F800F800F800F800000000000000F89B
:101D700000F800F800F800F800F8000000F800F89B
:101D800000F800F800F800F800F800F800F800F893
:101D900000F800F800F800F800F800F800F800F883
:101DA00000F800F800F800F800F800F800F800F873
:101DB00000F80000000000F800F800F8000000F84B
:101DC000000000000000000000F80000000000001B
:101DD0000000000000000000000000000000FFFF05
:101DE000FFFF0000FFFFFFFFFFFFFFFFFFFFFFFF01
:101DF000FFFFFFFF0000FFFFFFFF000000000000EB
:101E0000FFFFFFFF0000000001000000FFFFFFFFD9
:101E100000000000010000000000000000000000C1
:101E200000000000000000000000000004040404A2
:101E3000040004000A0A0A00000000000A0A1F0A3F
:101E40001F0A0A00041E050E140F040003130804E1
:101E50000219180002050502150916000C0C0402EF
:101E6000000000000804020202040800020408083E
:101E7000080402000004150E0E1504000004041FDF
:101E800004040000000000000C0C04020000001F0D
:101E90000000000000000000000C0C00001008040E
:101EA000020100000E11131519110E00040604049E
:101EB00004040E000E11100E01011F001F10080C6B
:101EC00010110E00080C0A091F0808001F010F104E
:101ED00010110E001C02010F11110E001F1010082E
:101EE000040201000E11110E11110E000E11111E2F
:101EF00010080700000004000400000000000400B7
:101F000004040200100804020408100000001F006E
:101F10001F00000002040810080402000E11100C3B
:101F2000040004000E11151D0D011E00040A1111FC
:101F30001F1111000F11110F11110F000E110101CE
:101F400001110E000F11111111110F001F01010FCE
:101F500001011F001F01010F010101001E110101FC
:101F600019111E001111111F111111000E0404048A
:101F700004040E001C0808080809060011090503DE
:101F8000050911000101010101011F00111B1515B7
:101F90001511110011111315191111000E11111144
:101FA00011110E000F11110F010101000E1111117D
:101FB000150916000F11110F050911000E11010E60
:101FC00010110E001F150404040404001111111156
:101FD00011110E0011111111110A04001111111526
:101FE00015150A0011110A040A11110011110A0431
:101FF000040404001F10080E02011F001E0202024A
:1020000002021E0000010204081000001E10101041
:1020100010101E00040A1100000000000000000063
:1020200000001F000606040800000000000006086B
:102030000E091E0001010D1311130D0000000E11F9
:1020400001110E00101016191119160000000E11C2
:102050001F010E000814040E0404040000000E19F1
:102060001916100E01010D131111110004000604C0
:1020700004040E000800080808090600010109050B
:10208000030509000604040404040E0000000B15F7
:102090001515150000000D131111110000000E118F
:1020A00011110E0000000D13130D0101000016198F
:1020B0001916101000000D130101010000001E018F
:1020C0000E100F0004041F04041408000000111176
:1020D0001119160000001111110A0400000011115D
:1020E00015150A000000110A040A11000000111160
:1020F0001E10110E00001F0804021F000804040235
:102100000404080004040400040404000204040895
:102110000404020002150800000000000000000096
:102120000000000000000C12120C000000000C1E49
:102130001E0C000000001E12121E000000001E1ED9
:102140001E1E000000000C0C121E000000000C0CF3
:102150001E1E000000001E120C0C000000001E1EBF
:102160000C0C000000001816161800000000181EC5
:102170001E1800000000061A1A0600000000061EC5
:102180001E06000000000C12120C000000000C1EC5
:102190001E0C000000001E12121E000000001E1E79
:1021A0001E1E0000000000000000000000000000F3
:1021B000000000000000000000000000000000001F
:1021C000000000000000000000000000000000000F
:1021D000000000000000800180018001800180017A
:1021E00080018001800180018001800180018001E7
:1021F00000000000800180010000000000000000DD
:102200000000000000000000CC00CC00CC00CC009E
:10221000CC00CC0000000000000000000000000026
:1022200000000000000000000000000000000000AE
:10223000000000000000000000000000000000009E
:10224000600C600C600C30063006FE1FFE1F30066E
:1022500038071803FE1FFE1F180318038C018C019A
:102260008C01000000008000E003F80F9C0E8C1C25
:102270008C188C009800F801E007800E801C8C18E8
:102280008C189C18B80CF00FE00380008000000050
:10229000000000000000000000000E181B0C110CD4
:1022A00011061106110311039B018E01C038C06C89
:1022B00060446044304430441844186C0C380000CA
:1022C000000000000000E001F003380718061806BF
:1022D0003003F001F000F8009C310E33061E061C9E
:1022E000061C063FFC73F021000000000000000007
:1022F00000000000000000000C000C000C000C00AE
:102300000C000C00000000000000000000000000B5
:1023100000000000000000000000000000000000BD
:10232000000000000000000200038001C000C000A7
:1023300060006000300030003000300030003000BD
:102340003000300060006000C000C0008001000369
:1023500000020000000020006000C0008001800139
:102360000003000300060006000600060006000643
:10237000000600060003000380018001C000600029
:10238000200000000000000000000000000000002D
:10239000C000C000D806F807E0013003380700008D
:1023A000000000000000000000000000000000002D
:1023B000000000000000000000000000000000001D
:1023C00080018001800180018001FC3FFC3F800191
:1023D00080018001800180010000000000000000F9
:1023E00000000000000000000000000000000000ED
:1023F00000000000000000000000000000000000DD
:102400000000000000008001800100010001800048
:1024100000000000000000000000000000000000BC
:10242000000000000000000000000000E007E007DE
:10243000000000000000000000000000000000009C
:10244000000000000000000000000000000000008C
:10245000000000000000000000000000000000007C
:10246000000000000000C000C000000000000000EC
:10247000000000000000000C000C00060006000632
:102480000003000300038003800180018001C0007D
:10249000C000C000600060000000000000000000FC
:1024A000000000000000E003F007380E180C0C18C4
:1024B0000C180C180C180C180C180C180C180C18FC
:1024C000180C380EF007E0030000000000000000C8
:1024D00000000000000000018001C001F00198012F
:1024E00088018001800180018001800180018001DC
:1024F00080018001800180010000000000000000D8
:10250000000000000000E003F80F180C0C180C1875
:1025100000180018000C000600038001C0006000D5
:1025200030001800FC1FFC1F00000000000000002D
:10253000000000000000E001F807180E0C0C0C0C65
:10254000000C0006C003C007000C001800180C188F
:102550000C18180CF807E003000000000000000051
:10256000000000000000000C000E000F000F800DA6
:10257000C00C600C600C300C180C0C0CFC3FFC3FC9
:10258000000C000C000C000C00000000000000001B
:10259000000000000000F80FF80F180018000C00F1
:1025A000EC03FC071C0E001C0018001800180C1887
:1025B0001C0C180EF807E0030000000000000000EB
:1025C000000000000000C007F00F381C18181800A9
:1025D0000C00CC03EC0F3C0E1C1C0C180C180C1837
:1025E000181C380EF007E003000000000000000097
:1025F000000000000000FC1FFC1F000C000600068D
:10260000000380038001C001C000E00060006000A2
:1026100070003000300030000000000000000000BA
:10262000000000000000E003F007380E180C180C42
:10263000180C3806F007F007180C0C180C180C18BA
:102640000C18380CF80FE003000000000000000038
:10265000000000000000E003F007380E1C0C0C180E
:102660000C180C181C1C381EF81BE0190018000C64
:10267000000C1C0EF807F001000000000000000034
:10268000000000000000000000000000000000004A
:102690008001800100000000000000000000000038
:1026A0000000000080018001000000000000000028
:1026B000000000000000000000000000000000001A
:1026C0008001800100000000000000000000000008
:1026D0000000000080018001000100018000000076
:1026E00000000000000000000000000000000000EA
:1026F000000000000010001C800FE003F80018002C
:10270000F800E003800F001C001000000000000033
:1027100000000000000000000000000000000000B9
:1027200000000000F81F000000000000F81F00007B
:102730000000000000000000000000000000000099
:102740000000000000000000000000000000000089
:102750000000000008003800F001C007001F00184A
:10276000001FC007F0013800080000000000000052
:10277000000000000000E003F80F180C0C180C1803
:102780000018000C000600038001C000C000C0005B
:1027900000000000C000C0000000000000000000B9
:1027A0000000000000000000E00718180420C22903
:1027B000224A114409440944094409221113E20C34
:1027C000024004201818E00700000000000000008C
:1027D00000000000000080038003C006C006C006A1
:1027E000600C600C301830183018F83FF83F1C703F
:1027F0000C600C6006C006C0000000000000000075
:10280000000000000000FC03FC0F0C0C0C180C185E
:102810000C180C0CFC07FC0F0C180C300C300C3096
:102820000C300C18FC1FFC0700000000000000002A
:10283000000000000000C007F01F38381C300C708A
:102840000660060006000600060006000600066098
:102850000C701C30F01FE0070000000000000000BA
:10286000000000000000FE03FE0F060E061806180A
:1028700006300630063006300630063006300618C0
:102880000618060EFE0FFE03000000000000000008
:10289000000000000000FC3FFC3F0C000C000C009E
:1028A0000C000C00FC1FFC1F0C000C000C000C00AA
:1028B0000C000C00FC3FFC3F00000000000000008A
:1028C000000000000000F83FF83F18001800180052
:1028D00018001800F81FF81F18001800180018003A
:1028E0001800180018001800000000000000000088
:1028F000000000000000E00FF83F3C780E6006E0AA
:1029000007C00300030003FE03FE03C007C006C0A8
:102910000EC03CF0F83FE00F000000000000000097
:102920000000000000000C300C300C300C300C307B
:102930000C300C30FC3FFC3F0C300C300C300C30B9
:102940000C300C300C300C30000000000000000097
:1029500000000000000080018001800180018001F2
:10296000800180018001800180018001800180015F
:102970008001800180018001000000000000000053
:102980000000000000000006000600060006000629
:1029900000060006000600060006000600061806EF
:1029A00018063807F003E0010000000000000000F6
:1029B00000000000000006300618060C060606039C
:1029C0008601C60066007600DE008E01060306065C
:1029D000060C06180630066000000000000000002B
:1029E000000000000000180018001800180018006F
:1029F0001800180018001800180018001800180017
:102A000018001800F81FF81F000000000000000068
:102A10000000000000000EE01EF01EF01EF036D890
:102A200036D836D836D866CC66CC66CCC6C6C6C6CE
:102A3000C6C6C6C686C386C30000000000000000EC
:102A40000000000000000C301C303C303C306C308A
:102A50006C30CC30CC308C310C330C330C360C3623
:102A60000C3C0C3C0C380C30000000000000000056
:102A7000000000000000E007F81F1C380E70066020
:102A800003C003C003C003C003C003C003C006608B
:102A90000E701C38F81FE007000000000000000066
:102AA000000000000000FC0FFC1F0C380C300C3044
:102AB0000C300C300C18FC1FFC070C000C000C0038
:102AC0000C000C000C000C000000000000000000D6
:102AD000000000000000E007F81F1C380E700660C0
:102AE00003E003C003C003C003C003C007E00663E4
:102AF0000E3F1C3CF83FE0F700C000000000000063
:102B0000000000000000FE0FFE1F063806300630F1
:102B100006300638FE1FFE0706030606060C0618DA
:102B200006180630063006600000000000000000B5
:102B3000000000000000E003F80F1C0C0C180C183B
:102B40000C001C00F803E00F001E003806300630B1
:102B50000E301C1CF80FE007000000000000000011
:102B6000000000000000FE7FFE7F800180018001E8
:102B7000800180018001800180018001800180014D
:102B80008001800180018001000000000000000041
:102B90000000000000000C300C300C300C300C3009
:102BA0000C300C300C300C300C300C300C300C3045
:102BB0000C301818F81FE0070000000000000000AB
:102BC00000000000000003600630063006300C18DC
:102BD0000C180C18180C180C380E3006300670073C
:102BE00060036003C001C00100000000000000009D
:102BF0000000000000000360C361C361C36166336D
:102C0000663366336633663366336C1B6C1B6C1B32
:102C10002C1A3C1E380E380E000000000000000088
:102C20000000000000000FE00C7018303018700C2D
:102C3000600EC00780038003C003E006700C301CE8
:102C400018180C300E6007E00000000000000000C3
:102C500000000000000003C006600C301C3838186B
:102C6000300C6006E007C003800180018001800114
:102C70008001800180018001000000000000000050
:102C8000000000000000FC7FFC7F006000300018A6
:102C9000000C000600038001C00060003000180036
:102CA0000C000600FE7FFE7F000000000000000018
:102CB000000000000000E003E0036000600060002E
:102CC0006000600060006000600060006000600004
:102CD0006000600060006000600060006000E00371
:102CE000E003000000003000300060006000600081
:102CF000C000C000C000C00180018001800100034D
:102D000000030003000600060000000000000000B1
:102D1000000000000000E003E003000300030003E4
:102D2000000300030003000300030003000300038B
:102D30000003000300030003000300030003E0039B
:102D4000E003000000000000C001C0016003600358
:102D5000600330063006180C180C0000000000005C
:102D60000000000000000000000000000000000063
:102D70000000000000000000000000000000000053
:102D80000000000000000000000000000000000043
:102D9000000000000000FFFFFFFF00000000000037
:102DA0000000000000000C000C000C000C000C00E7
:102DB0000C00000000000000000000000000000007
:102DC0000000000000000000000000000000000003
:102DD00000000000000000000000000000000000F3
:102DE000F003F8071C0C0C0C000FF00FF80C0C0C87
:102DF0000C0C1C0FF80FF018000000000000000081
:102E0000000000000000180018001800180018004A
:102E1000D803F80F380C181818181818181818189C
:102E20001818380CF80FD80300000000000000004C
:102E30000000000000000000000000000000000092
:102E4000C003F007300E180C180018001800180006
:102E5000180C300EF007C003000000000000000056
:102E600000000000000000180018001800180018EA
:102E7000C01BF01F301C181818181818181818182C
:102E80001818301CF01FC01B0000000000000000DC
:102E90000000000000000000000000000000000032
:102EA000C003F00F300C1818F81FF81F1800180096
:102EB0003818301CF00FC0070000000000000000B0
:102EC000000000000000800FC00FC000C000C00064
:102ED000F007F007C000C000C000C000C000C00084
:102EE000C000C000C000C0000000000000000000E2
:102EF00000000000000000000000000000000000D2
:102F0000E00DF80F180E0C0C0C0C0C0C0C0C0C0C2F
:102F10000C0C180EF80FE00D000C0C0C1C06F8073A
:102F2000F001000000001800180018001800180038
:102F3000D807F80F381C1818181818181818181867
:102F400018181818181818180000000000000000C1
:102F5000000000000000C000C000000000000000F1
:102F6000C000C000C000C000C000C000C000C00061
:102F7000C000C000C000C000000000000000000051
:102F8000000000000000C000C000000000000000C1
:102F9000C000C000C000C000C000C000C000C00031
:102FA000C000C000C000C000C000C000C000F800E9
:102FB0007800000000000C000C000C000C000C005D
:102FC0000C0C0C060C038C01CC006C00FC009C016A
:102FD0008C030C030C060C0C000000000000000029
:102FE000000000000000C000C000C000C000C00021
:102FF000C000C000C000C000C000C000C000C000D1
:10300000C000C000C000C0000000000000000000C0
:1030100000000000000000000000000000000000B0
:103020007C3CFF7EC7E383C183C183C183C183C16D
:1030300083C183C183C183C1000000000000000080
:103040000000000000000000000000000000000080
:103050009807F80F381C1818181818181818181886
:1030600018181818181818180000000000000000A0
:103070000000000000000000000000000000000050
:10308000C003F00F300C1818181818181818181852
:103090001818300CF00FC003000000000000000002
:1030A0000000000000000000000000000000000020
:1030B000D803F80F380C18181818181818181818FA
:1030C0001818380CF80FD80318001800180018004A
:1030D00018000000000000000000000000000000D8
:1030E000C01BF01F301C18181818181818181818BA
:1030F0001818301CF01FC01B00180018001800180A
:1031000000180000000000000000000000000000A7
:10311000B007F003700030003000300030003000A5
:1031200030003000300030000000000000000000DF
:10313000000000000000000000000000000000008F
:10314000E003F003380E180C3800F003C007000C41
:10315000180C380EF007E00300000000000000002B
:1031600000000000000000008000C000C000C0009F
:10317000F007F007C000C000C000C000C000C000E1
:10318000C000C000C0078007000000000000000071
:10319000000000000000000000000000000000002F
:1031A000181818181818181818181818181818189F
:1031B0001818381CF01FE019000000000000000083
:1031C00000000000000000000000000000000000FF
:1031D0000C18180C180C180C30063006300660035A
:1031E00060036003C001C001000000000000000097
:1031F00000000000000000000000000000000000CF
:10320000C141C141C361636363636363363636366C
:1032100036361C1C1C1C1C1C00000000000000009A
:10322000000000000000000000000000000000009E
:103230001C38381C300C6006C003C003C003C00338
:103240006006300C381C1C38000000000000000034
:10325000000000000000000000000000000000006E
:103260001830301830187018600C600CE00CC00674
:10327000C00680038003800380018001C001F0004C
:1032800070000000000000000000000000000000CE
:10329000FC1FFC1F000C000600038001C000600042
:1032A00030001800FC1FFC1F0000000000000000A0
:1032B00000000000000000038001C000C000C0004A
:1032C000C000C000C000600060003000600040002E
:1032D000C000C000C000C000C000C00080010003EA
:1032E0000000000000008001800180018001800159
:1032F00080018001800180018001800180018001C6
:1033000080018001800180018001800180018001B5
:103310008001000000006000C000C0018001800149
:10332000800180018001000300030006000300010A
:10333000800180018001800180018001C000600067
:10334000000000000000000000000000000000007D
:1033500000000000F010F81F080F0000000000003F
:10336000000000000000000000000000000000005D
:10337000000000000000000000000000000000004D
:10338000000000000000000000000000000000003D
:10339000000000000000000000000000000000002D
:1033A0000000000000000000000000000000C0035A
:1033B000300C081004200420024002400240024069
:1033C0000240042004200810300CC003000000005C
:1033D0000000000000000000000000000000C0032A
:1033E000F00FF81FFC3FFC3FFE7FFE7FFE7FFE7F5D
:1033F000FE7FFC3FFC3FF81FF00FC0030000000001
:1034000000000000000000000000000000000000BC
:103410000000E007F00F18181818181818181818D6
:103420001818F00FE0070000000000000000000086
:10343000000000000000000000000000000000008C
:103440000000E007F00FF81FF81FF81FF81FF81F23
:10345000F81FF00FE007000000000000000000006F
:10346000000000000000000000000000000000005C
:103470000000000000000000000000008001C00308
:103480006006300C18181818F81FF81F000000000C
:10349000000000000000000000000000000000002C
:1034A0000000000000000000000000008001C003D8
:1034B000E007F00FF81FF81FF81FF81F00000000CA
:1034C000000000000000000000000000F81FF81FCE
:1034D00018181818300C6006C003800100000000A6
:1034E00000000000000000000000000000000000DC
:1034F000000000000000000000000000F81FF81F9E
:10350000F81FF81FF00FE007C00380010000000063
:1035100000000000000000000000000000000000AB
:10352000000000000000000000000000000000009B
:103530000000E001F00198018C01860186018C01F8
:103540009801F001E0010000000000000000000010
:10355000000000000000000000000000000000006B
:103560000000E001F001F801FC01FE01FE01FC0198
:10357000F801F001E0010000000000000000000080
:10358000000000000000000000000000000000003B
:1035900000008007800F8019803180618061803158
:1035A0008019800F8007000000000000000000006C
:1035B000000000000000000000000000000000000B
:1035C00000008007800F801F803F807F807F803FCA
:1035D000801F800F80070000000000000000000036
:1035E000000000000000C00120022002400130065F
:1035F0000808080808080808080808080808200239
:1036000020022002200220022002200220022002AA
:10361000200200000000C001E003E003C001F00749
:10362000D80DD80DD80DD80DD80DD80DD80D6003F4
:103630006003600360036003600360036003600372
:10364000600300000000C00120022002400130069B
:10365000080808080808041002200220400120027F
:103660002002100408080808041004100420044074
:10367000000000000000C001E003E003C001F0070B
:10368000D80DD80DD80DCC19C631C261C001600368
:1036900060037006380C180C0C180C180C300C60F9
:1036A000000000000600080020000000700000007C
:1036B000241E000810001800200000007000000008
:1036C000A4210008E4360008000000205400000097
:1036D0001A0E0008383700085400002004040000C7
:1036E0002A0E00080000000000000000000000009A
:1036F000000000000000000000000000A00000002A
:10370000780000000200000003000000000000003C
:10371000000000000000FFFF0000000000000000AB
:1037200000A24A040000000000000000010203049F
:08373000060708090000000073
:0400000508000145A9
:00000001FF
