:020000040800F2
:1000000050040020450100084D0100084F01000880
:1000100051010008530100085501000800000000CC
:100020000000000000000000000000005701000870
:1000300059010008000000005B0100085D01000894
:100040005F0100085F0100085F0100085F01000810
:100050005F0100085F0100085F0100085F01000800
:100060005F0100083D0200085F0100085F01000811
:100070005F0100085F0100085F0100085F010008E0
:100080005F0100085F0100085F0100085F010008D0
:100090005F0100085F0100085F01000861020008BD
:1000A0005F010008150D00085F0100085F010008EE
:1000B000390D00085F0100085F0100085F010008BA
:1000C0005F0100085F0100085F0100085F01000890
:1000D0005F0100085F0100085F0100085F01000880
:1000E000DD0100085F0100085F0100085F010008F2
:1000F000590D00085F0100085F0100085F0100085A
:100100005F0100085F0100085F0100085F0100084F
:100110005F0100085F0100085F0100085F0100083F
:100120005F0100085F0100085F0100085F0100082F
:10013000DFF80CD000F040F800480047BD1300087D
:10014000500400200648804706480047FEE7FEE7C7
:10015000FEE7FEE7FEE7FEE7FEE7FEE7FEE7FEE777
:10016000B50C0008310100080649074A08685043E9
:1001700043F23902104408604008704701490860A2
:10018000704700004C0000206D4EC64130B50B4654
:10019000014600202022012409E021FA02F59D42B7
:1001A00005D303FA02F5491B04FA02F52844151E8B
:1001B000A2F10102F1DC30BD064C074D06E0E0681B
:1001C00040F0010394E8070098471034AC42F6D39E
:1001D000FFF7B2FFB4350008D435000810B501F0C0
:1001E000E5F848B11148006840F400400F49086044
:1001F0000F4800F09FFE18E001F0C0F848B10B482E
:10020000006840F48040094908600A4800F092FE06
:100210000BE001F0BBF840B10448006840F4005026
:1002200002490860044800F085FE10BD1404014036
:10023000EC1C0008FC1C0008041D000810B501F0AF
:1002400095F840B10448006840F008000249086091
:10025000024800F06FFE10BD14040140F41C0008B9
:100260000548006800F4807028B10348006840F435
:1002700080700149086070471404014010B5F023F4
:100280004FF4A0720021084600F04AFC222001F041
:1002900087FA00BF00BF002404E00648008801F090
:1002A00087FA641CB4F5963FF7D300BF00BF002067
:1002B00010BD00002E0000202DE9F05F8046894629
:1002C00014461F46DDF828A0D3463B462246494641
:1002D000404600F025FC222001F062FA00BF00BF7A
:1002E000781E00FB04F50AE0002605E0A9193BF89A
:1002F000110001F05DFA761CA642F7D32D1B002DEC
:10030000F2DA00BF00BF0020BDE8F09F2DE9F04702
:1003100081468A4616462E48006818B94FF0FF30CD
:10032000BDE8F0872A4800684068361A28490968FD
:100330000988C81DC11700EB51714FEAE108244834
:100340000068C16806FB08F0214A1268528800FB69
:1003500002151F48006843881D48006802885146FE
:10036000484600F0DDFB222001F01AFA00BF00BF72
:10037000002723E000241AE0297804F00702114145
:1003800001F0010111B11349098801E012490988FE
:10039000084601F00DFA04F00700072806D10C48C2
:1003A00000680088401EA04200D06D1C641C0848F4
:1003B00000680088A042DFD86D1C7F1C04480068DC
:1003C0004088B842D6D800BF00BF0020A8E7000090
:1003D000300000202C0000202E00002070B50546C3
:1003E0000E461446012322463146284600F098FB6B
:1003F000222001F0D5F900BF00BF03E005480088C6
:1004000001F0D6F9201EA4F10104F7D100BF00BF0E
:1004100070BD00002C0000202DE9F04105460E467D
:1004200017461C463A4631462846FFF7D7FF311992
:100430003A462846FFF7D2FF22463146284600F0CA
:100440001FF8E8192246314600F01AF80020BDE8EE
:10045000F081000070B505460E46144609E014F818
:10046000012B31462846FFF751FF044800680088F9
:10047000054420780028F2D170BD00003000002033
:1004800070B505460E4614462346012231462846DD
:1004900000F046FB222001F083F900BF00BF03E01B
:1004A0000548008801F084F9201EA4F10104F7D169
:1004B00000BF00BF70BD00002C00002070B5FE48DA
:1004C000806940F2ED110843FB498861FB480068F0
:1004D00000F0FF2444F0BB10F8490860081D0068D4
:1004E000F74900EA0104F7482043F449091D086070
:1004F000F548006820F0704444F03040F24908604C
:100500004FF0BB30091D0860F048006820F00F0470
:1005100044F00B00ED490860ED484068ED4900EA01
:100520000104ED482043EA494860EC480068EB4983
:100530000860EA481038006820F00F0444F0030017
:10054000E64910390860DC48406940F48070DA49B7
:10055000486140F205404107C86141F211208861BD
:10056000322000F065FD0026304601F019F900F058
:100570006FFF0546472D7DD10120D9490870002124
:10058000EA2001F019F92021EB2001F015F90C21E6
:10059000EC2001F011F9C721ED2001F00DF938210F
:1005A000E82001F009F91021E92001F005F9012105
:1005B000F12001F001F91021F22001F0FDF80121F4
:1005C000402001F0F9F80021412001F0F5F8002168
:1005D000422001F0F1F81021432001F0EDF80E2146
:1005E000442001F0E9F82421452001F0E5F8042138
:1005F000462001F0E1F85021472001F0DDF802210A
:10060000482001F0D9F81321492001F0D5F819212B
:100610004A2001F0D1F819214B2001F0CDF8162124
:100620004C2001F0C9F81B21502001F0C5F8312100
:10063000512001F0C1F82F21522001F0BDF83F21D7
:10064000532001F0B9F83F21542001F0B5F83E21C4
:10065000552001F0B1F82F21562001F0ADF87B2193
:10066000572001F0A9F80921582001F0A5F806212A
:10067000592000E089E001F09FF806215A2001F09E
:100680009BF80C215B2001F097F81D215C2001F004
:1006900093F8CC215D2001F08FF81B21084601F072
:1006A0008BF801211A2001F087F82F21242001F076
:1006B00083F85721252001F07FF88821232001F0BD
:1006C0007BF83621182001F077F80121192001F07C
:1006D00073F80021012001F06FF888211F2001F03C
:1006E0006BF8C82000F0A4FC82211F2001F064F800
:1006F000322000F09DFC92211F2001F05DF8322095
:1007000000F096FCD2211F2001F056F8322000F0B4
:100710008FFC5521172001F04FF80021084601F009
:100720004BF811212F2001F047F80021312001F072
:1007300043F80021322001F03FF83821282001F051
:100740003BF8C82000F074FC3C21282001F034F86C
:10075000A821162001F030F800210E2001F02CF81D
:1007600000210F2001F028F80121102001F024F8C9
:100770004021112001F020F80021122001F01CF886
:100780000021132001F018F8A9E100205449087055
:100790004FF48071012001F00FF84FF4E061022066
:1007A00001F00AF80021042001F006F840F20721C8
:1007B000082001F001F80021092000F0FDFF0021D0
:1007C0000A2000F0F9FF00210C2000F0F5FF0021C5
:1007D0000D2000F0F1FF00210F2000F0EDFF0021BF
:1007E000102000F0E9FF0021112000F0E5FF0021BA
:1007F000122000F0E1FF0021132000F0DDFFC820EF
:1008000000F016FC41F2B021102000F0D5FF0721C6
:10081000112000F0D1FF322000F00AFC40F2BD119F
:10082000122000F0C9FF322000F002FC4FF4A0516A
:10083000132000F0C1FF0E21292000F0BDFF32205F
:1008400000F0F6FB0021202000F0B6FF002121205F
:1008500000F0B2FFA5F5A840083838B1A0F57C50EB
:10086000183800287DD005287CD167E040F60D318E
:10087000302000F0A1FF41F62311312000F09CFF51
:1008800041F62641322000F097FF42F21C613320EE
:1008900000F092FF42F21941342000F08DFF40F643
:1008A0000B51352000F088FF41F20601362000F0A0
:1008B00083FF4FF4C26115E00010024000140140B4
:1008C00000F0FF00BB0B00BB00180140001C014002
:1008D00000200140FFF0F0FF000B0B001408014066
:1008E00034000020372000F067FF40F20671382006
:1008F00000F062FF4FF44171392000F05DFF40F6D7
:1009000005613A2000F058FF40F601613B2000F0FD
:1009100053FF4FF487713C2000F04EFF40F20E5120
:100920003D2000F049FF40F203413E2000F044FF2B
:1009300040F207613F2000F03FFF61E000213020DE
:1009400000F03AFF40F20761312000F035FF40F23D
:100950000531322000F030FF0021352000F02CFF5F
:1009600001E01DE01BE041F20461362000F024FFAD
:100970004FF40171372000F01FFF0121382000F0F3
:100980001BFF40F20771392000F016FF00213C20C8
:1009900000F012FF0F213D2000F00EFF30E000BFFD
:1009A0000621302000F008FF40F20111312000F054
:1009B00003FF0321322000F0FFFE4FF48371352046
:1009C00000F0FAFE40F60231362000F0F5FE40F26B
:1009D0000231372000F0F0FE40F20771382000F0BD
:1009E000EBFE0721392000F0E7FE4FF4C0613C2008
:1009F00000F0E2FE40F20B213D2000F0DDFE00BFE2
:100A000000BF0021502000F0D7FEEF21512000F060
:100A1000D3FE0021522000F0CFFE40F23F115320C0
:100A200000F0CAFEA5F5A840083830B1A0F57C500A
:100A3000183850B1052807D100E000BF4FF41C5111
:100A4000602000F0B9FE06E000BF4FF427416020AF
:100A500000F0B2FE00BF00BF0121612000F0ACFE3B
:100A600000216A2000F0A8FE0021802000F0A4FEF2
:100A70000021812000F0A0FE0021822000F09CFED9
:100A80000021832000F098FE0021842000F094FED5
:100A90000021852000F090FE1021902000F08CFEB7
:100AA0000021922000F088FE0321932000F084FEB4
:100AB0004FF48871952000F07FFE0021972000F010
:100AC0007BFE0021982000F077FE41F238010320E0
:100AD00000F072FE40F23711072000F06DFE4FF477
:100AE000807002490860002070BD000010080140BD
:100AF0000146024A11800020704700002E000020AD
:100B000001460248016000207047000030000020CC
:100B10000146024A11800020704700002C0000208E
:100B20002DE9F04704460D4616461F462648007834
:100B300060B3A019A0F10108E819A0F10109C4F3FC
:100B40000F21022000F038FEE1B2032000F034FE55
:100B5000C8F30F21042000F02FFE08F0FF0105204C
:100B600000F02AFEC5F30F21062000F025FEE9B2B1
:100B7000072000F021FEC9F30F21082000F01CFE21
:100B800009F0FF01092000F017FE1BE0A9B2502078
:100B900000F012FEE819401E81B2512000F00CFE58
:100BA000A1B2522000F008FEA019401E81B25320CD
:100BB00000F002FEA9B2202000F0FEFDA1B221202B
:100BC00000F0FAFDBDE8F0873400002010B500F019
:100BD00001F810BD0CB5002001900090334800686A
:100BE00040F480303149086000BF3048006800F4AC
:100BF000003000900198401C0190009818B90198AD
:100C0000B0F5A06FF1D12948006800F4003010B1B0
:100C10000120009001E0002000900098012843D1BD
:100C20002348006840F01000214908600846006829
:100C300020F0030008600846006840F002000860E9
:100C40001A484068194948600846406848600846A4
:100C5000406840F4806048600846406820F47C109A
:100C600048600846406840F4E8104860084600685C
:100C700040F08070086000BF0C48006800F0007011
:100C80000028F9D00948406820F00300074948606F
:100C90000846406840F00200486000BF03484068D2
:100CA00000F00C000828F9D10CBD00000010024033
:100CB0000020024010B51348006840F001001149BF
:100CC000086008464068104908400E4948600846D8
:100CD00000680E4908400B4908600846006820F487
:100CE000802008600846406820F4FE0048604FF409
:100CF0001F008860FFF76AFF4FF00060044908603A
:100D000010BD0000001002400000FFF8FFFFF6FEDB
:100D100008ED00E010B50748008800F0010038B188
:100D200000F07AFC0348008820F0010001490880A7
:100D300010BD0000102C01404FF08040008A00F0F0
:100D4000010038B14FF08040008A20F001004FF0E0
:100D500080410882704700000548008800F00100CB
:100D600028B10348008820F001000149088070473D
:100D7000103401400FB4084B10B504A902AA03981F
:100D800000F028F8044602A9002000F0CDF8204623
:100D900010BC5DF814FB0000290F0008002809DBD7
:100DA00000F01F02012191404209920002F1E0226D
:100DB000C2F80011704702E008C8121F08C1002ADB
:100DC000FAD170477047002001E001C1121F002ACC
:100DD000FBD170472DE9FF4F89B09B4604460025A3
:100DE00006E025280BD05A460B999047641C6D1CD1
:100DF00020780028F5D10DB02846BDE8F08F0027F7
:100E0000B8460122474900E0074314F8013F203B60
:100E100002FA03F00842F7D120782E2819D114F8ED
:100E2000010F47F004072A280ED06FF02F02207818
:100E3000A0F1300109290CD808EB880102EB41012F
:100E400000EB0108641CF2E70A98641C50F8048B5C
:100E50000A9020780028CED0642808D0692806D0CF
:100E600075281ED05A460B9990476D1C58E00A9978
:100E70004FF00A0901C90A91002802DA40422D21E7
:100E800002E0390504D52B218DF82010012103E063
:100E9000F90704D02021F7E78A4608AE0DE00021CB
:100EA000FAE70A994FF00A0901C90A91F7E749469A
:100EB000FFF76CF9303106F8011D0028F7D1ADEBD2
:100EC000060000F12009780701D44FF00108C84559
:100ED00002DDA8EB090000E000208046002706E0C4
:100EE00008A85A46C05D0B9990476D1C7F1C57455A
:100EF000F6DB04E030205A460B9990476D1CB8F1A0
:100F00000001A8F10108F5DC05E016F8010B5A46CE
:100F10000B9990476D1CB9F10001A9F10109F4DCAE
:100F2000641C65E7092801000A68531C0B601070F7
:100F300070470000024A01681160416851607047C3
:100F40002000002010B50020FFF7D2FDFFF796F932
:100F500010BD000000B51048806940F400600E49E3
:100F6000886103200D4908804FF62050091D088034
:100F70000A481C38008840F0010008491C390880E4
:100F800000F02CFB0648006840F000704FF0E021B4
:100F9000C1F8000100BD000000100240282C0140F3
:100FA00000E100E000B50C48C06940F001000A49CA
:100FB000C86103208904088547F69060888580060B
:100FC000808940F00100888100F012FB4FF08050D2
:100FD0000249086000BD00000010024000E100E08E
:100FE00000B51048806940F400500E498861002027
:100FF00000F06EFA48F6A0400B4908800A482038F5
:10100000008840F0010008492039088000F0FAFA11
:101010000648006840F480504FF0E021C1F8040118
:1010200000BD0000001002402C34014004E100E04B
:101030000949096842F21072B1FBF2F1484305E038
:1010400000BF00BF00BF00BF00BF00BF011EA0F176
:101050000100F5D1704700003800002000B585B0D0
:10106000FFF770FF00F04AF84FF47840FFF750FDAB
:101070000DA264210846FFF7EDF94FF6FF70FFF768
:1010800047FD0C480CA102686846FFF773FE6A46EC
:101090008C211420FFF7DEF900BF00F079FB002857
:1010A000FBD005B000BD00005065726475202121A1
:1010B0002100000010000020566F747265207363D9
:1010C0006F7265203A2025640000000010B500F022
:1010D00015F84FF47840FFF71BFD05A26421084680
:1010E000FFF7B8F900BF00F053FB0028FBD010BD9C
:1010F0004741474E452021212100000008B500202E
:10110000FFF7F6FC4FF6FF70FFF702FD1448FFF7FC
:10111000F7FC14A218210320FFF79CF91548FFF7EC
:10112000EFFC15A2E8210320FFF794F920480823DB
:101130001A463C2100906420FFF7BEF81D480823A2
:101140001A463C2100909120FFF7B6F81A48042374
:101150001A463E210090BE20FFF7AEF808BD000001
:10116000A43500082020202020205041432D4D414F
:101170004E0000009435000841726E617564204D88
:10118000617A75726965722020202020202020203D
:10119000495554204132202020202020202020208A
:1011A000204875676F205275737365696C00000085
:1011B000CC1A00084C180008CC1C000810B50446D6
:1011C000FFF79CFF1548FFF79BFC94B94FF478405C
:1011D000FFF79EFC12A264210846FFF73BF94FF689
:1011E000FF70FFF795FC10A28C216420FFF732F905
:1011F00013E0012C11D14FF6FF70FFF789FC0CA210
:1012000064210846FFF726F94FF47840FFF780FC89
:1012100009A28C216420FFF71DF910BDA435000838
:101220003E20506C617900002020517569740000E7
:101230002020506C617900003E20517569740000D7
:10124000F8B54FF49D74EA26002509E00748042309
:101250001A46314600902046FFF72EF8A41F6D1C59
:10126000034800688542F1DBF8BD0000CC1C000893
:101270002800002001480088704700002404004036
:1012800010B5FFF71BF9FFF75DFE10BD2149896915
:1012900041F001011F4A91611146896941F0020143
:1012A00091611146896941F0200191611146896976
:1012B00041F4807191611849496821F0706040F0F3
:1012C0008061154A51601146496821F4700040F46C
:1012D000800151601146496821F0704040F0804122
:1012E00051600E49096821F4704040F480410B4A76
:1012F00011600949496821F00F0040F00401064AD5
:1013000051601146096821F0704040F08041116041
:10131000704700000010024000200140001401400E
:1013200010B500F009F810BD00B5FFF713FEFFF788
:1013300039FEFFF755FE00BD0A48C06940F00200C3
:101340000849C8610020084908804FF6FF70091D50
:10135000088005482838008840F0010002492839F3
:1013600008807047001002402804004002480068CE
:10137000012121EAD000704708140140024880682A
:10138000012121EA90307047002001400248806826
:10139000012121EA50307047002001400248806856
:1013A000012121EAD01070470020014002488068E6
:1013B000012121EAD030704700200140FFF760FF93
:1013C000FFF764FFFFF7B0FFFFF7AAFF35E000204B
:1013D000FFF7F4FE00BF00F03FF80028FBD000F05C
:1013E00070F800201549086015490860012015496A
:1013F00008600020144908600DE000F083F800F058
:10140000CBF800BF0E48006818B9104800680028E3
:10141000F8D000F0D9F80A48006818B90748006801
:101420000028EAD00648006810B1FFF717FE04E074
:101430000248006808B1FFF749FEC8E70400002031
:10144000000000200C0000201000002008000020F8
:101450004FF0D8404088704710B5FFF7A7FF50B154
:1014600010480078012806D100200E49087008466F
:101470000078FFF7A3FEFFF779FF48B1094800782D
:1014800030B901200749087008460078FFF796FE3A
:10149000FFF784FF20B10348007808B9012010BD90
:1014A0000020FCE714000020024610680B689842F8
:1014B00005D150684B68984201D101207047002047
:1014C000FCE710B5FFF7D6FE0446FEF757FE10BD49
:1014D00018B91F210A4A118010E0012803D11921EF
:1014E000074A11800AE0022803D11321044A11801F
:1014F00004E0032802D10D21014A11807047000049
:101500002834014008B5FEF7B9FE0020FFF7F0FAD5
:101510000020FFF7FDFA00F043F8064808231A46BA
:1015200000900548016805480068FEF7C5FE00F018
:1015300007F808BD4C1800081C0000201800002007
:1015400010B5134800684EF20801084310490860BE
:101550000F480C3800684EF2080108430C490C395A
:1015600008600C48406900F00F0446F260602043B8
:101570000849486108460069C0F30B0444F4C040C0
:1015800008612820FFF70AFC0920FFF707FC10BDBF
:101590000C0401400000014010B5FFF751FE10BDE2
:1015A0000348008840F001000149088070470000AE
:1015B000002C01400348006820F480700149086055
:1015C000704700000004014010B500F007F800F07B
:1015D0000FF800F017F8FFF7EDFF10BD0348008883
:1015E00020F001000149088070470000002C0140F4
:1015F0004FF08040008820F001004FF080410880CB
:10160000704700000348008820F00100014908806D
:10161000704700000034014008B552480068524944
:1016200009680844504908604E4840684F490968B5
:1016300008444E4908604C480068082802DC09202C
:101640004949086049480068082802DC09204749E0
:10165000086045480068B0F59C7F03DB40F2371016
:101660004149086041480068E02802DBDF203F492B
:1016700008603F493B48FFF717FFB8B13B48006897
:10168000082813DB0123082238480168083136484E
:101690000068FEF7C1FE374808231A460090334819
:1016A000016831480068FEF707FE58E032492D48CE
:1016B000FFF7FAFEB8B12D480068E02813DC2B488C
:1016C0000068411E0123082227480068FEF7A4FE97
:1016D0002A4808231A4600902448016822480068D6
:1016E000FEF7EAFD3BE026491E48FFF7DDFEB8B1F4
:1016F0001D480068082813DB082301221B480168E5
:10170000194800680830FEF787FE1E4808231A466D
:1017100000901648016814480068FEF7CDFD1EE0F1
:1017200019491048FFF7C0FEC0B10F480068B0F576
:101730009C7F13DC0C490968481E082301220B49D1
:101740000968FEF769FE114808231A460090074809
:10175000016805480068FEF7AFFD00E008BD00BF66
:10176000FCE7000020000020180000201C000020E2
:10177000EC1C0008CC190008F41C00084C190008E7
:10178000FC1C0008CC180008041D00084C180008B8
:1017900002488068012121EA1020704700200140A2
:1017A0004FF0D841088070474FF0D84148807047CB
:1017B0004FF0D8414880704770B505460C46284622
:1017C000FFF7EEFF2046FFF7EFFF70BD00000000BF
:1017D000E0FFE0FFE0FFE0FF000000000000E0FFAE
:1017E000E0FFE0FFE0FFE0FFE0FF0000E0FFE0FFE0
:1017F000E0FFE0FFE0FFE0FFE0FFE0FFE0FFE0FFF1
:10180000E0FFE0FFE0FFE0FFE0FFE0FFE0FFE0FFE0
:10181000E0FFE0FFE0FFE0FFE0FFE0FFE0FFE0FFD0
:10182000E0FFE0FFE0FFE0FFE0FFE0FF0000E0FF9F
:10183000E0FFE0FFE0FFE0FFE0FF0000000000004D
:10184000E0FFE0FFE0FFE0FF00000000000000001C
:10185000E0FFE0FFE0FFE0FF000000000000E0FF2D
:10186000E0FFE0FFE0FFE0FFE0FF0000E0FFE0FF5F
:10187000E0FFE0FFE0FFE0FF00000000E0FFE0FF2E
:10188000E0FFE0FFE0FF000000000000E0FFE0FFFD
:10189000E0FFE0FFE0FF000000000000E0FFE0FFED
:1018A000E0FFE0FFE0FFE0FF000000000000E0FFDD
:1018B000E0FFE0FFE0FFE0FFE0FF000000000000CD
:1018C000E0FFE0FFE0FFE0FF00000000000000009C
:1018D000E0FFE0FFE0FFE0FF000000000000E0FFAD
:1018E000E0FFE0FFE0FFE0FFE0FF0000000000009D
:1018F000E0FFE0FFE0FFE0FFE0FFE0FF00000000AE
:101900000000E0FFE0FFE0FFE0FFE0FF000000007C
:101910000000E0FFE0FFE0FFE0FFE0FF000000006C
:10192000E0FFE0FFE0FFE0FFE0FFE0FF0000E0FF9E
:10193000E0FFE0FFE0FFE0FFE0FF0000000000004C
:10194000E0FFE0FFE0FFE0FF00000000000000001B
:101950000000000000000000000000000000E0FFA8
:101960000000000000000000E0FF0000E0FFE0FFDA
:10197000E0FF00000000E0FFE0FFE0FFE0FFE0FF2D
:10198000E0FFE0FFE0FFE0FFE0FFE0FFE0FFE0FF5F
:10199000E0FFE0FFE0FFE0FFE0FFE0FFE0FFE0FF4F
:1019A000E0FFE0FFE0FFE0FFE0FFE0FF0000E0FF1E
:1019B000E0FFE0FFE0FFE0FFE0FF000000000000CC
:1019C000E0FFE0FFE0FFE0FF00000000000000009B
:1019D000E0FFE0FFE0FFE0FF000000000000E0FFAC
:1019E000E0FFE0FFE0FFE0FFE0FF0000E0FFE0FFDE
:1019F000E0FFE0FFE0FFE0FFE0FFE0FFE0FFE0FFEF
:101A0000E0FFE0FFE0FFE0FFE0FFE0FFE0FFE0FFDE
:101A1000E0FFE0FFE0FFE0FFE0FFE0FFE0FFE0FFCE
:101A2000E0FF00000000E0FFE0FFE0FF0000E0FF5B
:101A30000000000000000000E0FF000000000000C7
:101A40000000000000000000000000000000000096
:101A500000F800F800F800F800000000000000F8AE
:101A600000F800F800F800F800F8000000F800F8AE
:101A700000F800F800F800F800F800F800F800F8A6
:101A800000F800F800F800F800F800F800F800F896
:101A900000F800F800F800F800F800F800F800F886
:101AA00000F800F800F800F800F800F8000000F86E
:101AB00000F800F800F800F800F80000000000004E
:101AC00000F800F800F800F8000000000000000036
:101AD00000F800F800F800F800000000000000F82E
:101AE00000F800F800F800F800F8000000F800F82E
:101AF00000F800F800F800F80000000000F800F816
:101B000000F800F800F800000000000000F800F8FD
:101B100000F800F800F800000000000000F800F8ED
:101B200000F800F800F800F800000000000000F8DD
:101B300000F800F800F800F800F8000000000000CD
:101B400000F800F800F800F80000000000000000B5
:101B500000F800F800F800F800000000000000F8AD
:101B600000F800F800F800F800F80000000000009D
:101B700000F800F800F800F800F800F80000000095
:101B8000000000F800F800F800F800F8000000007D
:101B9000000000F800F800F800F800F8000000006D
:101BA00000F800F800F800F800F800F8000000F86D
:101BB00000F800F800F800F800F80000000000004D
:101BC00000F800F800F800F8000000000000000035
:101BD000000000000000000000000000000000F80D
:101BE000000000000000000000F8000000F800F80D
:101BF00000F80000000000F800F800F800F800F815
:101C000000F800F800F800F800F800F800F800F814
:101C100000F800F800F800F800F800F800F800F804
:101C200000F800F800F800F800F800F8000000F8EC
:101C300000F800F800F800F800F8000000000000CC
:101C400000F800F800F800F80000000000000000B4
:101C500000F800F800F800F800000000000000F8AC
:101C600000F800F800F800F800F8000000F800F8AC
:101C700000F800F800F800F800F800F800F800F8A4
:101C800000F800F800F800F800F800F800F800F894
:101C900000F800F800F800F800F800F800F800F884
:101CA00000F80000000000F800F800F8000000F85C
:101CB000000000000000000000F80000000000002C
:101CC0000000000000000000000000000000FFFF16
:101CD000FFFF0000FFFFFFFFFFFFFFFFFFFFFFFF12
:101CE000FFFFFFFF0000FFFFFFFF000000000000FC
:101CF000FFFFFFFF0000000001000000FFFFFFFFEB
:101D000000000000010000000000000000000000D2
:101D100000000000000000000000000004040404B3
:101D2000040004000A0A0A00000000000A0A1F0A50
:101D30001F0A0A00041E050E140F040003130804F2
:101D40000219180002050502150916000C0C040200
:101D5000000000000804020202040800020408084F
:101D6000080402000004150E0E1504000004041FF0
:101D700004040000000000000C0C04020000001F1E
:101D80000000000000000000000C0C00001008041F
:101D9000020100000E11131519110E0004060404AF
:101DA00004040E000E11100E01011F001F10080C7C
:101DB00010110E00080C0A091F0808001F010F105F
:101DC00010110E001C02010F11110E001F1010083F
:101DD000040201000E11110E11110E000E11111E40
:101DE00010080700000004000400000000000400C8
:101DF00004040200100804020408100000001F0080
:101E00001F00000002040810080402000E11100C4C
:101E1000040004000E11151D0D011E00040A11110D
:101E20001F1111000F11110F11110F000E110101DF
:101E300001110E000F11111111110F001F01010FDF
:101E400001011F001F01010F010101001E1101010D
:101E500019111E001111111F111111000E0404049B
:101E600004040E001C0808080809060011090503EF
:101E7000050911000101010101011F00111B1515C8
:101E80001511110011111315191111000E11111155
:101E900011110E000F11110F010101000E1111118E
:101EA000150916000F11110F050911000E11010E71
:101EB00010110E001F150404040404001111111167
:101EC00011110E0011111111110A04001111111537
:101ED00015150A0011110A040A11110011110A0442
:101EE000040404001F10080E02011F001E0202025B
:101EF00002021E0000010204081000001E10101053
:101F000010101E00040A1100000000000000000074
:101F100000001F000606040800000000000006087C
:101F20000E091E0001010D1311130D0000000E110A
:101F300001110E00101016191119160000000E11D3
:101F40001F010E000814040E0404040000000E1902
:101F50001916100E01010D131111110004000604D1
:101F600004040E000800080808090600010109051C
:101F7000030509000604040404040E0000000B1508
:101F80001515150000000D131111110000000E11A0
:101F900011110E0000000D13130D010100001619A0
:101FA0001916101000000D130101010000001E01A0
:101FB0000E100F0004041F04041408000000111187
:101FC0001119160000001111110A0400000011116E
:101FD00015150A000000110A040A11000000111171
:101FE0001E10110E00001F0804021F000804040246
:101FF00004040800040404000404040002040408A7
:1020000004040200021508000000000000000000A7
:102010000000000000000C12120C000000000C1E5A
:102020001E0C000000001E12121E000000001E1EEA
:102030001E1E000000000C0C121E000000000C0C04
:102040001E1E000000001E120C0C000000001E1ED0
:102050000C0C000000001816161800000000181ED6
:102060001E1800000000061A1A0600000000061ED6
:102070001E06000000000C12120C000000000C1ED6
:102080001E0C000000001E12121E000000001E1E8A
:102090001E1E000000000000000000000000000004
:1020A0000000000000000000000000000000000030
:1020B0000000000000000000000000000000000020
:1020C000000000000000800180018001800180018B
:1020D00080018001800180018001800180018001F8
:1020E00000000000800180010000000000000000EE
:1020F0000000000000000000CC00CC00CC00CC00B0
:10210000CC00CC0000000000000000000000000037
:1021100000000000000000000000000000000000BF
:1021200000000000000000000000000000000000AF
:10213000600C600C600C30063006FE1FFE1F30067F
:1021400038071803FE1FFE1F180318038C018C01AB
:102150008C01000000008000E003F80F9C0E8C1C36
:102160008C188C009800F801E007800E801C8C18F9
:102170008C189C18B80CF00FE00380008000000061
:10218000000000000000000000000E181B0C110CE5
:1021900011061106110311039B018E01C038C06C9A
:1021A00060446044304430441844186C0C380000DB
:1021B000000000000000E001F003380718061806D0
:1021C0003003F001F000F8009C310E33061E061CAF
:1021D000061C063FFC73F021000000000000000018
:1021E00000000000000000000C000C000C000C00BF
:1021F0000C000C00000000000000000000000000C7
:1022000000000000000000000000000000000000CE
:10221000000000000000000200038001C000C000B8
:1022200060006000300030003000300030003000CE
:102230003000300060006000C000C000800100037A
:1022400000020000000020006000C000800180014A
:102250000003000300060006000600060006000654
:10226000000600060003000380018001C00060003A
:10227000200000000000000000000000000000003E
:10228000C000C000D806F807E0013003380700009E
:10229000000000000000000000000000000000003E
:1022A000000000000000000000000000000000002E
:1022B00080018001800180018001FC3FFC3F8001A2
:1022C000800180018001800100000000000000000A
:1022D00000000000000000000000000000000000FE
:1022E00000000000000000000000000000000000EE
:1022F000000000000000800180010001000180005A
:1023000000000000000000000000000000000000CD
:10231000000000000000000000000000E007E007EF
:1023200000000000000000000000000000000000AD
:10233000000000000000000000000000000000009D
:10234000000000000000000000000000000000008D
:10235000000000000000C000C000000000000000FD
:10236000000000000000000C000C00060006000643
:102370000003000300038003800180018001C0008E
:10238000C000C0006000600000000000000000000D
:10239000000000000000E003F007380E180C0C18D5
:1023A0000C180C180C180C180C180C180C180C180D
:1023B000180C380EF007E0030000000000000000D9
:1023C00000000000000000018001C001F001980140
:1023D00088018001800180018001800180018001ED
:1023E00080018001800180010000000000000000E9
:1023F000000000000000E003F80F180C0C180C1887
:1024000000180018000C000600038001C0006000E6
:1024100030001800FC1FFC1F00000000000000003E
:10242000000000000000E001F807180E0C0C0C0C76
:10243000000C0006C003C007000C001800180C18A0
:102440000C18180CF807E003000000000000000062
:10245000000000000000000C000E000F000F800DB7
:10246000C00C600C600C300C180C0C0CFC3FFC3FDA
:10247000000C000C000C000C00000000000000002C
:10248000000000000000F80FF80F180018000C0002
:10249000EC03FC071C0E001C0018001800180C1898
:1024A0001C0C180EF807E0030000000000000000FC
:1024B000000000000000C007F00F381C18181800BA
:1024C0000C00CC03EC0F3C0E1C1C0C180C180C1848
:1024D000181C380EF007E0030000000000000000A8
:1024E000000000000000FC1FFC1F000C000600069E
:1024F000000380038001C001C000E00060006000B4
:1025000070003000300030000000000000000000CB
:10251000000000000000E003F007380E180C180C53
:10252000180C3806F007F007180C0C180C180C18CB
:102530000C18380CF80FE003000000000000000049
:10254000000000000000E003F007380E1C0C0C181F
:102550000C180C181C1C381EF81BE0190018000C75
:10256000000C1C0EF807F001000000000000000045
:10257000000000000000000000000000000000005B
:102580008001800100000000000000000000000049
:102590000000000080018001000000000000000039
:1025A000000000000000000000000000000000002B
:1025B0008001800100000000000000000000000019
:1025C0000000000080018001000100018000000087
:1025D00000000000000000000000000000000000FB
:1025E000000000000010001C800FE003F80018003D
:1025F000F800E003800F001C001000000000000045
:1026000000000000000000000000000000000000CA
:1026100000000000F81F000000000000F81F00008C
:1026200000000000000000000000000000000000AA
:10263000000000000000000000000000000000009A
:102640000000000008003800F001C007001F00185B
:10265000001FC007F0013800080000000000000063
:10266000000000000000E003F80F180C0C180C1814
:102670000018000C000600038001C000C000C0006C
:1026800000000000C000C0000000000000000000CA
:102690000000000000000000E00718180420C22914
:1026A000224A114409440944094409221113E20C45
:1026B000024004201818E00700000000000000009D
:1026C00000000000000080038003C006C006C006B2
:1026D000600C600C301830183018F83FF83F1C7050
:1026E0000C600C6006C006C0000000000000000086
:1026F000000000000000FC03FC0F0C0C0C180C1870
:102700000C180C0CFC07FC0F0C180C300C300C30A7
:102710000C300C18FC1FFC0700000000000000003B
:10272000000000000000C007F01F38381C300C709B
:1027300006600600060006000600060006000660A9
:102740000C701C30F01FE0070000000000000000CB
:10275000000000000000FE03FE0F060E061806181B
:1027600006300630063006300630063006300618D1
:102770000618060EFE0FFE03000000000000000019
:10278000000000000000FC3FFC3F0C000C000C00AF
:102790000C000C00FC1FFC1F0C000C000C000C00BB
:1027A0000C000C00FC3FFC3F00000000000000009B
:1027B000000000000000F83FF83F18001800180063
:1027C00018001800F81FF81F18001800180018004B
:1027D0001800180018001800000000000000000099
:1027E000000000000000E00FF83F3C780E6006E0BB
:1027F00007C00300030003FE03FE03C007C006C0BA
:102800000EC03CF0F83FE00F0000000000000000A8
:102810000000000000000C300C300C300C300C308C
:102820000C300C30FC3FFC3F0C300C300C300C30CA
:102830000C300C300C300C300000000000000000A8
:102840000000000000008001800180018001800103
:102850008001800180018001800180018001800170
:102860008001800180018001000000000000000064
:10287000000000000000000600060006000600063A
:102880000006000600060006000600060006180600
:1028900018063807F003E001000000000000000007
:1028A00000000000000006300618060C06060603AD
:1028B0008601C60066007600DE008E01060306066D
:1028C000060C06180630066000000000000000003C
:1028D0000000000000001800180018001800180080
:1028E0001800180018001800180018001800180028
:1028F00018001800F81FF81F00000000000000007A
:102900000000000000000EE01EF01EF01EF036D8A1
:1029100036D836D836D866CC66CC66CCC6C6C6C6DF
:10292000C6C6C6C686C386C30000000000000000FD
:102930000000000000000C301C303C303C306C309B
:102940006C30CC30CC308C310C330C330C360C3634
:102950000C3C0C3C0C380C30000000000000000067
:10296000000000000000E007F81F1C380E70066031
:1029700003C003C003C003C003C003C003C006609C
:102980000E701C38F81FE007000000000000000077
:10299000000000000000FC0FFC1F0C380C300C3055
:1029A0000C300C300C18FC1FFC070C000C000C0049
:1029B0000C000C000C000C000000000000000000E7
:1029C000000000000000E007F81F1C380E700660D1
:1029D00003E003C003C003C003C003C007E00663F5
:1029E0000E3F1C3CF83FE0F700C000000000000074
:1029F000000000000000FE0FFE1F06380630063003
:102A000006300638FE1FFE0706030606060C0618EB
:102A100006180630063006600000000000000000C6
:102A2000000000000000E003F80F1C0C0C180C184C
:102A30000C001C00F803E00F001E003806300630C2
:102A40000E301C1CF80FE007000000000000000022
:102A5000000000000000FE7FFE7F800180018001F9
:102A6000800180018001800180018001800180015E
:102A70008001800180018001000000000000000052
:102A80000000000000000C300C300C300C300C301A
:102A90000C300C300C300C300C300C300C300C3056
:102AA0000C301818F81FE0070000000000000000BC
:102AB00000000000000003600630063006300C18ED
:102AC0000C180C18180C180C380E3006300670074D
:102AD00060036003C001C0010000000000000000AE
:102AE0000000000000000360C361C361C36166337E
:102AF000663366336633663366336C1B6C1B6C1B44
:102B00002C1A3C1E380E380E000000000000000099
:102B10000000000000000FE00C7018303018700C3E
:102B2000600EC00780038003C003E006700C301CF9
:102B300018180C300E6007E00000000000000000D4
:102B400000000000000003C006600C301C3838187C
:102B5000300C6006E007C003800180018001800125
:102B60008001800180018001000000000000000061
:102B7000000000000000FC7FFC7F006000300018B7
:102B8000000C000600038001C00060003000180047
:102B90000C000600FE7FFE7F000000000000000029
:102BA000000000000000E003E0036000600060003F
:102BB0006000600060006000600060006000600015
:102BC0006000600060006000600060006000E00382
:102BD000E003000000003000300060006000600092
:102BE000C000C000C000C00180018001800100035E
:102BF00000030003000600060000000000000000C3
:102C0000000000000000E003E003000300030003F5
:102C1000000300030003000300030003000300039C
:102C20000003000300030003000300030003E003AC
:102C3000E003000000000000C001C0016003600369
:102C4000600330063006180C180C0000000000006D
:102C50000000000000000000000000000000000074
:102C60000000000000000000000000000000000064
:102C70000000000000000000000000000000000054
:102C8000000000000000FFFFFFFF00000000000048
:102C90000000000000000C000C000C000C000C00F8
:102CA0000C00000000000000000000000000000018
:102CB0000000000000000000000000000000000014
:102CC0000000000000000000000000000000000004
:102CD000F003F8071C0C0C0C000FF00FF80C0C0C98
:102CE0000C0C1C0FF80FF018000000000000000092
:102CF000000000000000180018001800180018005C
:102D0000D803F80F380C18181818181818181818AD
:102D10001818380CF80FD80300000000000000005D
:102D200000000000000000000000000000000000A3
:102D3000C003F007300E180C180018001800180017
:102D4000180C300EF007C003000000000000000067
:102D500000000000000000180018001800180018FB
:102D6000C01BF01F301C181818181818181818183D
:102D70001818301CF01FC01B0000000000000000ED
:102D80000000000000000000000000000000000043
:102D9000C003F00F300C1818F81FF81F18001800A7
:102DA0003818301CF00FC0070000000000000000C1
:102DB000000000000000800FC00FC000C000C00075
:102DC000F007F007C000C000C000C000C000C00095
:102DD000C000C000C000C0000000000000000000F3
:102DE00000000000000000000000000000000000E3
:102DF000E00DF80F180E0C0C0C0C0C0C0C0C0C0C41
:102E00000C0C180EF80FE00D000C0C0C1C06F8074B
:102E1000F001000000001800180018001800180049
:102E2000D807F80F381C1818181818181818181878
:102E300018181818181818180000000000000000D2
:102E4000000000000000C000C00000000000000002
:102E5000C000C000C000C000C000C000C000C00072
:102E6000C000C000C000C000000000000000000062
:102E7000000000000000C000C000000000000000D2
:102E8000C000C000C000C000C000C000C000C00042
:102E9000C000C000C000C000C000C000C000F800FA
:102EA0007800000000000C000C000C000C000C006E
:102EB0000C0C0C060C038C01CC006C00FC009C017B
:102EC0008C030C030C060C0C00000000000000003A
:102ED000000000000000C000C000C000C000C00032
:102EE000C000C000C000C000C000C000C000C000E2
:102EF000C000C000C000C0000000000000000000D2
:102F000000000000000000000000000000000000C1
:102F10007C3CFF7EC7E383C183C183C183C183C17E
:102F200083C183C183C183C1000000000000000091
:102F30000000000000000000000000000000000091
:102F40009807F80F381C1818181818181818181897
:102F500018181818181818180000000000000000B1
:102F60000000000000000000000000000000000061
:102F7000C003F00F300C1818181818181818181863
:102F80001818300CF00FC003000000000000000013
:102F90000000000000000000000000000000000031
:102FA000D803F80F380C181818181818181818180B
:102FB0001818380CF80FD80318001800180018005B
:102FC00018000000000000000000000000000000E9
:102FD000C01BF01F301C18181818181818181818CB
:102FE0001818301CF01FC01B00180018001800181B
:102FF00000180000000000000000000000000000B9
:10300000B007F003700030003000300030003000B6
:1030100030003000300030000000000000000000F0
:1030200000000000000000000000000000000000A0
:10303000E003F003380E180C3800F003C007000C52
:10304000180C380EF007E00300000000000000003C
:1030500000000000000000008000C000C000C000B0
:10306000F007F007C000C000C000C000C000C000F2
:10307000C000C000C0078007000000000000000082
:103080000000000000000000000000000000000040
:1030900018181818181818181818181818181818B0
:1030A0001818381CF01FE019000000000000000094
:1030B0000000000000000000000000000000000010
:1030C0000C18180C180C180C30063006300660036B
:1030D00060036003C001C0010000000000000000A8
:1030E00000000000000000000000000000000000E0
:1030F000C141C141C361636363636363363636367E
:1031000036361C1C1C1C1C1C0000000000000000AB
:1031100000000000000000000000000000000000AF
:103120001C38381C300C6006C003C003C003C00349
:103130006006300C381C1C38000000000000000045
:10314000000000000000000000000000000000007F
:103150001830301830187018600C600CE00CC00685
:10316000C00680038003800380018001C001F0005D
:1031700070000000000000000000000000000000DF
:10318000FC1FFC1F000C000600038001C000600053
:1031900030001800FC1FFC1F0000000000000000B1
:1031A00000000000000000038001C000C000C0005B
:1031B000C000C000C000600060003000600040003F
:1031C000C000C000C000C000C000C00080010003FB
:1031D000000000000000800180018001800180016A
:1031E00080018001800180018001800180018001D7
:1031F00080018001800180018001800180018001C7
:103200008001000000006000C000C001800180015A
:10321000800180018001000300030006000300011B
:10322000800180018001800180018001C000600078
:10323000000000000000000000000000000000008E
:1032400000000000F010F81F080F00000000000050
:10325000000000000000000000000000000000006E
:10326000000000000000000000000000000000005E
:10327000000000000000000000000000000000004E
:10328000000000000000000000000000000000003E
:103290000000000000000000000000000000C0036B
:1032A000300C08100420042002400240024002407A
:1032B0000240042004200810300CC003000000006D
:1032C0000000000000000000000000000000C0033B
:1032D000F00FF81FFC3FFC3FFE7FFE7FFE7FFE7F6E
:1032E000FE7FFC3FFC3FF81FF00FC0030000000012
:1032F00000000000000000000000000000000000CE
:103300000000E007F00F18181818181818181818E7
:103310001818F00FE0070000000000000000000097
:10332000000000000000000000000000000000009D
:103330000000E007F00FF81FF81FF81FF81FF81F34
:10334000F81FF00FE0070000000000000000000080
:10335000000000000000000000000000000000006D
:103360000000000000000000000000008001C00319
:103370006006300C18181818F81FF81F000000001D
:10338000000000000000000000000000000000003D
:103390000000000000000000000000008001C003E9
:1033A000E007F00FF81FF81FF81FF81F00000000DB
:1033B000000000000000000000000000F81FF81FDF
:1033C00018181818300C6006C003800100000000B7
:1033D00000000000000000000000000000000000ED
:1033E000000000000000000000000000F81FF81FAF
:1033F000F81FF81FF00FE007C00380010000000075
:1034000000000000000000000000000000000000BC
:1034100000000000000000000000000000000000AC
:103420000000E001F00198018C01860186018C0109
:103430009801F001E0010000000000000000000021
:10344000000000000000000000000000000000007C
:103450000000E001F001F801FC01FE01FE01FC01A9
:10346000F801F001E0010000000000000000000091
:10347000000000000000000000000000000000004C
:1034800000008007800F8019803180618061803169
:103490008019800F8007000000000000000000007D
:1034A000000000000000000000000000000000001C
:1034B00000008007800F801F803F807F807F803FDB
:1034C000801F800F80070000000000000000000047
:1034D000000000000000C001200220024001300670
:1034E000080808080808080808080808080820024A
:1034F00020022002200220022002200220022002BC
:10350000200200000000C001E003E003C001F0075A
:10351000D80DD80DD80DD80DD80DD80DD80D600305
:103520006003600360036003600360036003600383
:10353000600300000000C0012002200240013006AC
:103540000808080808080410022002204001200290
:103550002002100408080808041004100420044085
:10356000000000000000C001E003E003C001F0071C
:10357000D80DD80DD80DCC19C631C261C001600379
:1035800060037006380C180C0C180C180C300C600A
:10359000000000000600080020000000700000008D
:1035A000141D00081000180020000000700000002A
:1035B00094200008D43500080000002050000000CE
:1035C000B60D00082436000850000020000400005A
:1035D000C60D000800000000000000000000000010
:1035E000000000000000000000000000A00000003B
:1035F000780000000100000000000000030000004F
:103600000000FFFF000000000000000000A24A04CC
:103610000000000000000000010203040607080982
:0436200000000000A6
:0400000508000145A9
:00000001FF
