:020000040800F2
:1000000098040020450100084D0100084F01000838
:1000100051010008530100085501000800000000CC
:100020000000000000000000000000005701000870
:1000300059010008000000005B0100085D01000894
:100040005F0100085F0100085F0100085F01000810
:100050005F0100085F0100085F0100085F01000800
:100060005F010008810200085F0100085F010008CD
:100070005F0100085F0100085F0100085F010008E0
:100080005F0100085F0100085F0100085F010008D0
:100090005F0100085F0100085F010008C502000859
:1000A0005F010008E90D00085F0100085F0100081A
:1000B0000D0E00085F0100085F0100085F010008E5
:1000C0005F0100085F0100085F0100085F01000890
:1000D0005F0100085F0100085F0100085F01000880
:1000E000DD0100085F0100085F0100085F010008F2
:1000F0002D0E00085F0100085F0100085F01000885
:100100005F0100085F0100085F0100085F0100084F
:100110005F0100085F0100085F0100085F0100083F
:100120005F0100085F0100085F0100085F0100082F
:10013000DFF80CD000F040F800480047AD1600088A
:10014000980400200648804706480047FEE7FEE77F
:10015000FEE7FEE7FEE7FEE7FEE7FEE7FEE7FEE777
:10016000890D0008310100080649074A0868504314
:1001700043F23902104408604008704701490860A2
:1001800070470000580000206D4EC64130B50B4648
:10019000014600202022012409E021FA02F59D42B7
:1001A00005D303FA02F5491B04FA02F52844151E8B
:1001B000A2F10102F1DC30BD064C074D06E0E0681B
:1001C00040F0010394E8070098471034AC42F6D39E
:1001D000FFF7B2FFC03B0008E03B000810B501F09C
:1001E0005DFA90B11F48006840F400401D49086066
:1001F0001D491E4801F078FB18B11D4800F008FFAA
:100200002EE01C4800F004FF2AE001F02FFA90B124
:100210001448006840F480401249086016491348A9
:1002200001F062FB18B1124800F0F2FE18E013482A
:1002300000F0EEFE14E001F021FA88B109480068F0
:1002400040F40050074908600C49084801F04CFB95
:1002500018B1074800F0DCFE02E0074800F0D8FEC5
:1002600010BD0000140401400023000828000020F5
:1002700018230008F82200081023000808230008AB
:1002800010B501F0EBF988B10948006840F00800AA
:10029000074908600749084801F026FB18B10748DC
:1002A00000F0B6FE02E0064800F0B2FE10BD00000D
:1002B00014040140F8220008280000201823000838
:1002C000002300080548006800F4807028B1034846
:1002D000006840F4807001490860704714040140D0
:1002E00010B5F0234FF4A0720021084600F082FC04
:1002F000222001F05BFD00BF00BF002404E006489F
:10030000008801F05BFD641CB4F5963FF7D300BF95
:1003100000BF002010BD00003A0000202DE9F0478A
:1003200081468A4614461E46089F07FB04F0642156
:10033000B0FBF1F7334622465146484600F05AFCDE
:10034000222001F033FD00BF00BF4FF0000811E094
:1003500000250BE0BD4204D30A48008801F02EFDC1
:1003600003E00948008801F029FD6D1CA542F1D386
:1003700008F10108B045EBD300BF00BF0020BDE885
:10038000F08700003A000020380000202DE9F05FDF
:100390008046894614461F46DDF828A0D3463B46D2
:1003A00022464946404600F025FC222001F0FEFC92
:1003B00000BF00BF781E00FB04F50AE0002605E040
:1003C000A9193BF8110001F0F9FC761CA642F7D3FD
:1003D0002D1B002DF2DA00BF00BF0020BDE8F09F0A
:1003E0002DE9F04781468A4616462E48006818B91E
:1003F0004FF0FF30BDE8F0872A4800684068361AA1
:10040000284909680988C81DC11700EB51714FEAD6
:10041000E10824480068C16806FB08F0214A126818
:10042000528800FB02151F48006843881D48006879
:1004300002885146484600F0DDFB222001F0B6FC60
:1004400000BF00BF002723E000241AE0297804F051
:100450000702114101F0010111B11349098801E0BE
:1004600012490988084601F0A9FC04F00700072892
:1004700006D10C4800680088401EA04200D06D1CC8
:10048000641C084800680088A042DFD86D1C7F1CEF
:10049000044800684088B842D6D800BF00BF00209A
:1004A000A8E700003C000020380000203A000020AF
:1004B00070B505460E4614460123224631462846AD
:1004C00000F098FB222001F071FC00BF00BF03E0A8
:1004D0000548008801F072FC201EA4F10104F7D148
:1004E00000BF00BF70BD0000380000202DE9F041C2
:1004F00005460E4617461C463A4631462846FFF743
:10050000D7FF31193A462846FFF7D2FF2246314637
:10051000284600F01FF8E8192246314600F01AF884
:100520000020BDE8F081000070B505460E46144677
:1005300009E014F8012B31462846FFF751FF044823
:1005400000680088054420780028F2D170BD0000C2
:100550003C00002070B505460E4614462346012295
:100560003146284600F046FB222001F01FFC00BF68
:1005700000BF03E00548008801F020FC201EA4F124
:100580000104F7D100BF00BF70BD0000380000209B
:1005900070B5FE48806940F2ED110843FB4988615F
:1005A000FB48006800F0FF2444F0BB10F8490860E5
:1005B000081D0068F74900EA0104F7482043F449A0
:1005C000091D0860F548006820F0704444F0304090
:1005D000F24908604FF0BB30091D0860F048006820
:1005E00020F00F0444F00B00ED490860ED4840682E
:1005F000ED4900EA0104ED482043EA494860EC482F
:100600000068EB490860EA481038006820F00F04E1
:1006100044F00300E64910390860DC48406940F4C2
:100620008070DA49486140F205404107C86141F2F3
:1006300011208861322000F0F5FD0026304601F0DF
:10064000B5FB01F0ABF80546472D7DD10120D94916
:1006500008700021EA2001F0B5FB2021EB2001F019
:10066000B1FB0C21EC2001F0ADFBC721ED2001F026
:10067000A9FB3821E82001F0A5FB1021E92001F0B9
:10068000A1FB0121F12001F09DFB1021F22001F0DE
:1006900099FB0121402001F095FB0021412001F050
:1006A00091FB0021422001F08DFB1021432001F03D
:1006B00089FB0E21442001F085FB2421452001F017
:1006C00081FB0421462001F07DFB5021472001F0F1
:1006D00079FB0221482001F075FB1321492001F02C
:1006E00071FB19214A2001F06DFB19214B2001F00B
:1006F00069FB16214C2001F065FB1B21502001F005
:1007000061FB3121512001F05DFB2F21522001F0CE
:1007100059FB3F21532001F055FB3F21542001F0AC
:1007200051FB3E21552001F04DFB2F21562001F0B9
:1007300049FB7B21572001F045FB0921582001F09E
:1007400041FB0621592000E089E001F03BFB062136
:100750005A2001F037FB0C215B2001F033FB1D21F7
:100760005C2001F02FFBCC215D2001F02BFB1B2135
:10077000084601F027FB01211A2001F023FB2F215D
:10078000242001F01FFB5721252001F01BFB8821AD
:10079000232001F017FB3621182001F013FB012163
:1007A000192001F00FFB0021012001F00BFB882133
:1007B0001F2001F007FBC82000F034FD82211F201C
:1007C00001F000FB322000F02DFD92211F2001F0EE
:1007D000F9FA322000F026FDD2211F2001F0F2FAB2
:1007E000322000F01FFD5521172001F0EBFA002107
:1007F000084601F0E7FA11212F2001F0E3FA002169
:10080000312001F0DFFA0021322001F0DBFA38213B
:10081000282001F0D7FAC82000F004FD3C21282050
:1008200001F0D0FAA821162001F0CCFA00210E2008
:1008300001F0C8FA00210F2001F0C4FA01211020B4
:1008400001F0C0FA4021112001F0BCFA0021122071
:1008500001F0B8FA0021132001F0B4FAA9E1002058
:10086000544908704FF48071012001F0ABFA4FF445
:10087000E061022001F0A6FA0021042001F0A2FAB2
:1008800040F20721082001F09DFA0021092001F023
:1008900099FA00210A2001F095FA00210C2001F0BC
:1008A00091FA00210D2001F08DFA00210F2001F0B6
:1008B00089FA0021102001F085FA0021112001F0B1
:1008C00081FA0021122001F07DFA0021132001F0AD
:1008D00079FAC82000F0A6FC41F2B021102001F006
:1008E00071FA0721112001F06DFA322000F09AFC14
:1008F00040F2BD11122001F065FA322000F092FCA6
:100900004FF4A051132001F05DFA0E21292001F0CF
:1009100059FA322000F086FC0021202001F052FA22
:100920000021212001F04EFAA5F5A840083838B181
:10093000A0F57C50183800287DD005287CD167E0D0
:1009400040F60D31302001F03DFA41F623113120FF
:1009500001F038FA41F62641322001F033FA42F232
:100960001C61332001F02EFA42F21941342001F0CB
:1009700029FA40F60B51352001F024FA41F2060124
:10098000362001F01FFA4FF4C26115E0001002405A
:100990000014014000F0FF00BB0B00BB0018014039
:1009A000001C014000200140FFF0F0FF000B0B0095
:1009B0001408014040000020372001F003FA40F203
:1009C0000671382001F0FEF94FF44171392001F031
:1009D000F9F940F605613A2001F0F4F940F60161B9
:1009E0003B2001F0EFF94FF487713C2001F0EAF968
:1009F00040F20E513D2001F0E5F940F203413E2066
:100A000001F0E0F940F207613F2001F0DBF961E01D
:100A10000021302001F0D6F940F20761312001F0C9
:100A2000D1F940F20531322001F0CCF90021352016
:100A300001F0C8F901E01DE01BE041F2046136203D
:100A400001F0C0F94FF40171372001F0BBF9012129
:100A5000382001F0B7F940F20771392001F0B2F9FE
:100A600000213C2001F0AEF90F213D2001F0AAF950
:100A700030E000BF0621302001F0A4F940F201115E
:100A8000312001F09FF90321322001F09BF94FF44E
:100A90008371352001F096F940F60231362001F0DD
:100AA00091F940F20231372001F08CF940F20771E0
:100AB000382001F087F90721392001F083F94FF43C
:100AC000C0613C2001F07EF940F20B213D2001F095
:100AD00079F900BF00BF0021502001F073F9EF2128
:100AE000512001F06FF90021522001F06BF940F222
:100AF0003F11532001F066F9A5F5A840083830B140
:100B0000A0F57C50183850B1052807D100E000BF8F
:100B10004FF41C51602001F055F906E000BF4FF47E
:100B20002741602001F04EF900BF00BF0121612084
:100B300001F048F900216A2001F044F900218020E9
:100B400001F040F90021812001F03CF900218220D0
:100B500001F038F90021832001F034F900218420CC
:100B600001F030F90021852001F02CF910219020AE
:100B700001F028F90021922001F024F903219320AB
:100B800001F020F94FF48871952001F01BF9002144
:100B9000972001F017F90021982001F013F941F294
:100BA0003801032001F00EF940F23711072001F05F
:100BB00009F94FF4807002490860002070BD000000
:100BC000100801400146024A1180002070470000D1
:100BD0003A000020014602480160002070470000F2
:100BE0003C0000200146024A1180002070470000AE
:100BF000380000202DE9F04704460D4616461F46F2
:100C00002648007860B3A019A0F10108E819A0F106
:100C10000109C4F30F21022001F0D4F8E1B203204E
:100C200001F0D0F8C8F30F21042001F0CBF808F050
:100C3000FF01052001F0C6F8C5F30F21062001F0E1
:100C4000C1F8E9B2072001F0BDF8C9F30F2108206F
:100C500001F0B8F809F0FF01092001F0B3F81BE03A
:100C6000A9B2502001F0AEF8E819401E81B251201F
:100C700001F0A8F8A1B2522001F0A4F8A019401E7A
:100C800081B2532001F09EF8A9B2202001F09AF819
:100C9000A1B2212001F096F8BDE8F08740000020C5
:100CA00010B500F001F810BD0CB5002001900090C7
:100CB0003348006840F480303149086000BF304854
:100CC000006800F4003000900198401C01900098EA
:100CD00018B90198B0F5A06FF1D12948006800F467
:100CE000003010B10120009001E000200090009839
:100CF000012843D12348006840F0100021490860D2
:100D00000846006820F0030008600846006840F0CC
:100D1000020008601A48406819494860084640685F
:100D200048600846406840F4806048600846406873
:100D300020F47C1048600846406840F4E8104860A1
:100D40000846006840F08070086000BF0C480068EA
:100D500000F000700028F9D00948406820F0030036
:100D6000074948600846406840F00200486000BFFC
:100D70000348406800F00C000828F9D10CBD0000C1
:100D8000001002400020024010B51348006840F0F7
:100D900001001149086008464068104908400E49A2
:100DA0004860084600680E4908400B49086008463C
:100DB000006820F4802008600846406820F4FE00A7
:100DC00048604FF41F008860FFF76AFF4FF0006033
:100DD0000449086010BD0000001002400000FFF848
:100DE000FFFFF6FE08ED00E010B50748008800F0B0
:100DF000010038B100F0A2FB0348008820F0010098
:100E00000149088010BD0000102C01404FF08040C7
:100E1000008A00F0010038B14FF08040008A20F0D5
:100E200001004FF0804108827047000010B507486C
:100E3000008800F0010038B100F05AFE0348008835
:100E400020F001000149088010BD0000103401406D
:100E50000FB4084B10B504A902AA039800F028F8B3
:100E6000044602A9002000F0CDF8204610BC5DF831
:100E700014FB000005100008002809DB00F01F0229
:100E8000012191404209920002F1E022C2F80011D2
:100E9000704702E008C8121F08C1002AFAD1704743
:100EA0007047002001E001C1121F002AFBD17047EA
:100EB0002DE9FF4F89B09B460446002506E0252812
:100EC0000BD05A460B999047641C6D1C2078002863
:100ED000F5D10DB02846BDE8F08F0027B8460122B5
:100EE000474900E0074314F8013F203B02FA03F0B2
:100EF0000842F7D120782E2819D114F8010F47F0B5
:100F000004072A280ED06FF02F022078A0F13001BC
:100F100009290CD808EB880102EB410100EB01081C
:100F2000641CF2E70A98641C50F8048B0A9020783D
:100F30000028CED0642808D0692806D075281ED095
:100F40005A460B9990476D1C58E00A994FF00A09D0
:100F500001C90A91002802DA40422D2102E0390538
:100F600004D52B218DF82010012103E0F90704D0CE
:100F70002021F7E78A4608AE0DE00021FAE70A993A
:100F80004FF00A0901C90A91F7E74946FFF7FEF851
:100F9000303106F8011D0028F7D1ADEB060000F155
:100FA0002009780701D44FF00108C84502DDA8EBFD
:100FB000090000E000208046002706E008A85A4605
:100FC000C05D0B9990476D1C7F1C5745F6DB04E014
:100FD00030205A460B9990476D1CB8F10001A8F1DA
:100FE0000108F5DC05E016F8010B5A460B9990470D
:100FF0006D1CB9F10001A9F10109F4DC641C65E77D
:10100000092801000A68531C0B601070704700002B
:10101000024A016811604168516070472800002051
:101020002DE9F84F0446DDE90A56274604EB020A8B
:101030008C4601EB030BA8460C9805EB000EB1465D
:101040000D9830440090774509DAC24507DD0098D5
:10105000844504DACB4502DD0120BDE8F88F00208D
:10106000FBE700007FB500241AE004EB84000E4982
:1010700001EB800508200D4A12680D4B1B68CDE975
:1010800001200093039008231A46D5E90001FFF7D9
:10109000C7FF20B100F004FD012006490860641C70
:1010A000032CE2DB7FBD00005C0000201C00002060
:1010B00018000020000000201FB50420114A12680B
:1010C000114B1B68CDE901200093039008231A46B9
:1010D0000E4801680E480068FFF7A2FF88B100F0D3
:1010E0002FFB0C480068401C0A49086000F0A2F978
:1010F00008480068032804D100F0D2FC012006490A
:1011000008601FBD34000020300000201C000020BB
:1011100018000020200000200400002010B500204E
:10112000FFF750FDFFF7DCF810BDF8B504460D469B
:1011300016461F460020FFF755FD4FF480603B46E2
:101140003246294600902046FFF7E8F8F8BD000037
:1011500000B51048806940F400600E49886106209F
:101160000D4908804FF62050091D08800A481C3898
:10117000008840F0010008491C39088000F09AFC02
:101180000648006840F000704FF0E021C1F800010F
:1011900000BD000000100240282C014000E100E0EA
:1011A0000A48C06940F001000849C8610620890466
:1011B000088547F6906088858006808940F00100A8
:1011C00088818810024908607047000000100240C2
:1011D00000E100E000B51048806940F400500E497D
:1011E0008861002000F094FB48F6A0400B4908807D
:1011F0000A482038008840F001000849203908805A
:1012000000F06CFC0648006840F480504FF0E0218C
:10121000C1F8040100BD0000001002402C34014060
:1012200004E100E00949096842F21072B1FBF2F1F1
:10123000484305E000BF00BF00BF00BF00BF00BFC4
:10124000011EA0F10100F5D170470000440000200C
:1012500000B585B0FFF762FF00F04AF84FF4784020
:10126000FFF7C0FC0DA264210846FFF75DF94FF6B9
:10127000FF70FFF7B7FC0C480CA102686846FFF747
:10128000E7FD6A468C211420FFF74EF900BF00F0FD
:1012900085FD0028FBD005B000BD000050657264DC
:1012A000752021212100000010000020566F74726B
:1012B000652073636F7265203A202564000000008A
:1012C00010B500F015F84FF47840FFF78BFC05A23D
:1012D00064210846FFF728F900BF00F05FFD0028F1
:1012E000FBD010BD4741474E452021212100000081
:1012F00008B50020FFF766FC4FF6FF70FFF772FCA1
:101300001448FFF767FC14A218210320FFF70CF91B
:101310001548FFF75FFC15A2E8210320FFF704F949
:10132000204808231A463C2100906420FFF72EF83D
:101330001D4808231A463C2100909120FFF726F80B
:101340001A4804231A463E210090BE20FFF71EF8DB
:1013500008BD0000B03B0008202020202020504184
:10136000432D4D414E000000A03B000841726E61CC
:101370007564204D617A7572696572202020202085
:101380002020202049555420413220202020202098
:1013900020202020204875676F205275737365697F
:1013A0006C000000D8200008581E0008D822000851
:1013B00010B50446FFF79CFF1548FFF70BFC94B9E6
:1013C0004FF47840FFF70EFC12A264210846FFF7A5
:1013D000ABF84FF6FF70FFF705FC10A28C216420DC
:1013E000FFF7A2F813E0012C11D14FF6FF70FFF7C1
:1013F000F9FB0CA264210846FFF796F84FF47840F9
:10140000FFF7F0FB09A28C216420FFF78DF810BDD7
:10141000B03B00083E20506C6179000020205175DF
:10142000697400002020506C617900003E205175E5
:1014300069740000F8B54FF49D74E2264FF6FF7012
:10144000FFF7D0FB0020FFF7BDFB3448FFF7C2FBDE
:1014500033A231462046FFF767F80A3C002509E031
:10146000304804231A46711C00902046FEF78EFF78
:10147000A41F6D1C2C4800688542F1DB002501E0AB
:10148000A41F6D1C28480068C0F10300A842F7DCC7
:10149000A41F26A231462046FFF746F80E3C2448FA
:1014A00008231A46314600902046FEF76FFF103C95
:1014B0001BA231462046FFF737F80A3C002509E019
:1014C000184804231A46711C00902046FEF75EFF60
:1014D000A41F6D1C174800688542F1DB002501E060
:1014E000A41F6D1C13480068C0F10300A842F7DC7C
:1014F000A41F0EA231462046FFF716F80E3C0E48F8
:1015000008231A46314600902046FEF73FFF002090
:10151000FFF768FB0020FFF755FBF8BDA03B000874
:101520005D000000D8220008200000205B000000C1
:10153000581E000824000020D820000810B500F034
:1015400083FBFFF78FFDFFF7B7FD10BD70B50446B5
:101550000D46FEF709FE291B90FBF1F201FB12007C
:10156000204470BD014800887047000024040040FA
:1015700010B5FFF70DF8FFF7D1FD10BD21498969BE
:1015800041F001011F4A91611146896941F0020150
:1015900091611146896941F0200191611146896983
:1015A00041F4807191611849496821F0706040F000
:1015B0008061154A51601146496821F4700040F479
:1015C000800151601146496821F0704040F080412F
:1015D00051600E49096821F4704040F480410B4A83
:1015E00011600949496821F00F0040F00401064AE2
:1015F00051601146096821F0704040F0804111604F
:10160000704700000010024000200140001401401B
:1016100010B500F009F810BD00B5FFF799FDFFF710
:10162000BFFDFFF7D7FD00BD0A48C06940F00200CA
:101630000849C8610020084908804FF6FF70091D5D
:10164000088005482838008840F001000249283900
:1016500008807047001002402804004002480068DB
:10166000012121EAD0007047081401400248806837
:10167000012121EA90307047002001400248806833
:10168000012121EA50307047002001400248806863
:10169000012121EAD01070470020014002488068F3
:1016A000012121EAD030704700200140FFF760FFA0
:1016B000FFF764FFFFF7B0FFFFF7AAFF35E0002058
:1016C000FFF776FE00BF00F0E7F80028FBD000F03F
:1016D00018F90020154908601549086001201549CE
:1016E00008600020144908600DE000F02BF900F0BC
:1016F000B3F900BF0E48006818B910480068002808
:10170000F8D000F0CDF90A48006818B90748006819
:101710000028EAD00648006810B1FFF799FD04E000
:101720000248006808B1FFF7CBFDC8E704000020BD
:10173000000000200C000020100000200800002005
:1017400008B504231A461248016812480068FFF7DA
:10175000ECFC4FF498711020FFF7F8FE0D4908607B
:10176000E0211020FFF7F2FE094908600A4804232F
:101770001A4600900846016806480068FEF706FE13
:101780004FF6FF70FFF72EFA0020FFF71BFA08BD97
:101790003400002030000020D82200084FF0D8404C
:1017A0004088704738B5002560E005EB8500314979
:1017B00001EB8004304904F10C0000F095F880B191
:1017C000626802F10801012308222068FEF78EFEFC
:1017D0002A48009008231A46D4E90001FEF7D6FDF6
:1017E00043E0274904F10C0000F07EF878B162680C
:1017F000511E012308222068FEF778FE2148009040
:1018000008231A46D4E90001FEF7C0FD2DE01E4969
:1018100004F10C0000F068F880B1D4E9002102F175
:10182000080008230122FEF761FE184800900823F3
:101830001A46D4E90001FEF7A9FD16E0144904F1A7
:101840000C0000F051F878B1D4E90021501E0823B3
:101850000122FEF74BFE0F48009008231A46D4E9F8
:101860000001FEF793FD00E038BD6D1C032D9CDBED
:1018700000BFF9E75C000020F822000858220008A9
:1018800000230008D8210008082300085821000878
:1018900010230008D820000810B5FFF7FFFE50B154
:1018A00010480078012806D100200E49087008462B
:1018B0000078FFF77DFDFFF7D1FE48B109480078B9
:1018C00030B901200749087008460078FFF770FD1D
:1018D000FFF7DCFE20B10348007808B9012010BDF5
:1018E0000020FCE714000020024610680B689842B4
:1018F00005D150684B68984201D101207047002003
:10190000FCE710B5FFF72EFE0446FEF737FC10BDCE
:1019100018B91F210A4A118010E0012803D11921AA
:10192000074A11800AE0022803D11321044A1180DA
:1019300004E0032802D10D21014A11807047000004
:101940002834014038B50024FFF762FE00F08AF821
:1019500000F056F8FEF7C4FC0020FFF733F9002032
:10196000FFF740F9214808231A46009020480168F3
:1019700020480068FEF70AFDFFF7E2FE00BF32E0F4
:101980004FF498711020FFF7E1FD04EB84011A4A2F
:1019900042F82100E0211020FFF7D8FD04EB84017C
:1019A000154A02EB8101486001210020FFF7CEFDBE
:1019B00008B1012000E0002004EB84010E4A02EB94
:1019C000810108720D4804EB84020B4B03EB820289
:1019D0000090516804EB840253F8220008231A4651
:1019E000FEF7D4FC641C032CCADB38BD581E00086B
:1019F0001C000020180000205C0000205821000876
:101A000010B5134800684EF20801084310490860F9
:101A10000F480C3800684EF2080108430C490C3995
:101A200008600C48406900F00F0446F260602043F3
:101A30000849486108468068C0F30B0444F44050EC
:101A400088602820FFF718FA0920FFF715FA10BD63
:101A50000C0401400000014010B5FFF7EBFC00F062
:101A60000BF810BD0348008840F0010001490880D0
:101A700070470000002C01400348008840F001003E
:101A800001490880704700000034014003480068A5
:101A900020F4807001490860704700000004014094
:101AA00010B500F007F800F00FF800F017F8FFF796
:101AB000EDFF10BD0348008820F0010001490880B7
:101AC00070470000002C01404FF08040008820F05B
:101AD00001004FF0804108807047000003480088F3
:101AE00020F00100014908807047000000340140E7
:101AF00030B589B0002598E005EB85004D4901EB34
:101B000080042068059060680690207AF0B14A4908
:101B10002068096888420CD04749206809688842D3
:101B200003DD2068401E20602EE02068401C2060FD
:101B30002AE0424960680968884203DD6068401E07
:101B4000606021E06068401C60601DE03B496068A7
:101B5000096888420CD0394960680968884203DD09
:101B60006068401E60600FE06068401C60600BE0D1
:101B7000314920680968884203DD2068401E2060E2
:101B800002E02068401C20602068002801DC002062
:101B900020602068B0F59C7F02DB40F237102060A7
:101BA0006068002801DC002060606068DA2801DBE2
:101BB000D9206060206807906068089005990798B0
:101BC000401AE06006990898411A216104201B4AD6
:101BD0001268194B1B68CDE901200093039008237C
:101BE0001A46D4E90001FFF71BFAD8B1FFF7A8FDA8
:101BF00013480068401C1249086008460068032822
:101C000006D101200F490860FFF74AFF09B030BD37
:101C10000B480068022802D10120FFF779FEFFF788
:101C200009FC01E0FFF7BEFD6D1C032DFFF664AF5C
:101C300000BFEBE75C0000203000002034000020F3
:101C4000240000200000002008B5494800684949E8
:101C5000096808444749086045484068464909689A
:101C600008444549086043480068002802DC002019
:101C7000404908603F480068B0F59C7F03DB40F2B4
:101C800037103C4908603C480068002802DC00200E
:101C90003949086038480068DA2802DBD92036491B
:101CA000086036493248FFF71FFE98B10123082229
:101CB0003148016808312F480068FEF717FC3048AA
:101CC00008231A4600902C4801682A480068FEF74D
:101CD0005DFB4BE02B492648FFF706FE98B12648EE
:101CE0000068411E0123082222480068FEF7FEFB1F
:101CF000254808231A4600901F4801681D480068BF
:101D0000FEF744FB32E021491948FFF7EDFD98B199
:101D10000823012218480168164800680830FEF7B9
:101D2000E5FB1B4808231A46009013480168114838
:101D30000068FEF72BFB19E016490D48FFF7D4FDAC
:101D400098B10C490968481E082301220A4909680C
:101D5000FEF7CCFB104808231A460090064801689D
:101D600004480068FEF712FB00E008BD00BFFCE776
:101D700028000020180000201C000020F822000885
:101D8000D81F000800230008581F00080823000877
:101D9000D81E000810230008581E0008024880685A
:101DA000012121EA10207047002001404FF0D84166
:101DB000088070474FF0D841488070474FF0D841B5
:101DC0004880704770B505460C462846FFF7EEFF81
:101DD0002046FFF7EFFF70BD00000000E0FFE0FFCE
:101DE000E0FFE0FF000000000000E0FFE0FFE0FF98
:101DF000E0FFE0FFE0FF0000E0FFE0FFE0FFE0FFCA
:101E0000E0FFE0FFE0FFE0FFE0FFE0FFE0FFE0FFDA
:101E1000E0FFE0FFE0FFE0FFE0FFE0FFE0FFE0FFCA
:101E2000E0FFE0FFE0FFE0FFE0FFE0FFE0FFE0FFBA
:101E3000E0FFE0FFE0FFE0FF0000E0FFE0FFE0FF89
:101E4000E0FFE0FFE0FF000000000000E0FFE0FF37
:101E5000E0FFE0FF0000000000000000E0FFE0FF06
:101E6000E0FFE0FF000000000000E0FFE0FFE0FF17
:101E7000E0FFE0FFE0FF0000E0FFE0FFE0FFE0FF49
:101E8000E0FFE0FF00000000E0FFE0FFE0FFE0FF18
:101E9000E0FF000000000000E0FFE0FFE0FFE0FFE7
:101EA000E0FF000000000000E0FFE0FFE0FFE0FFD7
:101EB000E0FFE0FF000000000000E0FFE0FFE0FFC7
:101EC000E0FFE0FFE0FF000000000000E0FFE0FFB7
:101ED000E0FFE0FF0000000000000000E0FFE0FF86
:101EE000E0FFE0FF000000000000E0FFE0FFE0FF97
:101EF000E0FFE0FFE0FF000000000000E0FFE0FF87
:101F0000E0FFE0FFE0FFE0FF000000000000E0FF76
:101F1000E0FFE0FFE0FFE0FF000000000000E0FF66
:101F2000E0FFE0FFE0FFE0FF00000000E0FFE0FF77
:101F3000E0FFE0FFE0FFE0FF0000E0FFE0FFE0FF88
:101F4000E0FFE0FFE0FF000000000000E0FFE0FF36
:101F5000E0FFE0FF000000000000000000000000C3
:101F600000000000000000000000E0FF0000000092
:101F700000000000E0FF0000E0FFE0FFE0FF0000E5
:101F80000000E0FFE0FFE0FFE0FFE0FFE0FFE0FF38
:101F9000E0FFE0FFE0FFE0FFE0FFE0FFE0FFE0FF49
:101FA000E0FFE0FFE0FFE0FFE0FFE0FFE0FFE0FF39
:101FB000E0FFE0FFE0FFE0FF0000E0FFE0FFE0FF08
:101FC000E0FFE0FFE0FF000000000000E0FFE0FFB6
:101FD000E0FFE0FF0000000000000000E0FFE0FF85
:101FE000E0FFE0FF000000000000E0FFE0FFE0FF96
:101FF000E0FFE0FFE0FF0000E0FFE0FFE0FFE0FFC8
:10200000E0FFE0FFE0FFE0FFE0FFE0FFE0FFE0FFD8
:10201000E0FFE0FFE0FFE0FFE0FFE0FFE0FFE0FFC8
:10202000E0FFE0FFE0FFE0FFE0FFE0FFE0FF000097
:102030000000E0FFE0FFE0FF0000E0FF0000000024
:1020400000000000E0FF00000000000000000000B1
:1020500000000000000000000000000000F800F890
:1020600000F800F800000000000000F800F800F898
:1020700000F800F800F8000000F800F800F800F898
:1020800000F800F800F800F800F800F800F800F890
:1020900000F800F800F800F800F800F800F800F880
:1020A00000F800F800F800F800F800F800F800F870
:1020B00000F800F800F800F8000000F800F800F858
:1020C00000F800F800F800000000000000F800F838
:1020D00000F800F8000000000000000000F800F820
:1020E00000F800F800000000000000F800F800F818
:1020F00000F800F800F8000000F800F800F800F818
:1021000000F800F80000000000F800F800F800F8FF
:1021100000F800000000000000F800F800F800F8E7
:1021200000F800000000000000F800F800F800F8D7
:1021300000F800F800000000000000F800F800F8C7
:1021400000F800F800F800000000000000F800F8B7
:1021500000F800F8000000000000000000F800F89F
:1021600000F800F800000000000000F800F800F897
:1021700000F800F800F800000000000000F800F887
:1021800000F800F800F800F800000000000000F877
:1021900000F800F800F800F800000000000000F867
:1021A00000F800F800F800F80000000000F800F85F
:1021B00000F800F800F800F8000000F800F800F857
:1021C00000F800F800F800000000000000F800F837
:1021D00000F800F80000000000000000000000000F
:1021E0000000000000000000000000F800000000F7
:1021F0000000000000F8000000F800F800F80000FF
:10220000000000F800F800F800F800F800F800F806
:1022100000F800F800F800F800F800F800F800F8FE
:1022200000F800F800F800F800F800F800F800F8EE
:1022300000F800F800F800F8000000F800F800F8D6
:1022400000F800F800F800000000000000F800F8B6
:1022500000F800F8000000000000000000F800F89E
:1022600000F800F800000000000000F800F800F896
:1022700000F800F800F8000000F800F800F800F896
:1022800000F800F800F800F800F800F800F800F88E
:1022900000F800F800F800F800F800F800F800F87E
:1022A00000F800F800F800F800F800F800F8000066
:1022B000000000F800F800F8000000F8000000003E
:1022C0000000000000F80000000000000000000016
:1022D00000000000000000000000FFFFFFFF000002
:1022E000FFFFFFFFFFFFFFFFFFFFFFFFFFFFFFFFFE
:1022F0000000FFFFFFFF000000000000FFFFFFFFE6
:102300000000000001000000FFFFFFFF00000000D0
:1023100001000000000000000000000000000000BC
:102320000000000000000000040404040400040095
:102330000A0A0A00000000000A0A1F0A1F0A0A000F
:10234000041E050E140F04000313080402191800DC
:1023500002050502150916000C0C0402000000001D
:10236000080402020204080002040808080402002B
:102370000004150E0E1504000004041F04040000E0
:10238000000000000C0C04020000001F0000000010
:1023900000000000000C0C00001008040201000006
:1023A0000E11131519110E000406040404040E0086
:1023B0000E11100E01011F001F10080C10110E004D
:1023C000080C0A091F0808001F010F1010110E0049
:1023D0001C02010F11110E001F1010080402010051
:1023E0000E11110E11110E000E11111E1008070012
:1023F00000000400040000000000040004040200C7
:10240000100804020408100000001F001F00000054
:1024100002040810080402000E11100C040004004D
:102420000E11151D0D011E00040A11111F111100BE
:102430000F11110F11110F000E11010101110E00EA
:102440000F11111111110F001F01010F01011F00C8
:102450001F01010F010101001E11010119111E00D0
:102460001111111F111111000E04040404040E00B7
:102470001C080808080906001109050305091100D0
:102480000101010101011F00111B1515151111009A
:1024900011111315191111000E11111111110E0046
:1024A0000F11110F010101000E1111111509160074
:1024B0000F11110F050911000E11010E10110E0060
:1024C0001F150404040404001111111111110E0050
:1024D00011111111110A04001111111515150A001D
:1024E00011110A040A11110011110A040404040054
:1024F0001F10080E02011F001E02020202021E002F
:1025000000010204081000001E10101010101E0020
:10251000040A1100000000000000000000001F007D
:102520000606040800000000000006080E091E0050
:1025300001010D1311130D0000000E1101110E0009
:10254000101016191119160000000E111F010E00AF
:102550000814040E0404040000000E191916100ECD
:1025600001010D13111111000400060404040E00F2
:10257000080008080809060001010905030509000B
:102580000604040404040E0000000B1515151500C4
:1025900000000D131111110000000E1111110E0099
:1025A00000000D13130D010100001619191610106B
:1025B00000000D130101010000001E010E100F00AC
:1025C00004041F040414080000001111111916005E
:1025D00000001111110A04000000111115150A0064
:1025E0000000110A040A1100000011111E10110E42
:1025F00000001F0804021F0008040402040408006D
:102600000404040004040400020404080404020096
:10261000021508000000000000000000000000009B
:1026200000000C12120C000000000C1E1E0C00001A
:1026300000001E12121E000000001E1E1E1E0000C2
:1026400000000C0C121E000000000C0C1E1E0000EE
:1026500000001E120C0C000000001E1E0C0C0000DE
:1026600000001816161800000000181E1E180000A2
:102670000000061A1A0600000000061E1E060000D2
:1026800000000C12120C000000000C1E1E0C0000BA
:1026900000001E12121E000000001E1E1E1E000062
:1026A000000000000000000000000000000000002A
:1026B000000000000000000000000000000000001A
:1026C000000000000000000000000000000000000A
:1026D0000000800180018001800180018001800173
:1026E00080018001800180018001800100000000E4
:1026F00080018001000000000000000000000000D8
:1027000000000000CC00CC00CC00CC00CC00CC0001
:1027100000000000000000000000000000000000B9
:1027200000000000000000000000000000000000A9
:10273000000000000000000000000000600C600CC1
:10274000600C30063006FE1FFE1F300638071803E7
:10275000FE1FFE1F180318038C018C018C01000062
:1027600000008000E003F80F9C0E8C1C8C188C007D
:102770009800F801E007800E801C8C188C189C18BB
:10278000B80CF00FE00380008000000000000000A3
:102790000000000000000E181B0C110C11061106A1
:1027A000110311039B018E01C038C06C604460446A
:1027B000304430441844186C0C380000000000000D
:1027C0000000E001F0033807180618063003F00196
:1027D000F000F8009C310E33061E061C061C063F56
:1027E000FC73F02100000000000000000000000069
:1027F000000000000C000C000C000C000C000C0091
:1028000000000000000000000000000000000000C8
:1028100000000000000000000000000000000000B8
:102820000000000200038001C000C00060006000E2
:102830003000300030003000300030003000300018
:1028400060006000C000C0008001000300020000C2
:10285000000020006000C000800180010003000330
:102860000006000600060006000600060006000638
:102870000003000380018001C00060002000000010
:10288000000000000000000000000000C000C000C8
:10289000D806F807E0013003380700000000000008
:1028A0000000000000000000000000000000000028
:1028B0000000000000000000000000008001800116
:1028C000800180018001FC3FFC3F8001800180018C
:1028D00080018001000000000000000000000000F6
:1028E00000000000000000000000000000000000E8
:1028F00000000000000000000000000000000000D8
:102900000000800180010001000180000000000043
:1029100000000000000000000000000000000000B7
:102920000000000000000000E007E00700000000D9
:102930000000000000000000000000000000000097
:102940000000000000000000000000000000000087
:102950000000000000000000000000000000000077
:102960000000C000C00000000000000000000000E7
:102970000000000C000C0006000600060003000327
:1029800000038003800180018001C000C000C000FE
:102990006000600000000000000000000000000077
:1029A0000000E003F007380E180C0C180C180C1877
:1029B0000C180C180C180C180C180C18180C380ED5
:1029C000F007E0030000000000000000000000002D
:1029D000000000018001C001F00198018801800120
:1029E00080018001800180018001800180018001DF
:1029F00080018001000000000000000000000000D5
:102A00000000E003F80F180C0C180C180018001840
:102A1000000C000600038001C000600030001800B8
:102A2000FC1FFC1F00000000000000000000000070
:102A30000000E001F807180E0C0C0C0C000C00064E
:102A4000C003C007000C001800180C180C18180C54
:102A5000F807E00300000000000000000000000094
:102A60000000000C000E000F000F800DC00C600C69
:102A7000600C300C180C0C0CFC3FFC3F000C000CE4
:102A8000000C000C0000000000000000000000002E
:102A90000000F80FF80F180018000C00EC03FC07FA
:102AA0001C0E001C0018001800180C181C0C180E26
:102AB000F807E00300000000000000000000000034
:102AC0000000C007F00F381C181818000C00CC03C9
:102AD000EC0F3C0E1C1C0C180C180C18181C380E93
:102AE000F007E0030000000000000000000000000C
:102AF0000000FC1FFC1F000C000600060003800302
:102B00008001C001C000E000600060007000300083
:102B10003000300000000000000000000000000055
:102B20000000E003F007380E180C180C180C3806DB
:102B3000F007F007180C0C180C180C180C18380CAF
:102B4000F80FE0030000000000000000000000009B
:102B50000000E003F007380E1C0C0C180C180C18C1
:102B60001C1C381EF81BE0190018000C000C1C0E71
:102B7000F807F00100000000000000000000000065
:102B80000000000000000000000000008001800143
:102B90000000000000000000000000000000000035
:102BA0008001800100000000000000000000000023
:102BB0000000000000000000000000008001800113
:102BC0000000000000000000000000000000000005
:102BD0008001800100010001800000000000000071
:102BE00000000000000000000000000000000000E5
:102BF0000010001C800FE003F8001800F800E0034C
:102C0000800F001C00100000000000000000000009
:102C100000000000000000000000000000000000B4
:102C2000F81F000000000000F81F00000000000076
:102C30000000000000000000000000000000000094
:102C40000000000000000000000000000000000084
:102C500008003800F001C007001F0018001FC0075F
:102C6000F001380008000000000000000000000033
:102C70000000E003F80F180C0C180C180018000CDA
:102C8000000600038001C000C000C000000000007A
:102C9000C000C000000000000000000000000000B4
:102CA00000000000E00718180420C229224A11443D
:102CB00009440944094409221113E20C024004208A
:102CC0001818E007000000000000000000000000ED
:102CD000000080038003C006C006C006600C600CC4
:102CE000301830183018F83FF83F1C700C600C603A
:102CF00006C006C000000000000000000000000048
:102D00000000FC03FC0F0C0C0C180C180C180C0C1D
:102D1000FC07FC0F0C180C300C300C300C300C186D
:102D2000FC1FFC0700000000000000000000000085
:102D30000000C007F01F38381C300C700660060019
:102D40000600060006000600060006600C701C3037
:102D5000F01FE0070000000000000000000000007D
:102D60000000FE03FE0F060E061806180630063099
:102D70000630063006300630063006180618060EF5
:102D8000FE0FFE0300000000000000000000000035
:102D90000000FC3FFC3F0C000C000C000C000C0081
:102DA000FC1FFC1F0C000C000C000C000C000C00A5
:102DB000FC3FFC3F0000000000000000000000009D
:102DC0000000F83FF83F180018001800180018001D
:102DD000F81FF81F18001800180018001800180035
:102DE00018001800000000000000000000000000B3
:102DF0000000E00FF83F3C780E6006E007C00300DB
:102E0000030003FE03FE03C007C006C00EC03CF073
:102E1000F83FE00F0000000000000000000000008C
:102E200000000C300C300C300C300C300C300C30FE
:102E3000FC3FFC3F0C300C300C300C300C300C30B4
:102E40000C300C300000000000000000000000000A
:102E500000008001800180018001800180018001EB
:102E6000800180018001800180018001800180015A
:102E70008001800100000000000000000000000050
:102E80000000000600060006000600060006000618
:102E90000006000600060006000618061806380799
:102EA000F003E0010000000000000000000000004E
:102EB000000006300618060C060606038601C6004A
:102EC00066007600DE008E0106030606060C061874
:102ED0000630066000000000000000000000000056
:102EE000000018001800180018001800180018003A
:102EF0001800180018001800180018001800180012
:102F0000F81FF81F00000000000000000000000093
:102F100000000EE01EF01EF01EF036D836D836D86F
:102F200036D866CC66CC66CCC6C6C6C6C6C6C6C6CD
:102F300086C386C3000000000000000000000000FF
:102F400000000C301C303C303C306C306C30CC30ED
:102F5000CC308C310C330C330C360C360C3C0C3C26
:102F60000C380C30000000000000000000000000E1
:102F70000000E007F81F1C380E70066003C003C095
:102F800003C003C003C003C003C006600E701C383A
:102F9000F81FE00700000000000000000000000033
:102FA0000000FC0FFC1F0C380C300C300C300C30C7
:102FB0000C18FC1FFC070C000C000C000C000C0093
:102FC0000C000C00000000000000000000000000E9
:102FD0000000E007F81F1C380E70066003E003C015
:102FE00003C003C003C003C007E006630E3F1C3CE0
:102FF000F83FE0F700C00000000000000000000003
:103000000000FE0FFE1F0638063006300630063878
:10301000FE1FFE0706030606060C061806180630F5
:103020000630066000000000000000000000000004
:103030000000E003F80F1C0C0C180C180C001C000E
:10304000F803E00F001E0038063006300E301C1C5E
:10305000F80FE00700000000000000000000000082
:103060000000FE7FFE7F80018001800180018001E1
:103070008001800180018001800180018001800148
:10308000800180010000000000000000000000003E
:1030900000000C300C300C300C300C300C300C308C
:1030A0000C300C300C300C300C300C300C3018184C
:1030B000F81FE00700000000000000000000000012
:1030C000000003600630063006300C180C180C188F
:1030D000180C180C380E30063006700760036003B9
:1030E000C001C0010000000000000000000000005E
:1030F00000000360C361C361C36166336633663336
:103100006633663366336C1B6C1B6C1B2C1A3C1EBF
:10311000380E380E00000000000000000000000023
:1031200000000FE00C7018303018700C600EC007F3
:1031300080038003C003E006700C301C18180C30AC
:103140000E6007E00000000000000000000000002A
:10315000000003C006600C301C383818300C6006C4
:10316000E007C003800180018001800180018001AF
:10317000800180010000000000000000000000004D
:103180000000FC7FFC7F006000300018000C00068F
:1031900000038001C0006000300018000C00060031
:1031A000FE7FFE7F00000000000000000000000025
:1031B0000000E003E0036000600060006000600069
:1031C00060006000600060006000600060006000FF
:1031D00060006000600060006000E003E003000049
:1031E000000030003000600060006000C000C000DF
:1031F000C000C001800180018001000300030003C2
:1032000000060006000000000000000000000000B2
:103210000000E003E00300030003000300030003D9
:103220000003000300030003000300030003000386
:1032300000030003000300030003E003E0030000B9
:1032400000000000C001C00160036003600330069D
:103250003006180C180C00000000000000000000F0
:10326000000000000000000000000000000000005E
:10327000000000000000000000000000000000004E
:10328000000000000000000000000000000000003E
:103290000000FFFFFFFF0000000000000000000032
:1032A00000000C000C000C000C000C000C000000D6
:1032B000000000000000000000000000000000000E
:1032C00000000000000000000000000000000000FE
:1032D000000000000000000000000000F003F807FC
:1032E0001C0C0C0C000FF00FF80C0C0C0C0C1C0F31
:1032F000F80FF018000000000000000000000000BF
:10330000000018001800180018001800D803F80F63
:10331000380C181818181818181818181818380C05
:10332000F80FD803000000000000000000000000BB
:10333000000000000000000000000000C003F007D3
:10334000300E180C1800180018001800180C300E59
:10335000F007C003000000000000000000000000B3
:10336000000000180018001800180018C01BF01FFB
:10337000301C181818181818181818181818301C95
:10338000F01FC01B00000000000000000000000053
:10339000000000000000000000000000C003F00F6B
:1033A000300C1818F81FF81F180018003818301CB7
:1033B000F00FC00700000000000000000000000047
:1033C0000000800FC00FC000C000C000F007F00771
:1033D000C000C000C000C000C000C000C000C000ED
:1033E000C000C0000000000000000000000000005D
:1033F000000000000000000000000000E00DF80FD9
:10340000180E0C0C0C0C0C0C0C0C0C0C0C0C180EE0
:10341000F80FE00D000C0C0C1C06F807F001000082
:10342000000018001800180018001800D807F80F3E
:10343000381C1818181818181818181818181818E8
:10344000181818180000000000000000000000001C
:103450000000C000C000000000000000C000C0006C
:10346000C000C000C000C000C000C000C000C0005C
:10347000C000C000000000000000000000000000CC
:103480000000C000C000000000000000C000C0003C
:10349000C000C000C000C000C000C000C000C0002C
:1034A000C000C000C000C000C000F80078000000EC
:1034B00000000C000C000C000C000C000C0C0C06A6
:1034C0000C038C01CC006C00FC009C018C030C03F1
:1034D0000C060C0C000000000000000000000000C2
:1034E0000000C000C000C000C000C000C000C0009C
:1034F000C000C000C000C000C000C000C000C000CC
:10350000C000C0000000000000000000000000003B
:103510000000000000000000000000007C3CFF7E76
:10352000C7E383C183C183C183C183C183C183C115
:1035300083C183C100000000000000000000000003
:103540000000000000000000000000009807F80FD5
:10355000381C1818181818181818181818181818C7
:1035600018181818000000000000000000000000FB
:10357000000000000000000000000000C003F00F89
:10358000300C181818181818181818181818300CA3
:10359000F00FC00300000000000000000000000069
:1035A000000000000000000000000000D803F80F39
:1035B000380C181818181818181818181818380C63
:1035C000F80FD803180018001800180018000000A1
:1035D000000000000000000000000000C01BF01F01
:1035E000301C181818181818181818181818301C23
:1035F000F01FC01B00180018001800180018000069
:10360000000000000000000000000000B007F00310
:1036100070003000300030003000300030003000EA
:10362000300030000000000000000000000000003A
:10363000000000000000000000000000E003F003B4
:10364000380E180C3800F003C007000C180C380EA8
:10365000F007E00300000000000000000000000090
:10366000000000008000C000C000C000F007F007AC
:10367000C000C000C000C000C000C000C000C0004A
:10368000C0078007000000000000000000000000EC
:1036900000000000000000000000000018181818CA
:1036A0001818181818181818181818181818381C76
:1036B000F01FE01900000000000000000000000002
:1036C0000000000000000000000000000C18180CB2
:1036D000180C180C300630063006600360036003D7
:1036E000C001C00100000000000000000000000058
:1036F000000000000000000000000000C141C141C6
:10370000C3616363636363633636363636361C1CC7
:103710001C1C1C1C00000000000000000000000039
:103720000000000000000000000000001C38381CF1
:10373000300C6006C003C003C003C0036006300C39
:10374000381C1C38000000000000000000000000D1
:1037500000000000000000000000000018303018D9
:1037600030187018600C600CE00CC006C0068003B6
:103770008003800380018001C001F0007000000020
:10378000000000000000000000000000FC1FFC1F03
:10379000000C000600038001C0006000300018002B
:1037A000FC1FFC1F000000000000000000000000E3
:1037B000000000038001C000C000C000C000C000C5
:1037C000C00060006000300060004000C000C00029
:1037D000C000C000C000C000800100030000000065
:1037E0000000800180018001800180018001800152
:1037F00080018001800180018001800180018001C1
:103800008001800180018001800180018001000031
:1038100000006000C000C0018001800180018001C3
:103820008001000300030006000300018001800105
:103830008001800180018001C00060000000000064
:103840000000000000000000000000000000000078
:10385000F010F81F080F000000000000000000003A
:103860000000000000000000000000000000000058
:103870000000000000000000000000000000000048
:103880000000000000000000000000000000000038
:103890000000000000000000000000000000000028
:1038A00000000000000000000000C003300C081001
:1038B0000420042002400240024002400240042052
:1038C00004200810300CC0030000000000000000BD
:1038D00000000000000000000000C003F00FF81F0F
:1038E000FC3FFC3FFE7FFE7FFE7FFE7FFE7FFC3FB6
:1038F000FC3FF81FF00FC0030000000000000000B4
:103900000000000000000000000000000000E007D0
:10391000F00F181818181818181818181818F00F89
:10392000E0070000000000000000000000000000B0
:103930000000000000000000000000000000E007A0
:10394000F00FF81FF81FF81FF81FF81FF81FF00FEF
:10395000E007000000000000000000000000000080
:103960000000000000000000000000000000000057
:1039700000000000000000008001C0036006300C61
:1039800018181818F81FF81F0000000000000000A9
:103990000000000000000000000000000000000027
:1039A00000000000000000008001C003E007F00FED
:1039B000F81FF81FF81FF81F0000000000000000AB
:1039C0000000000000000000F81FF81F1818181869
:1039D000300C6006C0038001000000000000000001
:1039E00000000000000000000000000000000000D7
:1039F0000000000000000000F81FF81FF81FF81F6B
:103A0000F00FE007C003800100000000000000008C
:103A100000000000000000000000000000000000A6
:103A20000000000000000000000000000000E001B5
:103A3000F00198018C01860186018C019801F0014A
:103A4000E001000000000000000000000000000095
:103A50000000000000000000000000000000E00185
:103A6000F001F801FC01FE01FE01FC01F801F0018A
:103A7000E001000000000000000000000000000065
:103A800000000000000000000000000000008007AF
:103A9000800F801980318061806180318019800FB2
:103AA000800700000000000000000000000000008F
:103AB000000000000000000000000000000080077F
:103AC000800F801F803F807F807F803F801F800F1E
:103AD000800700000000000000000000000000005F
:103AE0000000C0012002200240013006080808083A
:103AF0000808080808080808080820022002200210
:103B000020022002200220022002200220020000C7
:103B10000000C001E003E003C001F007D80DD80D9C
:103B2000D80DD80DD80DD80DD80D600360036003F3
:103B300060036003600360036003600360030000D0
:103B40000000C001200220024001300608080808D9
:103B50000808041002200220400120022002100464
:103B600008080808041004100420044000000000A5
:103B70000000C001E003E003C001F007D80DD80D3C
:103B8000D80DCC19C631C261C00160036003700654
:103B9000380C180C0C180C180C300C6000000000CD
:103BA000060008002000000070000000202300082C
:103BB000100018002000000070000000A02600087F
:103BC000E03B0008000000205C000000920E0008AE
:103BD0003C3C00085C0000203C040000A20E0008F1
:103BE00000000000000000000000000000000000D5
:103BF0000000000000000000A000000078000000AD
:103C000000000000000000000000000000000000B4
:103C100000000000000000000000FFFF00000000A6
:103C20000000000000A24A040000000000000000A4
:0C3C300001020304060708090000000060
:0400000508000145A9
:00000001FF
