:020000040800F2
:1000000098040020450100084D0100084F01000838
:1000100051010008530100085501000800000000CC
:100020000000000000000000000000005701000870
:1000300059010008000000005B0100085D01000894
:100040005F0100085F0100085F0100085F01000810
:100050005F0100085F0100085F0100085F01000800
:100060005F010008810200085F0100085F010008CD
:100070005F0100085F0100085F0100085F010008E0
:100080005F0100085F0100085F0100085F010008D0
:100090005F0100085F0100085F010008C502000859
:1000A0005F010008790D00085F0100085F0100088A
:1000B0009D0D00085F0100085F0100085F01000856
:1000C0005F0100085F0100085F0100085F01000890
:1000D0005F0100085F0100085F0100085F01000880
:1000E000DD0100085F0100085F0100085F010008F2
:1000F000BD0D00085F0100085F0100085F010008F6
:100100005F0100085F0100085F0100085F0100084F
:100110005F0100085F0100085F0100085F0100083F
:100120005F0100085F0100085F0100085F0100082F
:10013000DFF80CD000F040F800480047191600081E
:10014000980400200648804706480047FEE7FEE77F
:10015000FEE7FEE7FEE7FEE7FEE7FEE7FEE7FEE777
:10016000190D0008310100080649074A0868504384
:1001700043F23902104408604008704701490860A2
:1001800070470000580000206D4EC64130B50B4648
:10019000014600202022012409E021FA02F59D42B7
:1001A00005D303FA02F5491B04FA02F52844151E8B
:1001B000A2F10102F1DC30BD064C074D06E0E0681B
:1001C00040F0010394E8070098471034AC42F6D39E
:1001D000FFF7B2FF3C3B00085C3B000810B501F0A4
:1001E00013FA90B11F48006840F400401D490860B0
:1001F0001D491E4801F036FB18B11D4800F0D0FE25
:100200002EE01C4800F0CCFE2AE001F0E5F990B1A8
:100210001448006840F480401249086016491348A9
:1002200001F020FB18B1124800F0BAFE18E01348A4
:1002300000F0B6FE14E001F0D7F988B10948006873
:1002400040F40050074908600C49084801F00AFBD7
:1002500018B1074800F0A4FE02E0074800F0A0FE35
:1002600010BD0000140401407C220008280000207A
:1002700094220008742200088C22000884220008BE
:1002800010B501F0A1F988B10948006840F00800F4
:10029000074908600749084801F0E4FA18B107481F
:1002A00000F07EFE02E0064800F07AFE10BD00007D
:1002B0001404014074220008280000209422000841
:1002C0007C2200080548006800F4807028B10348CB
:1002D000006840F4807001490860704714040140D0
:1002E00010B5F0234FF4A0720021084600F04AFC3C
:1002F000222001F019FD00BF00BF002404E00648E1
:10030000008801F019FD641CB4F5963FF7D300BFD7
:1003100000BF002010BD00003A0000202DE9F05F72
:100320008046894614461F46DDF828A0D3463B4642
:1003300022464946404600F025FC222001F0F4FC0C
:1003400000BF00BF781E00FB04F50AE0002605E0B0
:10035000A9193BF8110001F0EFFC761CA642F7D377
:100360002D1B002DF2DA00BF00BF0020BDE8F09F7A
:100370002DE9F04781468A4616462E48006818B98E
:100380004FF0FF30BDE8F0872A4800684068361A11
:10039000284909680988C81DC11700EB51714FEA47
:1003A000E10824480068C16806FB08F0214A126889
:1003B000528800FB02151F48006843881D480068EA
:1003C00002885146484600F0DDFB222001F0ACFCDB
:1003D00000BF00BF002723E000241AE0297804F0C2
:1003E0000702114101F0010111B11349098801E02F
:1003F00012490988084601F09FFC04F0070007280D
:1004000006D10C4800680088401EA04200D06D1C38
:10041000641C084800680088A042DFD86D1C7F1C5F
:10042000044800684088B842D6D800BF00BF00200A
:10043000A8E700003C000020380000203A0000201F
:1004400070B505460E46144601232246314628461D
:1004500000F098FB222001F067FC00BF00BF03E022
:100460000548008801F068FC201EA4F10104F7D1C2
:1004700000BF00BF70BD0000380000202DE9F04132
:1004800005460E4617461C463A4631462846FFF7B3
:10049000D7FF31193A462846FFF7D2FF22463146A8
:1004A000284600F01FF8E8192246314600F01AF8F5
:1004B0000020BDE8F081000070B505460E461446E8
:1004C00009E014F8012B31462846FFF751FF044894
:1004D00000680088054420780028F2D170BD000033
:1004E0003C00002070B505460E4614462346012206
:1004F0003146284600F046FB222001F015FC00BFE3
:1005000000BF03E00548008801F016FC201EA4F19E
:100510000104F7D100BF00BF70BD0000380000200B
:1005200070B5FE48806940F2ED110843FB498861CF
:10053000FB48006800F0FF2444F0BB10F849086055
:10054000081D0068F74900EA0104F7482043F44910
:10055000091D0860F548006820F0704444F0304000
:10056000F24908604FF0BB30091D0860F048006890
:1005700020F00F0444F00B00ED490860ED4840689E
:10058000ED4900EA0104ED482043EA494860EC489F
:100590000068EB490860EA481038006820F00F0452
:1005A00044F00300E64910390860DC48406940F433
:1005B0008070DA49486140F205404107C86141F264
:1005C00011208861322000F0E3FD0026304601F062
:1005D000ABFB01F0A1F80546472D7DD10120D9499B
:1005E00008700021EA2001F0ABFB2021EB2001F094
:1005F000A7FB0C21EC2001F0A3FBC721ED2001F0AB
:100600009FFB3821E82001F09BFB1021E92001F03D
:1006100097FB0121F12001F093FB1021F22001F062
:100620008FFB0121402001F08BFB0021412001F0D4
:1006300087FB0021422001F083FB1021432001F0C1
:100640007FFB0E21442001F07BFB2421452001F09B
:1006500077FB0421462001F073FB5021472001F075
:100660006FFB0221482001F06BFB1321492001F0B0
:1006700067FB19214A2001F063FB19214B2001F08F
:100680005FFB16214C2001F05BFB1B21502001F089
:1006900057FB3121512001F053FB2F21522001F053
:1006A0004FFB3F21532001F04BFB3F21542001F031
:1006B00047FB3E21552001F043FB2F21562001F03E
:1006C0003FFB7B21572001F03BFB0921582001F023
:1006D00037FB0621592000E089E001F031FB0621BB
:1006E0005A2001F02DFB0C215B2001F029FB1D217C
:1006F0005C2001F025FBCC215D2001F021FB1B21BA
:10070000084601F01DFB01211A2001F019FB2F21E1
:10071000242001F015FB5721252001F011FB882131
:10072000232001F00DFB3621182001F009FB0121E7
:10073000192001F005FB0021012001F001FB8821B7
:100740001F2001F0FDFAC82000F022FD82211F20A9
:1007500001F0F6FA322000F01BFD92211F2001F07B
:10076000EFFA322000F014FDD2211F2001F0E8FA48
:10077000322000F00DFD5521172001F0E1FA002193
:10078000084601F0DDFA11212F2001F0D9FA0021ED
:10079000312001F0D5FA0021322001F0D1FA3821C0
:1007A000282001F0CDFAC82000F0F2FC3C212820DE
:1007B00001F0C6FAA821162001F0C2FA00210E208D
:1007C00001F0BEFA00210F2001F0BAFA0121102039
:1007D00001F0B6FA4021112001F0B2FA00211220F6
:1007E00001F0AEFA0021132001F0AAFAA9E10020DD
:1007F000544908704FF48071012001F0A1FA4FF4C0
:10080000E061022001F09CFA0021042001F098FA36
:1008100040F20721082001F093FA0021092001F09D
:100820008FFA00210A2001F08BFA00210C2001F040
:1008300087FA00210D2001F083FA00210F2001F03A
:100840007FFA0021102001F07BFA0021112001F035
:1008500077FA0021122001F073FA0021132001F031
:100860006FFAC82000F094FC41F2B021102001F092
:1008700067FA0721112001F063FA322000F088FCAA
:1008800040F2BD11122001F05BFA322000F080FC32
:100890004FF4A051132001F053FA0E21292001F04A
:1008A0004FFA322000F074FC0021202001F048FAB9
:1008B0000021212001F044FAA5F5A840083838B1FC
:1008C000A0F57C50183800287DD005287CD167E041
:1008D00040F60D31302001F033FA41F6231131207A
:1008E00001F02EFA41F62641322001F029FA42F2B7
:1008F0001C61332001F024FA42F21941342001F046
:100900001FFA40F60B51352001F01AFA41F20601A8
:10091000362001F015FA4FF4C26115E000100240D4
:100920000014014000F0FF00BB0B00BB00180140A9
:10093000001C014000200140FFF0F0FF000B0B0005
:100940001408014040000020372001F0F9F940F27E
:100950000671382001F0F4F94FF44171392001F0AB
:10096000EFF940F605613A2001F0EAF940F601613D
:100970003B2001F0E5F94FF487713C2001F0E0F9EC
:1009800040F20E513D2001F0DBF940F203413E20E0
:1009900001F0D6F940F207613F2001F0D1F961E0A2
:1009A0000021302001F0CCF940F20761312001F044
:1009B000C7F940F20531322001F0C2F9002135209B
:1009C00001F0BEF901E01DE01BE041F204613620B8
:1009D00001F0B6F94FF40171372001F0B1F90121AE
:1009E000382001F0ADF940F20771392001F0A8F983
:1009F00000213C2001F0A4F90F213D2001F0A0F9D5
:100A000030E000BF0621302001F09AF940F20111D8
:100A1000312001F095F90321322001F091F94FF4D2
:100A20008371352001F08CF940F60231362001F057
:100A300087F940F20231372001F082F940F2077164
:100A4000382001F07DF90721392001F079F94FF4C0
:100A5000C0613C2001F074F940F20B213D2001F00F
:100A60006FF900BF00BF0021502001F069F9EF21AC
:100A7000512001F065F90021522001F061F940F2A6
:100A80003F11532001F05CF9A5F5A840083830B1BA
:100A9000A0F57C50183850B1052807D100E000BF00
:100AA0004FF41C51602001F04BF906E000BF4FF4F9
:100AB0002741602001F044F900BF00BF01216120FF
:100AC00001F03EF900216A2001F03AF9002180206E
:100AD00001F036F90021812001F032F90021822055
:100AE00001F02EF90021832001F02AF90021842051
:100AF00001F026F90021852001F022F91021902033
:100B000001F01EF90021922001F01AF9032193202F
:100B100001F016F94FF48871952001F011F90021C8
:100B2000972001F00DF90021982001F009F941F218
:100B30003801032001F004F940F23711072001F0D9
:100B4000FFF84FF4807002490860002070BD00007B
:100B5000100801400146024A118000207047000041
:100B60003A00002001460248016000207047000062
:100B70003C0000200146024A11800020704700001E
:100B8000380000202DE9F04704460D4616461F4662
:100B90002648007860B3A019A0F10108E819A0F177
:100BA0000109C4F30F21022001F0CAF8E1B20320C9
:100BB00001F0C6F8C8F30F21042001F0C1F808F0D5
:100BC000FF01052001F0BCF8C5F30F21062001F05C
:100BD000B7F8E9B2072001F0B3F8C9F30F210820F4
:100BE00001F0AEF809F0FF01092001F0A9F81BE0BF
:100BF000A9B2502001F0A4F8E819401E81B251209A
:100C000001F09EF8A1B2522001F09AF8A019401EFE
:100C100081B2532001F094F8A9B2202001F090F89D
:100C2000A1B2212001F08CF8BDE8F087400000203F
:100C300010B500F001F810BD0CB500200190009037
:100C40003348006840F480303149086000BF3048C4
:100C5000006800F4003000900198401C019000985A
:100C600018B90198B0F5A06FF1D12948006800F4D7
:100C7000003010B10120009001E0002000900098A9
:100C8000012843D12348006840F010002149086042
:100C90000846006820F0030008600846006840F03D
:100CA000020008601A4840681949486008464068D0
:100CB00048600846406840F48060486008464068E4
:100CC00020F47C1048600846406840F4E810486012
:100CD0000846006840F08070086000BF0C4800685B
:100CE00000F000700028F9D00948406820F00300A7
:100CF000074948600846406840F00200486000BF6D
:100D00000348406800F00C000828F9D10CBD000031
:100D1000001002400020024010B51348006840F067
:100D200001001149086008464068104908400E4912
:100D30004860084600680E4908400B4908600846AC
:100D4000006820F4802008600846406820F4FE0017
:100D500048604FF41F008860FFF76AFF4FF00060A3
:100D60000449086010BD0000001002400000FFF8B8
:100D7000FFFFF6FE08ED00E010B50748008800F020
:100D8000010038B100F090FB0348008820F001001A
:100D90000149088010BD0000102C01404FF0804038
:100DA000008A00F0010038B14FF08040008A20F046
:100DB00001004FF0804108827047000010B50748DD
:100DC000008800F0010038B100F050FE03480088B0
:100DD00020F001000149088010BD000010340140DE
:100DE0000FB4084B10B504A902AA039800F028F824
:100DF000044602A9002000F0CDF8204610BC5DF8A2
:100E000014FB0000950F0008002809DB00F01F020A
:100E1000012191404209920002F1E022C2F8001142
:100E2000704702E008C8121F08C1002AFAD17047B3
:100E30007047002001E001C1121F002AFBD170475A
:100E40002DE9FF4F89B09B460446002506E0252882
:100E50000BD05A460B999047641C6D1C20780028D3
:100E6000F5D10DB02846BDE8F08F0027B846012225
:100E7000474900E0074314F8013F203B02FA03F022
:100E80000842F7D120782E2819D114F8010F47F025
:100E900004072A280ED06FF02F022078A0F130012D
:100EA00009290CD808EB880102EB410100EB01088D
:100EB000641CF2E70A98641C50F8048B0A902078AE
:100EC0000028CED0642808D0692806D075281ED006
:100ED0005A460B9990476D1C58E00A994FF00A0941
:100EE00001C90A91002802DA40422D2102E03905A9
:100EF00004D52B218DF82010012103E0F90704D03F
:100F00002021F7E78A4608AE0DE00021FAE70A99AA
:100F10004FF00A0901C90A91F7E74946FFF736F988
:100F2000303106F8011D0028F7D1ADEB060000F1C5
:100F30002009780701D44FF00108C84502DDA8EB6D
:100F4000090000E000208046002706E008A85A4675
:100F5000C05D0B9990476D1C7F1C5745F6DB04E084
:100F600030205A460B9990476D1CB8F10001A8F14A
:100F70000108F5DC05E016F8010B5A460B9990477D
:100F80006D1CB9F10001A9F10109F4DC641C65E7ED
:100F9000092801000A68531C0B601070704700009C
:100FA000024A0168116041685160704728000020C2
:100FB0002DE9F84F0446DDE90A56274604EB020AFC
:100FC0008C4601EB030BA8460C9805EB000EB146CE
:100FD0000D9830440090774509DAC24507DD009846
:100FE000844504DACB4502DD0120BDE8F88F0020FE
:100FF000FBE700007FB500241AE004EB84000E49F3
:1010000001EB800508200D4A12680D4B1B68CDE9E5
:1010100001200093039008231A46D5E90001FFF749
:10102000C7FF20B100F0FAFC012006490860641CEB
:10103000032CE2DB7FBD00005C0000201C000020D0
:1010400018000020000000201FB50420114A12687B
:10105000114B1B68CDE901200093039008231A4629
:101060000E4801680E480068FFF7A2FF88B100F043
:101070001DFB0C480068401C0A49086000F090F90C
:1010800008480068032804D100F0C8FC0120064984
:1010900008601FBD34000020300000201C0000202C
:1010A00018000020200000200400002010B50020BF
:1010B000FFF750FDFFF714F910BD000000B5104810
:1010C000806940F400600E49886106200D4908805F
:1010D0004FF62050091D08800A481C38008840F04F
:1010E000010008491C39088000F0A2FC064800688D
:1010F00040F000704FF0E021C1F8000100BD000099
:1011000000100240282C014000E100E00A48C069BC
:1011100040F001000849C86106208904088547F6A7
:10112000906088858006808940F001008881881061
:1011300002490860704700000010024000E100E032
:1011400000B51048806940F400500E4988610020C5
:1011500000F09CFB48F6A0400B4908800A48203864
:10116000008840F0010008492039088000F074FC34
:101170000648006840F480504FF0E021C1F80401B7
:1011800000BD0000001002402C34014004E100E0EA
:101190000949096842F21072B1FBF2F1484305E0D7
:1011A00000BF00BF00BF00BF00BF00BF011EA0F115
:1011B0000100F5D1704700004400002000B585B063
:1011C000FFF774FF00F04AF84FF47840FFF7D2FCC5
:1011D0000DA264210846FFF76FF94FF6FF70FFF785
:1011E000C9FC0C480CA102686846FFF7F9FD6A4685
:1011F0008C211420FFF760F900BF00F08DFD00285E
:10120000FBD005B000BD000050657264752021213F
:101210002100000010000020566F74726520736377
:101220006F7265203A2025640000000010B500F0C0
:1012300015F84FF47840FFF79DFC05A2642108469D
:10124000FFF73AF900BF00F067FD0028FBD010BDA2
:101250004741474E452021212100000008B50020CC
:10126000FFF778FC4FF6FF70FFF784FC1448FFF798
:1012700079FC14A218210320FFF71EF91548FFF787
:1012800071FC15A2E8210320FFF716F92048082376
:101290001A463C2100906420FFF740F81D480823BF
:1012A0001A463C2100909120FFF738F81A48042391
:1012B0001A463E210090BE20FFF730F808BD00001E
:1012C0002C3B00082020202020205041432D4D4160
:1012D0004E0000001C3B000841726E617564204D99
:1012E000617A7572696572202020202020202020DC
:1012F0004955542041322020202020202020202029
:10130000204875676F205275737365696C00000023
:1013100054200008D41D00085422000810B50446CB
:10132000FFF79CFF1548FFF71DFC94B94FF4784078
:10133000FFF720FC12A264210846FFF7BDF84FF624
:10134000FF70FFF717FC10A28C216420FFF7B4F8A0
:1013500013E0012C11D14FF6FF70FFF70BFC0CA22C
:1013600064210846FFF7A8F84FF47840FFF702FC25
:1013700009A28C216420FFF79FF810BD2C3B0008C8
:101380003E20506C61790000202051756974000086
:101390002020506C617900003E2051756974000076
:1013A000F8B54FF49D74E2264FF6FF70FFF7E2FBAD
:1013B0000020FFF7CFFB3448FFF7D4FB33A23146C0
:1013C0002046FFF779F80A3C002509E0304804235D
:1013D0001A46711C00902046FEF7A0FFA41F6D1C4A
:1013E0002C4800688542F1DB002501E0A41F6D1C3C
:1013F00028480068C0F10300A842F7DCA41F26A219
:1014000031462046FFF758F80E3C244808231A4678
:10141000314600902046FEF781FF103C1BA231466A
:101420002046FFF749F80A3C002509E01848042344
:101430001A46711C00902046FEF770FFA41F6D1C19
:10144000174800688542F1DB002501E0A41F6D1CF0
:1014500013480068C0F10300A842F7DCA41F0EA2E5
:1014600031462046FFF728F80E3C0E4808231A465E
:10147000314600902046FEF751FF0020FFF77AFB2F
:101480000020FFF767FBF8BD1C3B00085D00000073
:1014900054220008200000205B000000D41D00083A
:1014A000240000205420000810B500F08BFBFFF74B
:1014B000A1FDFFF7C9FD10BD70B504460D46FEF74E
:1014C00053FE291B90FBF1F201FB1200204470BD7A
:1014D00001480088704700002404004010B5FFF761
:1014E0001FF8FFF7E3FD10BD2149896941F00101B3
:1014F0001F4A91611146896941F0020191611146CB
:10150000896941F0200191611146896941F4807136
:1015100091611849496821F0706040F08061154A76
:1015200051601146496821F4700040F48001516017
:101530001146496821F0704040F0804151600E49E9
:10154000096821F4704040F480410B4A1160094958
:10155000496821F00F0040F00401064A516011462D
:10156000096821F0704040F0804111607047000030
:1015700000100240002001400014014010B500F0AE
:1015800009F810BD00B5FFF799FDFFF7BFFDFFF7A4
:10159000D7FD00BD0A48C06940F002000849C86193
:1015A0000020084908804FF6FF70091D0880054893
:1015B0002838008840F00100024928390880704727
:1015C000001002402804004002480068012121EA7E
:1015D000D00070470814014002488068012121EAC8
:1015E000903070470020014002488068012121EAC4
:1015F000503070470020014002488068012121EAF4
:10160000D01070470020014002488068012121EA83
:10161000D030704700200140FFF760FFFFF764FF04
:10162000FFF7B0FFFFF7AAFF35E00020FFF776FED7
:1016300000BF00F0EFF80028FBD000F020F90020F8
:101640001549086015490860012015490860002007
:10165000144908600DE000F033F900F0BBF900BF59
:101660000E48006818B9104800680028F8D000F04B
:10167000D5F90A48006818B9074800680028EAD078
:101680000648006810B1FFF799FD04E002480068C1
:1016900008B1FFF7CBFDC8E70400002000000020E0
:1016A0000C000020100000200800002008B50020D9
:1016B000FFF760FA0020FFF74DFA144A1268911EF6
:1016C000134A1268901E08231A46FEF7D7FE4FF4FD
:1016D00098711020FFF7F0FE0D490860E0211020FE
:1016E000FFF7EAFE094908600A4804231A460090F9
:1016F0000846016806480068FEF710FE4FF6FF70C6
:10170000FFF738FA0020FFF725FA08BD3400002063
:1017100030000020542200084FF0D8404088704725
:1017200038B5002560E005EB8500314901EB800408
:10173000304904F10C0000F095F880B1626802F1C4
:101740000801012308222068FEF798FE2A4800902D
:1017500008231A46D4E90001FEF7E0FD43E02749DB
:1017600004F10C0000F07EF878B16268511E01238C
:1017700008222068FEF782FE2148009008231A46BE
:10178000D4E90001FEF7CAFD2DE01E4904F10C006A
:1017900000F068F880B1D4E9002102F108000823C4
:1017A0000122FEF76BFE1848009008231A46D4E980
:1017B0000001FEF7B3FD16E0144904F10C0000F03F
:1017C00051F878B1D4E90021501E08230122FEF718
:1017D00055FE0F48009008231A46D4E90001FEF791
:1017E0009DFD00E038BD6D1C032D9CDB00BFF9E7BB
:1017F0005C00002074220008D42100087C2200082C
:101800005421000884220008D42000088C220008FB
:101810005420000810B5FFF7F7FE50B110480078CB
:10182000012806D100200E49087008460078FFF70D
:1018300075FDFFF7C9FE48B10948007830B90120AD
:101840000749087008460078FFF768FDFFF7D4FEE7
:1018500020B10348007808B9012010BD0020FCE742
:1018600014000020024610680B68984205D15068A9
:101870004B68984201D1012070470020FCE710B569
:10188000FFF726FE0446FEF779FC10BD18B91F21AC
:101890000A4A118010E0012803D11921074A11805A
:1018A0000AE0022803D11321044A118004E003282E
:1018B00002D10D21014A11807047000028340140F7
:1018C00038B50024FFF75AFE00F08AF800F056F809
:1018D000FEF706FD0020FFF73DF90020FFF74AF96B
:1018E000214808231A4600902048016820480068D3
:1018F000FEF714FDFFF7DAFE00BF32E04FF49871F7
:101900001020FFF7D9FD04EB84011A4A42F82100A8
:10191000E0211020FFF7D0FD04EB8401154A02EB13
:101920008101486001210020FFF7C6FD08B10120B8
:1019300000E0002004EB84010E4A02EB81010872F2
:101940000D4804EB84020B4B03EB820200905168BC
:1019500004EB840253F8220008231A46FEF7DEFC4B
:10196000641C032CCADB38BDD41D00081C000020F9
:10197000180000205C000020D420000810B5134897
:1019800000684EF208010843104908600F480C38FF
:1019900000684EF2080108430C490C3908600C48F5
:1019A000406900F00F0446F2606020430849486136
:1019B00008468068C0F30B0444F440508860282037
:1019C000FFF722FA0920FFF71FFA10BD0C040140AF
:1019D0000000014010B5FFF7E3FC00F00BF810BD6C
:1019E0000348008840F0010001490880704700006A
:1019F000002C01400348008840F0010001490880A4
:101A000070470000003401400348006820F48070F3
:101A100001490860704700000004014010B500F063
:101A200007F800F00FF800F017F8FFF7EDFF10BD12
:101A30000348008820F00100014908807047000039
:101A4000002C01404FF08040008820F001004FF052
:101A500080410880704700000348008820F00100A2
:101A600001490880704700000034014030B589B05A
:101A7000002598E005EB85004D4901EB80042068C6
:101A8000059060680690207AF0B14A49206809689C
:101A900088420CD0474920680968884203DD2068E5
:101AA000401E20602EE02068401C20602AE0424951
:101AB00060680968884203DD6068401E606021E05C
:101AC0006068401C60601DE03B49606809688842AE
:101AD0000CD0394960680968884203DD6068401E9F
:101AE00060600FE06068401C60600BE03149206876
:101AF0000968884203DD2068401E206002E02068FB
:101B0000401C20602068002801DC00202060206844
:101B1000B0F59C7F02DB40F237102060606800283F
:101B200001DC002060606068DA2801DBD920606099
:101B3000206807906068089005990798401AE0604F
:101B400006990898411A216104201B4A1268194B12
:101B50001B68CDE901200093039008231A46D4E9BD
:101B60000001FFF725FAD8B1FFF7A0FD1348006880
:101B7000401C1249086008460068032806D101206D
:101B80000F490860FFF74AFF09B030BD0B480068F5
:101B9000022802D10120FFF779FEFFF701FC01E0E6
:101BA000FFF7BEFD6D1C032DFFF664AF00BFEBE732
:101BB0005C000020300000203400002024000020C1
:101BC0000000002008B549480068494909680844F0
:101BD00047490860454840684649096808444549FE
:101BE000086043480068002802DC00204049086083
:101BF0003F480068B0F59C7F03DB40F237103C495A
:101C000008603C480068002802DC00203949086070
:101C100038480068DA2802DBD9203649086036499E
:101C20003248FFF71FFE98B10123082231480168AE
:101C300008312F480068FEF721FC304808231A4677
:101C400000902C4801682A480068FEF767FB4BE0CB
:101C50002B492648FFF706FE98B126480068411E2A
:101C60000123082222480068FEF708FC25480823C3
:101C70001A4600901F4801681D480068FEF74EFB99
:101C800032E021491948FFF7EDFD98B10823012200
:101C900018480168164800680830FEF7EFFB1B483B
:101CA00008231A4600901348016811480068FEF79F
:101CB00035FB19E016490D48FFF7D4FD98B10C49E2
:101CC0000968481E082301220A490968FEF7D6FB65
:101CD000104808231A460090064801680448006826
:101CE000FEF71CFB00E008BD00BFFCE72800002059
:101CF000180000201C00002074220008541F000857
:101D00007C220008D41E000884220008541E00080B
:101D10008C220008D41D000802488068012121EAB5
:101D200010207047002001404FF0D84108807047D4
:101D30004FF0D841488070474FF0D84148807047F5
:101D400070B505460C462846FFF7EEFF2046FFF724
:101D5000EFFF70BD00000000E0FFE0FFE0FFE0FFEC
:101D6000000000000000E0FFE0FFE0FFE0FFE0FF18
:101D7000E0FF0000E0FFE0FFE0FFE0FFE0FFE0FF4A
:101D8000E0FFE0FFE0FFE0FFE0FFE0FFE0FFE0FF5B
:101D9000E0FFE0FFE0FFE0FFE0FFE0FFE0FFE0FF4B
:101DA000E0FFE0FFE0FFE0FFE0FFE0FFE0FFE0FF3B
:101DB000E0FFE0FF0000E0FFE0FFE0FFE0FFE0FF0A
:101DC000E0FF000000000000E0FFE0FFE0FFE0FFB8
:101DD0000000000000000000E0FFE0FFE0FFE0FF87
:101DE000000000000000E0FFE0FFE0FFE0FFE0FF98
:101DF000E0FF0000E0FFE0FFE0FFE0FFE0FFE0FFCA
:101E000000000000E0FFE0FFE0FFE0FFE0FF000077
:101E100000000000E0FFE0FFE0FFE0FFE0FF000067
:101E200000000000E0FFE0FFE0FFE0FFE0FFE0FF78
:101E3000000000000000E0FFE0FFE0FFE0FFE0FF47
:101E4000E0FF000000000000E0FFE0FFE0FFE0FF37
:101E50000000000000000000E0FFE0FFE0FFE0FF06
:101E6000000000000000E0FFE0FFE0FFE0FFE0FF17
:101E7000E0FF000000000000E0FFE0FFE0FFE0FF07
:101E8000E0FFE0FF000000000000E0FFE0FFE0FFF7
:101E9000E0FFE0FF000000000000E0FFE0FFE0FFE7
:101EA000E0FFE0FF00000000E0FFE0FFE0FFE0FFF8
:101EB000E0FFE0FF0000E0FFE0FFE0FFE0FFE0FF09
:101EC000E0FF000000000000E0FFE0FFE0FFE0FFB7
:101ED0000000000000000000000000000000000002
:101EE000000000000000E0FF000000000000000013
:101EF000E0FF0000E0FFE0FFE0FF00000000E0FF87
:101F0000E0FFE0FFE0FFE0FFE0FFE0FFE0FFE0FFD9
:101F1000E0FFE0FFE0FFE0FFE0FFE0FFE0FFE0FFC9
:101F2000E0FFE0FFE0FFE0FFE0FFE0FFE0FFE0FFB9
:101F3000E0FFE0FF0000E0FFE0FFE0FFE0FFE0FF88
:101F4000E0FF000000000000E0FFE0FFE0FFE0FF36
:101F50000000000000000000E0FFE0FFE0FFE0FF05
:101F6000000000000000E0FFE0FFE0FFE0FFE0FF16
:101F7000E0FF0000E0FFE0FFE0FFE0FFE0FFE0FF48
:101F8000E0FFE0FFE0FFE0FFE0FFE0FFE0FFE0FF59
:101F9000E0FFE0FFE0FFE0FFE0FFE0FFE0FFE0FF49
:101FA000E0FFE0FFE0FFE0FFE0FF00000000E0FFF7
:101FB000E0FFE0FF0000E0FF000000000000000084
:101FC000E0FF000000000000000000000000000032
:101FD000000000000000000000F800F800F800F821
:101FE00000000000000000F800F800F800F800F819
:101FF00000F8000000F800F800F800F800F800F819
:1020000000F800F800F800F800F800F800F800F810
:1020100000F800F800F800F800F800F800F800F800
:1020200000F800F800F800F800F800F800F800F8F0
:1020300000F800F8000000F800F800F800F800F8D8
:1020400000F800000000000000F800F800F800F8B8
:10205000000000000000000000F800F800F800F8A0
:1020600000000000000000F800F800F800F800F898
:1020700000F8000000F800F800F800F800F800F898
:102080000000000000F800F800F800F800F8000078
:102090000000000000F800F800F800F800F8000068
:1020A0000000000000F800F800F800F800F800F860
:1020B00000000000000000F800F800F800F800F848
:1020C00000F800000000000000F800F800F800F838
:1020D000000000000000000000F800F800F800F820
:1020E00000000000000000F800F800F800F800F818
:1020F00000F800000000000000F800F800F800F808
:1021000000F800F800000000000000F800F800F8F7
:1021100000F800F800000000000000F800F800F8E7
:1021200000F800F80000000000F800F800F800F8DF
:1021300000F800F8000000F800F800F800F800F8D7
:1021400000F800000000000000F800F800F800F8B7
:10215000000000000000000000000000000000007F
:1021600000000000000000F8000000000000000077
:1021700000F8000000F800F800F80000000000F887
:1021800000F800F800F800F800F800F800F800F88F
:1021900000F800F800F800F800F800F800F800F87F
:1021A00000F800F800F800F800F800F800F800F86F
:1021B00000F800F8000000F800F800F800F800F857
:1021C00000F800000000000000F800F800F800F837
:1021D000000000000000000000F800F800F800F81F
:1021E00000000000000000F800F800F800F800F817
:1021F00000F8000000F800F800F800F800F800F817
:1022000000F800F800F800F800F800F800F800F80E
:1022100000F800F800F800F800F800F800F800F8FE
:1022200000F800F800F800F800F80000000000F8DE
:1022300000F800F8000000F80000000000000000B6
:1022400000F8000000000000000000000000000096
:10225000000000000000FFFFFFFF0000FFFFFFFF86
:10226000FFFFFFFFFFFFFFFFFFFFFFFF0000FFFF7C
:10227000FFFF000000000000FFFFFFFF0000000064
:1022800001000000FFFFFFFF000000000100000050
:10229000000000000000000000000000000000003E
:1022A0000000000004040404040004000A0A0A00F8
:1022B000000000000A0A1F0A1F0A0A00041E050E79
:1022C000140F040003130804021918000205050284
:1022D000150916000C0C040200000000080402029C
:1022E0000204080002040808080402000004150E95
:1022F0000E1504000004041F040400000000000088
:102300000C0C04020000001F000000000000000090
:10231000000C0C0000100804020100000E1113153F
:1023200019110E000406040404040E000E11100E10
:1023300001011F001F10080C10110E00080C0A09E3
:102340001F0808001F010F1010110E001C02010FC2
:1023500011110E001F101008040201000E11110EC1
:1023600011110E000E11111E1008070000000400CC
:10237000040000000000040004040200100804022D
:102380000408100000001F001F00000002040810D5
:10239000080402000E11100C040004000E11151D9B
:1023A0000D011E00040A11111F1111000F11110F50
:1023B00011110F000E11010101110E000F11111169
:1023C00011110F001F01010F01011F001F01010F5B
:1023D000010101001E11010119111E001111111F2F
:1023E000111111000E04040404040E001C08080856
:1023F0000809060011090503050911000101010181
:1024000001011F00111B15151511110011111315D4
:10241000191111000E11111111110E000F11110FD0
:10242000010101000E111111150916000F11110FF4
:10243000050911000E11010E10110E001F150404E4
:10244000040404001111111111110E0011111111C8
:10245000110A04001111111515150A0011110A04B1
:102460000A11110011110A04040404001F10080EBF
:1024700002011F001E02020202021E0000010204ED
:10248000081000001E10101010101E00040A110089
:10249000000000000000000000001F000606040805
:1024A00000000000000006080E091E0001010D13C7
:1024B00011130D0000000E1101110E00101016195D
:1024C0001119160000000E111F010E000814040E51
:1024D0000404040000000E191916100E01010D135A
:1024E000111111000400060404040E00080008087D
:1024F0000809060001010905030509000604040492
:1025000004040E0000000B151515150000000D1336
:102510001111110000000E1111110E0000000D1319
:10252000130D0101000016191916101000000D13EB
:102530000101010000001E010E100F0004041F0421
:1025400004140800000011111119160000001111E7
:10255000110A04000000111115150A000000110AEB
:10256000040A1100000011111E10110E00001F08B6
:1025700004021F0008040402040408000404040008
:102580000404040002040408040402000215080004
:1025900000000000000000000000000000000C121D
:1025A000120C000000000C1E1E0C000000001E1289
:1025B000121E000000001E1E1E1E000000000C0C5B
:1025C000121E000000000C0C1E1E000000001E1257
:1025D0000C0C000000001E1E0C0C00000000181661
:1025E000161800000000181E1E1800000000061A31
:1025F0001A0600000000061E1E06000000000C1255
:10260000120C000000000C1E1E0C000000001E1228
:10261000121E000000001E1E1E1E00000000000012
:1026200000000000000000000000000000000000AA
:10263000000000000000000000000000000000009A
:102640000000000000000000000000000000800109
:102650008001800180018001800180018001800172
:102660008001800180018001000000008001800164
:10267000000000000000000000000000000000005A
:10268000CC00CC00CC00CC00CC00CC000000000082
:10269000000000000000000000000000000000003A
:1026A000000000000000000000000000000000002A
:1026B0000000000000000000600C600C600C3006A0
:1026C0003006FE1FFE1F300638071803FE1FFE1FD0
:1026D000180318038C018C018C010000000080009D
:1026E000E003F80F9C0E8C1C8C188C009800F801ED
:1026F000E007800E801C8C188C189C18B80CF00F0A
:10270000E0038000800000000000000000000000E6
:1027100000000E181B0C110C1106110611031103F9
:102720009B018E01C038C06C60446044304430442A
:102730001844186C0C380000000000000000E00194
:10274000F0033807180618063003F001F000F8000F
:102750009C310E33061E061C061C063FFC73F0213E
:102760000000000000000000000000000000000069
:102770000C000C000C000C000C000C000000000011
:102780000000000000000000000000000000000049
:102790000000000000000000000000000000000237
:1027A00000038001C000C000600060003000300005
:1027B0003000300030003000300030006000600039
:1027C000C000C000800100030002000000002000E3
:1027D0006000C000800180010003000300060006C5
:1027E00000060006000600060006000600030003BF
:1027F00080018001C0006000200000000000000097
:102800000000000000000000C000C000D806F8076B
:10281000E001300338070000000000000000000065
:1028200000000000000000000000000000000000A8
:102830000000000000000000800180018001800194
:102840008001FC3FFC3F800180018001800180010C
:102850000000000000000000000000000000000078
:102860000000000000000000000000000000000068
:1028700000000000000000000000000000008001D7
:102880008001000100018000000000000000000045
:102890000000000000000000000000000000000038
:1028A00000000000E007E00700000000000000005A
:1028B0000000000000000000000000000000000018
:1028C0000000000000000000000000000000000008
:1028D0000000000000000000000000000000C00038
:1028E000C000000000000000000000000000000C1C
:1028F000000C00060006000600030003000380032E
:10290000800180018001C000C000C0006000600044
:102910000000000000000000000000000000E003D4
:10292000F007380E180C0C180C180C180C180C1892
:102930000C180C180C180C18180C380EF007E003C3
:102940000000000000000000000000000000000186
:102950008001C001F001980188018001800180019F
:10296000800180018001800180018001800180015F
:102970000000000000000000000000000000E00374
:10298000F80F180C0C180C1800180018000C000692
:1029900000038001C000600030001800FC1FFC1F15
:1029A0000000000000000000000000000000E00146
:1029B000F807180E0C0C0C0C000C0006C003C00726
:1029C000000C001800180C180C18180CF807E0037D
:1029D0000000000000000000000000000000000CEB
:1029E000000E000F000F800DC00C600C600C300C4E
:1029F000180C0C0CFC3FFC3F000C000C000C000CF5
:102A00000000000000000000000000000000F80FBF
:102A1000F80F180018000C00EC03FC071C0E001C3B
:102A20000018001800180C181C0C180EF807E0030A
:102A30000000000000000000000000000000C007CF
:102A4000F00F381C181818000C00CC03EC0F3C0ECB
:102A50001C1C0C180C180C18181C380EF007E0037E
:102A60000000000000000000000000000000FC1F4B
:102A7000FC1F000C00060006000380038001C0015B
:102A8000C000E000600060007000300030003000E6
:102A90000000000000000000000000000000E00353
:102AA000F007380E180C180C180C3806F007F00751
:102AB000180C0C180C180C180C18380CF80FE00334
:102AC0000000000000000000000000000000E00323
:102AD000F007380E1C0C0C180C180C181C1C381E97
:102AE000F81BE0190018000C000C1C0EF807F00190
:102AF00000000000000000000000000000000000D6
:102B000000000000000000008001800100000000C3
:102B100000000000000000000000000080018001B3
:102B200000000000000000000000000000000000A5
:102B30000000000000000000800180010000000093
:102B40000000000000000000000000008001800183
:102B500000010001800000000000000000000000F3
:102B60000000000000000000000000000010001C39
:102B7000800FE003F8001800F800E003800F001C4D
:102B80000010000000000000000000000000000035
:102B9000000000000000000000000000F81F00001E
:102BA00000000000F81F000000000000000000000E
:102BB0000000000000000000000000000000000015
:102BC00000000000000000000000000008003800C5
:102BD000F001C007001F0018001FC007F0013800F7
:102BE0000800000000000000000000000000E003FA
:102BF000F80F180C0C180C180018000C0006000335
:102C00008001C000C000C00000000000C000C00083
:102C100000000000000000000000000000000000B4
:102C2000E00718180420C229224A11440944094423
:102C3000094409221113E20C024004201818E0078D
:102C40000000000000000000000000000000800301
:102C50008003C006C006C006600C600C3018301837
:102C60003018F83FF83F1C700C600C6006C006C0BE
:102C70000000000000000000000000000000FC0355
:102C8000FC0F0C0C0C180C180C180C0CFC07FC0F8F
:102C90000C180C300C300C300C300C18FC1FFC07DE
:102CA0000000000000000000000000000000C0075D
:102CB000F01F38381C300C70066006000600060055
:102CC00006000600060006600C701C30F01FE007CE
:102CD0000000000000000000000000000000FE03F3
:102CE000FE0F060E061806180630063006300630AF
:102CF00006300630063006180618060EFE0FFE03D4
:102D00000000000000000000000000000000FC3F88
:102D1000FC3F0C000C000C000C000C00FC1FFC1F06
:102D20000C000C000C000C000C000C00FC3FFC3FE5
:102D30000000000000000000000000000000F83F5C
:102D4000F83F18001800180018001800F81FF81FA6
:102D500018001800180018001800180018001800B3
:102D60000000000000000000000000000000E00F74
:102D7000F83F3C780E6006E007C00300030003FE46
:102D800003FE03C007C006C00EC03CF0F83FE00FD2
:102D900000000000000000000000000000000C30F7
:102DA0000C300C300C300C300C300C30FC3FFC3F45
:102DB0000C300C300C300C300C300C300C300C3033
:102DC0000000000000000000000000000000800182
:102DD00080018001800180018001800180018001EB
:102DE00080018001800180018001800180018001DB
:102DF00000000000000000000000000000000006CD
:102E00000006000600060006000600060006000692
:102E1000000600060006180618063807F003E00151
:102E2000000000000000000000000000000006306C
:102E30000618060C060606038601C6006600760024
:102E4000DE008E0106030606060C06180630066034
:102E5000000000000000000000000000000018005A
:102E600018001800180018001800180018001800A2
:102E7000180018001800180018001800F81FF81F94
:102E800000000000000000000000000000000EE054
:102E90001EF01EF01EF036D836D836D836D866CC9E
:102EA00066CC66CCC6C6C6C6C6C6C6C686C386C3FC
:102EB00000000000000000000000000000000C30D6
:102EC0001C303C303C306C306C30CC30CC308C31F1
:102ED0000C330C330C360C360C3C0C3C0C380C30E0
:102EE0000000000000000000000000000000E007FB
:102EF000F81F1C380E70066003C003C003C003C077
:102F000003C003C003C006600E701C38F81FE00742
:102F10000000000000000000000000000000FC0FA6
:102F2000FC1F0C380C300C300C300C300C18FC1F13
:102F3000FC070C000C000C000C000C000C000C003A
:102F40000000000000000000000000000000E0079A
:102F5000F81F1C380E70066003E003C003C003C0F6
:102F600003C003C007E006630E3F1C3CF83FE0F7D8
:102F700000C0000000000000000000000000FE0F84
:102F8000FE1F06380630063006300638FE1FFE07E4
:102F900006030606060C06180618063006300660FC
:102FA0000000000000000000000000000000E0033E
:102FB000F80F1C0C0C180C180C001C00F803E00F88
:102FC000001E0038063006300E301C1CF80FE007DB
:102FD0000000000000000000000000000000FE7F74
:102FE000FE7F8001800180018001800180018001DD
:102FF00080018001800180018001800180018001C9
:1030000000000000000000000000000000000C3084
:103010000C300C300C300C300C300C300C300C30D0
:103020000C300C300C300C300C301818F81FE00746
:10303000000000000000000000000000000003602D
:103040000630063006300C180C180C18180C180C2A
:10305000380E30063006700760036003C001C001FF
:1030600000000000000000000000000000000360FD
:10307000C361C361C36166336633663366336633E7
:1030800066336C1B6C1B6C1B2C1A3C1E380E380EE6
:1030900000000000000000000000000000000FE041
:1030A0000C7018303018700C600EC007800380035D
:1030B000C003E006700C301C18180C300E6007E0DE
:1030C000000000000000000000000000000003C03D
:1030D00006600C301C383818300C6006E007C0035E
:1030E00080018001800180018001800180018001D8
:1030F0000000000000000000000000000000FC7F55
:10310000FC7F006000300018000C00060003800106
:10311000C0006000300018000C000600FE7FFE7F3B
:103120000000000000000000000000000000E003BC
:10313000E00360006000600060006000600060000C
:10314000600060006000600060006000600060007F
:10315000600060006000E003E00300000000300059
:103160003000600060006000C000C000C000C0010E
:1031700080018001800100030003000300060006B7
:103180000000000000000000000000000000E0035C
:10319000E003000300030003000300030003000337
:1031A0000003000300030003000300030003000307
:1031B000000300030003E003E00300000000000040
:1031C000C001C00160036003600330063006180CC4
:1031D000180C0000000000000000000000000000CB
:1031E00000000000000000000000000000000000DF
:1031F00000000000000000000000000000000000CF
:103200000000000000000000000000000000FFFFC0
:10321000FFFF0000000000000000000000000C00A4
:103220000C000C000C000C000C0000000000000062
:10323000000000000000000000000000000000008E
:10324000000000000000000000000000000000007E
:103250000000000000000000F003F8071C0C0C0C3C
:10326000000FF00FF80C0C0C0C0C1C0FF80FF018E2
:103270000000000000000000000000000000180036
:103280001800180018001800D803F80F380C181888
:1032900018181818181818181818380CF80FD80318
:1032A000000000000000000000000000000000001E
:1032B0000000000000000000C003F007300E180CF2
:1032C0001800180018001800180C300EF007C00382
:1032D00000000000000000000000000000000018D6
:1032E0000018001800180018C01BF01F301C181818
:1032F00018181818181818181818301CF01FC01BA8
:1033000000000000000000000000000000000000BD
:103310000000000000000000C003F00F300C18187F
:10332000F81FF81F180018003818301CF00FC007DD
:103330000000000000000000000000000000800FFE
:10334000C00FC000C000C000F007F007C000C00000
:10335000C000C000C000C000C000C000C000C0006D
:10336000000000000000000000000000000000005D
:103370000000000000000000E00DF80F180E0C0C1B
:103380000C0C0C0C0C0C0C0C0C0C180EF80FE00DAB
:10339000000C0C0C1C06F807F001000000001800DF
:1033A0001800180018001800D807F80F381C181853
:1033B000181818181818181818181818181818188D
:1033C0000000000000000000000000000000C0003D
:1033D000C000000000000000C000C000C000C0002D
:1033E000C000C000C000C000C000C000C000C000DD
:1033F0000000000000000000000000000000C0000D
:10340000C000000000000000C000C000C000C000FC
:10341000C000C000C000C000C000C000C000C000AC
:10342000C000C000C000F8007800000000000C00E0
:103430000C000C000C000C000C0C0C060C038C0196
:10344000CC006C00FC009C018C030C030C060C0CE3
:103450000000000000000000000000000000C000AC
:10346000C000C000C000C000C000C000C000C0005C
:10347000C000C000C000C000C000C000C000C0004C
:10348000000000000000000000000000000000003C
:1034900000000000000000007C3CFF7EC7E383C109
:1034A00083C183C183C183C183C183C183C183C1FC
:1034B000000000000000000000000000000000000C
:1034C00000000000000000009807F80F381C1818D2
:1034D000181818181818181818181818181818186C
:1034E00000000000000000000000000000000000DC
:1034F0000000000000000000C003F00F300C18189E
:1035000018181818181818181818300CF00FC003CD
:1035100000000000000000000000000000000000AB
:103520000000000000000000D803F80F380C181845
:1035300018181818181818181818380CF80FD80375
:103540001800180018001800180000000000000003
:103550000000000000000000C01BF01F301C181805
:1035600018181818181818181818301CF01FC01B35
:1035700000180018001800180018000000000000D3
:103580000000000000000000B007F00370003000F1
:1035900030003000300030003000300030003000AB
:1035A000000000000000000000000000000000001B
:1035B0000000000000000000E003F003380E180CCB
:1035C0003800F003C007000C180C380EF007E003B9
:1035D00000000000000000000000000000000000EB
:1035E0008000C000C000C000F007F007C000C000AD
:1035F000C000C000C000C000C000C000C0078007FD
:1036000000000000000000000000000000000000BA
:1036100000000000000000001818181818181818EA
:1036200018181818181818181818381CF01FE0194E
:10363000000000000000000000000000000000008A
:1036400000000000000000000C18180C180C180CEA
:10365000300630063006600360036003C001C0011D
:10366000000000000000000000000000000000005A
:103670000000000000000000C141C141C36163635C
:10368000636363633636363636361C1C1C1C1C1CC2
:10369000000000000000000000000000000000002A
:1036A00000000000000000001C38381C300C6006D0
:1036B000C003C003C003C0036006300C381C1C38B4
:1036C00000000000000000000000000000000000FA
:1036D000000000000000000018303018301870188A
:1036E000600C600CE00CC006C00680038003800301
:1036F00080018001C001F0007000000000000000A7
:103700000000000000000000FC1FFC1F000C000671
:1037100000038001C000600030001800FC1FFC1F87
:103720000000000000000000000000000000000396
:103730008001C000C000C000C000C000C000600028
:103740006000300060004000C000C000C000C00049
:10375000C000C000800100030000000000008001E4
:103760008001800180018001800180018001800151
:103770008001800180018001800180018001800141
:103780008001800180018001800100000000600054
:10379000C000C00180018001800180018001000320
:1037A0000003000600030001800180018001800108
:1037B00080018001C00060000000000000000000E7
:1037C000000000000000000000000000F010F81FE2
:1037D000080F0000000000000000000000000000D2
:1037E00000000000000000000000000000000000D9
:1037F00000000000000000000000000000000000C9
:1038000000000000000000000000000000000000B8
:1038100000000000000000000000000000000000A8
:10382000000000000000C003300C08100420042039
:1038300002400240024002400240042004200810DE
:10384000300CC00300000000000000000000000079
:10385000000000000000C003F00FF81FFC3FFC3F19
:10386000FE7FFE7FFE7FFE7FFE7FFC3FFC3FF81F5A
:10387000F00FC00300000000000000000000000086
:1038800000000000000000000000E007F00F181822
:1038900018181818181818181818F00FE007000052
:1038A0000000000000000000000000000000000018
:1038B00000000000000000000000E007F00FF81F0B
:1038C000F81FF81FF81FF81FF81FF00FE00700009F
:1038D00000000000000000000000000000000000E8
:1038E00000000000000000000000000000000000D8
:1038F000000000008001C0036006300C1818181882
:10390000F81FF81F00000000000000000000000089
:1039100000000000000000000000000000000000A7
:10392000000000008001C003E007F00FF81FF81F3F
:10393000F81FF81F00000000000000000000000059
:1039400000000000F81FF81F18181818300C600647
:10395000C003800100000000000000000000000023
:103960000000000000000000000000000000000057
:1039700000000000F81FF81FF81FF81FF00FE00705
:10398000C0038001000000000000000000000000F3
:103990000000000000000000000000000000000027
:1039A00000000000000000000000E001F0019801AC
:1039B0008C01860186018C019801F001E001000074
:1039C00000000000000000000000000000000000F7
:1039D00000000000000000000000E001F001F8011C
:1039E000FC01FE01FE01FC01F801F001E001000014
:1039F00000000000000000000000000000000000C7
:103A0000000000000000000000008007800F801907
:103A100080318061806180318019800F80070000D3
:103A20000000000000000000000000000000000096
:103A3000000000000000000000008007800F801FD1
:103A4000803F807F807F803F801F800F8007000045
:103A50000000000000000000000000000000C001A5
:103A6000200220024001300608080808080808085B
:103A7000080808080808200220022002200220026C
:103A80002002200220022002200200000000C001CB
:103A9000E003E003C001F007D80DD80DD80DD80D14
:103AA000D80DD80DD80D6003600360036003600378
:103AB0006003600360036003600300000000C00156
:103AC00020022002400130060808080808080410F7
:103AD00002200220400120022002100408080808E9
:103AE0000410041004200440000000000000C00185
:103AF000E003E003C001F007D80DD80DD80DCC19B4
:103B0000C631C261C001600360037006380C180C36
:103B10000C180C180C300C600000000006000800A7
:103B200020000000700000009C2200081000180017
:103B300020000000700000001C2600085C3B00080C
:103B4000000000205C000000220E0008B83B0008C6
:103B50005C0000203C040000320E00080000000061
:103B60000000000000000000000000000000000055
:103B700000000000A000000078000000000000002D
:103B80000000000000000000000000000000000035
:103B9000000000000000FFFF000000000000000027
:103BA00000A24A040000000000000000010203041B
:083BB0000607080900000000EF
:0400000508000145A9
:00000001FF
