:020000040800F2
:10000000A0040020450100084D0100084F01000830
:1000100051010008530100085501000800000000CC
:100020000000000000000000000000005701000870
:1000300059010008000000005B0100085D01000894
:100040005F0100085F0100085F0100085F01000810
:100050005F0100085F0100085F0100085F01000800
:100060005F010008010800085F0100085F01000847
:100070005F0100085F0100085F0100085F010008E0
:100080005F0100085F0100085F0100085F010008D0
:100090005F0100085F0100085F01000845080008D3
:1000A0005F010008691300085F0100085F01000894
:1000B0008D1300085F0100085F0100085F01000860
:1000C0005F0100085F0100085F0100085F01000890
:1000D0005F0100085F0100085F0100085F01000880
:1000E0005D0700085F0100085F0100085F0100086C
:1000F000AD1300085F0100085F0100085F01000800
:100100005F0100085F0100085F0100085F0100084F
:100110005F0100085F0100085F0100085F0100083F
:100120005F0100085F0100085F0100085F0100082F
:10013000DFF80CD000F0F0FA00480047451E000838
:10014000A00400200648804706480047FEE7FEE777
:10015000FEE7FEE7FEE7FEE7FEE7FEE7FEE7FEE777
:1001600009130008310100080649074A086850438E
:1001700043F23902104408604008704701490860A2
:1001800070470000580000206D4EC6412DE9FE4F1B
:10019000804681EA0300C00F0C46009021F0004128
:1001A00023F00045B8EB0200A94105D240462146A4
:1001B00090461C460B46024623F00040104347D0B1
:1001C000270DC7F30A00C3F30A510290401A0190A9
:1001D00040286BDAC3F3130040F4801B009892466A
:1001E00020B10023D2EB030A63EB0B0B01985946B5
:1001F000C0F14002504600F0AFF806460D465046AA
:100200005946019A00F0B7F810EB0800614100244C
:1002100087EA115284EAE7731A4340D0009A62B326
:10022000019A012A4FEA075215DC001B61EB02011B
:100230004FF0004202EA0752CDE90042001C41F5AE
:10024000801132462B4600F0B7F803B0BDE8F08FBE
:1002500040462146F9E7001B61EB0201001C41F515
:10026000801300185B412018A2F5001747EB03012B
:1002700040EAD570B6196D4111E06D084FEA3606B7
:1002800045EAC0754FEA0752001B61EB0201001CF2
:1002900041F5801149084FEA3000001951413246BA
:1002A0002B4603B0BDE8F04F00F077B8009801226C
:1002B00040000023D0EB020263EBE073009821467C
:1002C0004FEAE074B8EB000061EB0401E9E783F06A
:1002D00000435BE781F0004158E70EB5C10F80EAAB
:1002E000E0700844CA07002140F233438DE80E0055
:1002F0000A460B4600F060F803B000BD30B5041E9E
:1003000071F1000404DB4FF00044404264EB010152
:10031000141E73F1000405DB1C464FF000435242EB
:1003200063EB04038B4208BF824230BD30B50B46FD
:10033000014600202022012409E021FA02F59D4215
:1003400005D303FA02F5491B04FA02F52844151EE9
:10035000A2F10102F1DC30BD202A04DB203A00FAD0
:1003600002F1002070479140C2F1200320FA03F30C
:10037000194390407047202A06DBCB17203A41FAF8
:1003800002F043EAE07306E041FA02F3D040C2F122
:100390002002914008431946704710B5141E73F1AE
:1003A000000408DA401C41F1000192185B411A4335
:1003B00001D120F0010010BD2DE9F04D92469B4681
:1003C00011B1B1FA81F202E0B0FA80F22032904627
:1003D000FFF7C2FF04460F4640EA0A0041EA0B015C
:1003E00053465A46084313D0114653EA010019D028
:1003F000C8F14002504600F0A1F905460E465046AD
:1004000059464246FFF7A8FF084305D0012004E003
:1004100020463946BDE8F08D0020054346EAE076E7
:100420002C4337430A986305E40AA0EB0800002236
:10043000FD0A44EA47540A3002D500200146E9E7A4
:10044000010510196941DDE9084500196941BDE858
:10045000F04DA2E72DE9FE4F81EA030404F00044C9
:1004600021F0004100944FF0000B23F0004350EACC
:1004700001045ED052EA03045BD0C3F30A54C1F313
:100480000A552C44A4F2F3340194A0FB0254C1F3A6
:10049000130141F48011C3F3130343F4801301FBF0
:1004A000024400FB034E840A970A44EA815447EA57
:1004B0008357A4FB076802958D0A05FB07854FEA61
:1004C000932C04FB0C542705029D4FEA065847EA7B
:1004D0001637B5EB08056EEB070C870E920E47EA50
:1004E000811742EA8312A7FB0201B6EB0B0164EB12
:1004F00000042B0D43EA0C335E1844EB1C50DA4623
:100500005146E7FB0201C5F313044FEA0B3343EAFC
:1005100014534FEA0432019C43EA0603A4F10C048D
:100520000294009CCDE900B4FFF746FF03B0BDE89C
:10053000F08F00200146F9E72DE9F04D81EA030430
:1005400004F0004B21F0004514464FF0000A23F060
:10055000004150EA050220D054EA01021DD0C5F343
:100560000A570246C5F31303C1F31300C1F30A5639
:1005700040F4801543F48013A7EB0608101BD64601
:1005800008F2FD3873EB050002D308F1010801E021
:1005900092185B41B8F1000F03DA00200146BDE874
:1005A000F08D00204FF48011064684460EE0171BA4
:1005B00073EB050705D3121B63EB050306434CEAF7
:1005C000010C49084FEA300092185B4150EA0107DC
:1005D000EDD152EA030012D082EA040083EA050159
:1005E000084305D0101BAB4106D20122002306E0D0
:1005F00000224FF0004302E06FF0010253101AEBAB
:1006000006004CEB085110EB0A0041EB0B01BDE872
:10061000F04DFFF7C2BE70B521F0004303430CD08C
:10062000C1F30A550024D5EB040564EB0403D61787
:10063000AD1AB34102DB0020014670BD201841EB2A
:10064000025170BD2DE9F04D00231A461B1A8A4154
:1006500003DB00200146BDE8F08DC1F30A52C1F36F
:10066000130141F480154FF0000BD10702D100189F
:100670006D41521E0027044640F2FF11384601EB3F
:10068000620A3E468046024600204FF4801100F088
:1006900055F8C2197141BB1846EB0100B4EB030CCD
:1006A00075EB000C04D3E41A65EB000517460E4603
:1006B000241908F101006D4180463428E3DDF91961
:1006C00046EB0600091BA84103D24FF0FF32134648
:1006D00001E0002213461BEB070046EB0A51BDE880
:1006E000F04DFFF75ABE000030B5041E71F1000452
:1006F00004DB4FF00044404264EB0101141E73F12F
:10070000000405DB1C464FF00043524263EB040338
:10071000994208BF904230BD064C074D06E0E068A4
:1007200040F0010394E8070098471034AC42F6D338
:10073000FFF702FD304E0008504E0008202A04DB6F
:10074000203A21FA02F00021704721FA02F3D0404A
:10075000C2F12002914008431946704710B501F0DC
:1007600069FB90B11F48006840F400401D490860D3
:100770001D491E4802F074F918B11D4800F098FF99
:100780002EE01C4800F094FF2AE001F03BFB90B102
:100790001448006840F48040124908601649134824
:1007A00002F05EF918B1124800F082FF18E0134819
:1007B00000F07EFF14E001F02DFB88B109480068CD
:1007C00040F40050074908600C49084802F048F915
:1007D00018B1074800F06CFF02E0074800F068FF1E
:1007E00010BD000014040140E0340008280000207F
:1007F000F8340008D8340008F0340008E834000861
:1008000010B501F0F7FA88B10948006840F0080017
:10081000074908600749084802F022F918B107485B
:1008200000F046FF02E0064800F042FF10BD000065
:1008300014040140D834000828000020F8340008CF
:10084000E03400080548006800F4807028B10348CF
:10085000006840F48070014908607047140401404A
:1008600010B5F0234FF4A0720021084600F082FC7E
:10087000222002F08BFB00BF00BF002404E00648EA
:10088000008802F08BFB641CB4F5963FF7D300BFE1
:1008900000BF002010BD00003A0000202DE9F04705
:1008A00081468A4614461E46089F07FB04F06421D1
:1008B000B0FBF1F7334622465146484600F05AFC59
:1008C000222002F063FB00BF00BF4FF0000811E0E0
:1008D00000250BE0BD4204D30A48008802F05EFB0D
:1008E00003E00948008802F059FB6D1CA542F1D3D2
:1008F00008F10108B045EBD300BF00BF0020BDE800
:10090000F08700003A000020380000202DE9F05F59
:100910008046894614461F46DDF828A0D3463B464C
:1009200022464946404600F025FC222002F02EFBDC
:1009300000BF00BF781E00FB04F50AE0002605E0BA
:10094000A9193BF8110002F029FB761CA642F7D347
:100950002D1B002DF2DA00BF00BF0020BDE8F09F84
:100960002DE9F04781468A4616462E48006818B998
:100970004FF0FF30BDE8F0872A4800684068361A1B
:10098000284909680988C81DC11700EB51714FEA51
:10099000E10824480068C16806FB08F0214A126893
:1009A000528800FB02151F48006843881D480068F4
:1009B00002885146484600F0DDFB222002F0E6FAAC
:1009C00000BF00BF002723E000241AE0297804F0CC
:1009D0000702114101F0010111B11349098801E039
:1009E00012490988084602F0D9FA04F007000728DE
:1009F00006D10C4800680088401EA04200D06D1C43
:100A0000641C084800680088A042DFD86D1C7F1C69
:100A1000044800684088B842D6D800BF00BF002014
:100A2000A8E700003C000020380000203A00002029
:100A300070B505460E461446012322463146284627
:100A400000F098FB222002F0A1FA00BF00BF03E0F3
:100A50000548008802F0A2FA201EA4F10104F7D193
:100A600000BF00BF70BD0000380000202DE9F0413C
:100A700005460E4617461C463A4631462846FFF7BD
:100A8000D7FF31193A462846FFF7D2FF22463146B2
:100A9000284600F01FF8E8192246314600F01AF8FF
:100AA0000020BDE8F081000070B505460E461446F2
:100AB00009E014F8012B31462846FFF751FF04489E
:100AC00000680088054420780028F2D170BD00003D
:100AD0003C00002070B505460E4614462346012210
:100AE0003146284600F046FB222002F04FFA00BFB4
:100AF00000BF03E00548008802F050FA201EA4F170
:100B00000104F7D100BF00BF70BD00003800002015
:100B100070B5FE48806940F2ED110843FB498861D9
:100B2000FB48006800F0FF2444F0BB10F84908605F
:100B3000081D0068F74900EA0104F7482043F4491A
:100B4000091D0860F548006820F0704444F030400A
:100B5000F24908604FF0BB30091D0860F04800689A
:100B600020F00F0444F00B00ED490860ED484068A8
:100B7000ED4900EA0104ED482043EA494860EC48A9
:100B80000068EB490860EA481038006820F00F045C
:100B900044F00300E64910390860DC48406940F43D
:100BA0008070DA49486140F205404107C86141F26E
:100BB00011208861322000F087FE0026304602F0C6
:100BC000E5F901F0A7FE0546472D7DD10120D94961
:100BD00008700021EA2002F0E5F92021EB2002F064
:100BE000E1F90C21EC2002F0DDF9C721ED2002F043
:100BF000D9F93821E82002F0D5F91021E92002F0D6
:100C0000D1F90121F12002F0CDF91021F22002F0FA
:100C1000C9F90121402002F0C5F90021412002F06C
:100C2000C1F90021422002F0BDF91021432002F059
:100C3000B9F90E21442002F0B5F92421452002F033
:100C4000B1F90421462002F0ADF95021472002F00D
:100C5000A9F90221482002F0A5F91321492002F048
:100C6000A1F919214A2002F09DF919214B2002F027
:100C700099F916214C2002F095F91B21502002F021
:100C800091F93121512002F08DF92F21522002F0EB
:100C900089F93F21532002F085F93F21542002F0C9
:100CA00081F93E21552002F07DF92F21562002F0D6
:100CB00079F97B21572002F075F90921582002F0BB
:100CC00071F90621592000E089E002F06BF9062154
:100CD0005A2002F067F90C215B2002F063F91D2114
:100CE0005C2002F05FF9CC215D2002F05BF91B2152
:100CF000084602F057F901211A2002F053F92F217A
:100D0000242002F04FF95721252002F04BF98821C9
:100D1000232002F047F93621182002F043F901217F
:100D2000192002F03FF90021012002F03BF988214F
:100D30001F2002F037F9C82000F0C6FD82211F20D5
:100D400002F030F9322000F0BFFD92211F2002F0A6
:100D500029F9322000F0B8FDD2211F2002F022F93B
:100D6000322000F0B1FD5521172002F01BF90021BF
:100D7000084602F017F911212F2002F013F9002183
:100D8000312002F00FF90021322002F00BF9382156
:100D9000282002F007F9C82000F096FD3C21282009
:100DA00002F000F9A821162002F0FCF800210E2024
:100DB00002F0F8F800210F2002F0F4F801211020D1
:100DC00002F0F0F84021112002F0ECF8002112208E
:100DD00002F0E8F80021132002F0E4F8A9E1002075
:100DE000544908704FF48071012002F0DBF84FF491
:100DF000E061022002F0D6F80021042002F0D2F8CF
:100E000040F20721082002F0CDF80021092002F06D
:100E1000C9F800210A2002F0C5F800210C2002F0D8
:100E2000C1F800210D2002F0BDF800210F2002F0D2
:100E3000B9F80021102002F0B5F80021112002F0CD
:100E4000B1F80021122002F0ADF80021132002F0C9
:100E5000A9F8C82000F038FD41F2B021102002F0BE
:100E6000A1F80721112002F09DF8322000F02CFD9E
:100E700040F2BD11122002F095F8322000F024FD5E
:100E80004FF4A051132002F08DF80E21292002F01A
:100E900089F8322000F018FD0021202002F082F8AD
:100EA0000021212002F07EF8A5F5A840083838B1CD
:100EB000A0F57C50183800287DD005287CD167E04B
:100EC00040F60D31302002F06DF841F6231131204B
:100ED00002F068F841F62641322002F063F842F24F
:100EE0001C61332002F05EF842F21941342002F016
:100EF00059F840F60B51352002F054F841F2060142
:100F0000362002F04FF84FF4C26115E000100240A5
:100F10000014014000F0FF00BB0B00BB00180140B3
:100F2000001C014000200140FFF0F0FF000B0B000F
:100F30001408014040000020372002F033F840F24E
:100F40000671382002F02EF84FF44171392002F07A
:100F500029F840F605613A2002F024F840F60161D4
:100F60003B2002F01FF84FF487713C2002F01AF882
:100F700040F20E513D2002F015F840F203413E20B0
:100F800002F010F840F207613F2002F00BF861E038
:100F90000021302002F006F840F20761312002F013
:100FA00001F840F20531322001F0FCFF002135202C
:100FB00001F0F8FF01E01DE01BE041F20461362082
:100FC00001F0F0FF4FF40171372001F0EBFF012138
:100FD000382001F0E7FF40F20771392001F0E2FF0D
:100FE00000213C2001F0DEFF0F213D2001F0DAFF5F
:100FF00030E000BF0621302001F0D4FF40F20111A3
:10100000312001F0CFFF0321322001F0CBFF4FF45C
:101010008371352001F0C6FF40F60231362001F021
:10102000C1FF40F20231372001F0BCFF40F20771EE
:10103000382001F0B7FF0721392001F0B3FF4FF44A
:10104000C0613C2001F0AEFF40F20B213D2001F0D9
:10105000A9FF00BF00BF0021502001F0A3FFEF2136
:10106000512001F09FFF0021522001F09BFF40F230
:101070003F11532001F096FFA5F5A840083830B184
:10108000A0F57C50183850B1052807D100E000BF0A
:101090004FF41C51602001F085FF06E000BF4FF4C3
:1010A0002741602001F07EFF00BF00BF01216120C9
:1010B00001F078FF00216A2001F074FF00218020F8
:1010C00001F070FF0021812001F06CFF00218220DF
:1010D00001F068FF0021832001F064FF00218420DB
:1010E00001F060FF0021852001F05CFF10219020BD
:1010F00001F058FF0021922001F054FF03219320BA
:1011000001F050FF4FF48871952001F04BFF002152
:10111000972001F047FF0021982001F043FF41F2A2
:101120003801032001F03EFF40F23711072001F0A3
:1011300039FF4FF4807002490860002070BD000044
:10114000100801400146024A11800020704700004B
:101150003A0000200146024801600020704700006C
:101160003C0000200146024A118000207047000028
:10117000380000202DE9F04704460D4616461F466C
:101180002648007860B3A019A0F10108E819A0F181
:101190000109C4F30F21022001F004FFE1B2032092
:1011A00001F000FFC8F30F21042001F0FBFE08F05E
:1011B000FF01052001F0F6FEC5F30F21062001F026
:1011C000F1FEE9B2072001F0EDFEC9F30F2108207E
:1011D00001F0E8FE09F0FF01092001F0E3FE1BE049
:1011E000A9B2502001F0DEFEE819401E81B2512064
:1011F00001F0D8FEA1B2522001F0D4FEA019401E89
:1012000081B2532001F0CEFEA9B2202001F0CAFE27
:10121000A1B2212001F0C6FEBDE8F0874000002009
:1012200010B500F001F810BD0CB500200190009041
:101230003348006840F480303149086000BF3048CE
:10124000006800F4003000900198401C0190009864
:1012500018B90198B0F5A06FF1D12948006800F4E1
:10126000003010B10120009001E0002000900098B3
:10127000012843D12348006840F01000214908604C
:101280000846006820F0030008600846006840F047
:10129000020008601A4840681949486008464068DA
:1012A00048600846406840F48060486008464068EE
:1012B00020F47C1048600846406840F4E81048601C
:1012C0000846006840F08070086000BF0C48006865
:1012D00000F000700028F9D00948406820F00300B1
:1012E000074948600846406840F00200486000BF77
:1012F0000348406800F00C000828F9D10CBD00003C
:10130000001002400020024010B51348006840F071
:1013100001001149086008464068104908400E491C
:101320004860084600680E4908400B4908600846B6
:10133000006820F4802008600846406820F4FE0021
:1013400048604FF41F008860FFF76AFF4FF00060AD
:101350000449086010BD0000001002400000FFF8C2
:10136000FFFFF6FE08ED00E010B50748008800F02A
:10137000010038B100F036FC0348008820F001007D
:101380000149088010BD0000102C01404FF0804042
:10139000008A00F0010038B14FF08040008A20F050
:1013A00001004FF0804108827047000010B50748E7
:1013B000008800F0010038B101F08CFC034800887F
:1013C00020F001000149088010BD000010340140E8
:1013D0000FB4084B10B504A902AA039800F0B8F89E
:1013E000044602A9002000F05DF9204610BC5DF81B
:1013F00014FB0000A5160008490050EAC12018BFE0
:1014000004204A0D18BF40F0010040F2FF72B2EB19
:10141000515F08BF40F00200012808BF0520704757
:10142000002809DB00F01F020121914042099200CF
:1014300002F1E022C2F8001170472DE9F0414F1E81
:1014400000EBC7010446D1E9000115461E4637F0FE
:1014500006020DD02A463346FEF7FCFF7F1E04EB42
:10146000C703D3E90023FEF791FE37F00602F1D15E
:10147000022F25D0042F13D0062F18BFBDE8F0810E
:101480002A463346FEF7E6FFD4E90A23FEF77EFE3E
:101490002A463346FEF7DEFFD4E90823FEF776FE40
:1014A0002A463346FEF7D6FFD4E90623FEF76EFE42
:1014B0002A463346FEF7CEFFD4E90423FEF766FE44
:1014C0002A463346FEF7C6FFD4E90223FEF75EFE46
:1014D0002A463346FEF7BEFFD4E90023BDE8F041BB
:1014E000FEF754BE0022134610460149FFF724B808
:1014F0000000F03FFEF74ABE002213461046114698
:10150000FFF71AB840F2013200204FF0E041FFF738
:1015100082B80000024A00201107FFF77CB80000E3
:1015200001FDFFFF02E008C8121F08C1002AFAD11E
:1015300070477047002001E001C1121F002AFBD153
:101540007047000001490860704700005C000020FF
:101550002DE9FF4F89B09B460446002506E025286B
:101560000BD05A460B999047641C6D1C20780028BC
:10157000F5D10DB02846BDE8F08F0027B84601220E
:10158000474900E0074314F8013F203B02FA03F00B
:101590000842F7D120782E2819D114F8010F47F00E
:1015A00004072A280ED06FF02F022078A0F1300116
:1015B00009290CD808EB880102EB410100EB010876
:1015C000641CF2E70A98641C50F8048B0A90207897
:1015D0000028CED0642808D0692806D075281ED0EF
:1015E0005A460B9990476D1C58E00A994FF00A092A
:1015F00001C90A91002802DA40422D2102E0390592
:1016000004D52B218DF82010012103E0F90704D027
:101610002021F7E78A4608AE0DE00021FAE70A9993
:101620004FF00A0901C90A91F7E74946FEF77EFE25
:10163000303106F8011D0028F7D1ADEB060000F1AE
:101640002009780701D44FF00108C84502DDA8EB56
:10165000090000E000208046002706E008A85A465E
:10166000C05D0B9990476D1C7F1C5745F6DB04E06D
:1016700030205A460B9990476D1CB8F10001A8F133
:101680000108F5DC05E016F8010B5A460B99904766
:101690006D1CB9F10001A9F10109F4DC641C65E7D6
:1016A000092801000A68531C0B6010707047000085
:1016B000024A0168116041685160704728000020AB
:1016C0002DE9F84F0446DDE90A56671EA01800F11F
:1016D000010CA1F10108C81800F10109A5F1010AE6
:1016E0000C98284400F1010BA6F1010E0D9830442E
:1016F000401C00905F4509DAD44507DD009880451D
:1017000004DAF14502DD0120BDE8F88F0020FBE797
:101710003FB5002418E004EB84000D4901EB80057F
:1017200008200C4A12680C4B1B68CDE9012000937D
:10173000039008231A46D5E90001FFF7C1FF10B155
:10174000012006490860641C032CE4DB3FBD000057
:10175000600000201C000020180000200000002075
:101760001FB50420104A1268104B1B68CDE90120F8
:101770000093039008231A460D4801680D4800683D
:10178000FFF79EFF78B100F0A5FB0B480068401CF6
:101790000949086000F0A2F907480068032802D14F
:1017A0000120064908601FBD3400002030000020E1
:1017B0001C00002018000020200000200400002051
:1017C00010B50020FFF7BEFCFFF74AF810BDF8B5D2
:1017D00004460D4616461F460020FFF7C3FC4FF493
:1017E00080603B463246294600902046FFF756F877
:1017F000F8BD000000B51048806940F400600E4953
:10180000886106200D4908804FF62050091D088088
:101810000A481C38008840F0010008491C3908803B
:1018200001F03AFA0648006840F000704FF0E021FD
:10183000C1F8000100BD000000100240282C01404A
:1018400000E100E00A48C06940F001000849C861B1
:1018500006208904088547F690608885800680897F
:1018600040F001008881881002490860704700003C
:101870000010024000E100E000B51048806940F42B
:1018800000500E498861002001F0FEF848F6A040A3
:101890000B4908800A482038008840F001000849B8
:1018A0002039088001F00CFA0648006840F48050A6
:1018B0004FF0E021C1F8040100BD0000001002401B
:1018C0002C34014004E100E00949096842F2107239
:1018D000B1FBF2F1484305E000BF00BF00BF00BF0D
:1018E00000BF00BF011EA0F10100F5D1704700004C
:1018F0004400002000B585B0FFF762FF00F04CF80F
:101900004FF47840FFF72EFC0DA264210846FFF744
:10191000CBF84FF6FF70FFF725FC0C480CA10268CE
:101920006846FFF755FD6A468C211420FFF7BCF886
:1019300000BF01F023FB0028FBD005B000BD000074
:1019400050657264752021212100000020000020D4
:10195000566F7472652073636F7265203A20256438
:101960000000000010B5FFF72BFF00F015F84FF452
:10197000FC60FFF7F7FB05A264210846FFF794F827
:1019800000BF01F0FBFA0028FBD010BD4741474ED5
:10199000452021212100000008B50020FFF7D2FBDF
:1019A0004FF6FF70FFF7DEFB1448FFF7D3FB14A2DE
:1019B00018210320FFF778F81548FFF7CBFB15A295
:1019C000E8210320FFF770F8204808231A463C213D
:1019D00000906420FEF79AFF1D4808231A463C2118
:1019E00000909120FEF792FF1A4804231A463E21E8
:1019F0000090BE20FEF78AFF08BD0000904D000851
:101A00002020202020205041432D4D414E00000039
:101A1000804D000841726E617564204D617A757267
:101A20006965722020202020202020204955542044
:101A300041322020202020202020202020487567AF
:101A40006F205275737365696C000000B83200082E
:101A500038300008B834000810B50446FFF79CFF82
:101A60001548FFF777FB94B94FF47840FFF77AFBFE
:101A700012A264210846FFF717F84FF6FF70FFF730
:101A800071FB10A28C216420FFF70EF813E0012CEB
:101A900011D14FF6FF70FFF765FB0CA264210846D9
:101AA000FFF702F84FF47840FFF75CFB09A28C21A6
:101AB0006420FEF7F9FF10BD904D00083E20506CE9
:101AC0006179000020205175697400002020506C5D
:101AD000617900003E20517569740000F8B54FF43B
:101AE0009D74E2264FF6FF70FFF73CFB0020FFF7E6
:101AF00029FB3448FFF72EFB33A231462046FEF780
:101B0000D3FF0A3C002509E0304804231A46711C23
:101B100000902046FEF7FAFEA41F6D1C2C480068BA
:101B20008542F1DB002501E0A41F6D1C28480068F8
:101B3000C0F10300A842F7DCA41F26A231462046CC
:101B4000FEF7B2FF0E3C244808231A4631460090A7
:101B50002046FEF7DBFE103C1BA231462046FEF776
:101B6000A3FF0A3C002509E0184804231A46711C0B
:101B700000902046FEF7CAFEA41F6D1C174800689F
:101B80008542F1DB002501E0A41F6D1C13480068AD
:101B9000C0F10300A842F7DCA41F0EA23146204684
:101BA000FEF782FF0E3C0E4808231A46314600908D
:101BB0002046FEF7ABFE0020FFF7D4FA0020FFF727
:101BC000C1FAF8BD804D00085D000000B83400087F
:101BD000200000205B0000003830000824000020B6
:101BE000B832000810B501F01FF9FFF791FDFFF7BB
:101BF000B7FD10BD70B504460D46FEF7B5FA291BBA
:101C000090FBF1F201FB1200204470BD01480088F6
:101C1000704700002404004010B5FEF779FFFFF77D
:101C2000CFFD10BD2149896941F001011F4A916131
:101C30001146896941F0020191611146896941F0BB
:101C4000200191611146896941F4807191611849BF
:101C5000496821F0706040F08061154A516011467A
:101C6000496821F4700040F48001516011464968D0
:101C700021F0704040F0804151600E49096821F424
:101C8000704040F480410B4A11600949496821F0D5
:101C90000F0040F00401064A51601146096821F026
:101CA000704040F080411160704700000010024019
:101CB000002001400014014010B500F009F810BDEB
:101CC00000B5FFF797FDFFF7BDFDFFF7D5FD00BDA0
:101CD0000A48C06940F002000849C861002008496C
:101CE00008804FF6FF70091D0880054828380088D5
:101CF00040F0010002492839088070470010024076
:101D0000280400402DE9FF5F002435E004EB840047
:101D1000324901EB8009324AD9F804101268881A56
:101D2000FEF7DBFA074600224FF0804300F006F989
:101D300005460E462B4AD9F800101268881AFEF79D
:101D4000CCFA074600224FF0804300F0F7F82A460D
:101D50003346CDE90001FEF719FA824600F00CFF88
:101D60000022214BCDE90201FEF7C8FA03D2002080
:101D700004B0BDE8F09F641C032CC7DB1B49096855
:101D8000174A1268881AFEF7A8FA054600224FF093
:101D9000804300F0D3F80746884615490968114A80
:101DA0001268881AFEF799FA054600224FF0804320
:101DB00000F0C4F882463A464346FEF7E7F9CDE91B
:101DC000000100F0D9FE0022074BCDE90201FEF729
:101DD00095FA01D20020CBE70120C9E7600000207E
:101DE0003400002030000020008061401C000020F2
:101DF0001800002002480068012121EAD000704745
:101E00000814014002488068012121EA903070479F
:101E10000020014002488068012121EA50307047CB
:101E20000020014002488068012121EAD01070475B
:101E30000020014002488068012121EAD03070472B
:101E400000200140FFF7E8FEFFF7ECFEFFF738FF48
:101E5000FFF732FF35E00020FFF7FEFD00BF00F086
:101E6000D7FD0028FBD000F008FE002015490860CF
:101E700015490860012015490860002014490860D0
:101E80000DE000F01BFE00F0C9FE00BF0E48006828
:101E900018B90C4800680028F8D000F0F1FE0A4894
:101EA000006818B9074800680028EAD006480068AA
:101EB00010B1FFF71FFD04E00248006808B1FFF70A
:101EC00051FDC8E704000020000000200C000020A5
:101ED0001000002008B504231A461548016815486B
:101EE0000068FFF774FC00BF4FF498711020FFF7F3
:101EF00081FE10490860E0211020FFF77BFE0C49AD
:101F00000860FFF7FFFE0028EED10B4804231A46B5
:101F100000900748016807480068FEF7F7FC4FF695
:101F2000FF70FFF71FF90020FFF70CF908BD000054
:101F30003400002030000020B83400082DE9F04DB6
:101F40001D460C4698B0174621F0004123F000438F
:101F5000002814BF4FF0010C4FF0000C0CEB440CA8
:101F6000FE4A0CEB02064FEA620C66452BD33E009C
:101F700018BF012606EB45061644F94A964222D3BD
:101F8000F84A53EA070C02D0944205D148B918B078
:101F900000201146BDE8F08D002808BF4FF0000C6E
:101FA00001D04FF0010C0CEB440212F5001F0AD8CF
:101FB000002F14BF4FF0010C4FF0000C0CEB45024A
:101FC00012F5001F07D918B03A462B462146BDE846
:101FD000F04DFFF78FBA0022DFF88CA3002CB8BFBA
:101FE000534526DADFF884C36345A8BF022220DA0E
:101FF000DFF870C39C451CDCDFF874C30CEB235C7A
:10200000BCF1140F08DDCCF1340627FA06FC0CFAFB
:1020100006F6BE420DD108E05FB9CCF1140623FAF2
:1020200006FC0CFA06F69E4203D10CF00102C2F146
:10203000020251EA000C19D1002D17DA002C18BF4A
:10204000022A01D0012A07D00220FFF77BFA18B03C
:10205000BDE8F04DFFF746BA0220FFF773FAFFF72D
:1020600041FA18B081F00041BDE8F08DB7F1000CE5
:102070006CD1534525D104F1804212F5801201BF85
:1020800000280020B74918B008BFBDE8F08DB5485A
:10209000884207DC002DA1BF6046294618B0BDE884
:1020A000F08D07E0281E05DA80F0004118B0604688
:1020B000BDE8F08DAF497944D1E9000118B0BDE821
:1020C000F08DDFF8A0C2634525D1002D1FDA19B1CC
:1020D000514512D1D8B909E0002840F0EC82A24A5B
:1020E000214618B062F31E01BDE8F08D00202146A4
:1020F00018B060F31E01BDE8F08D08DA18B0234671
:10210000BDE8F04D024600206146FEF715BA18B052
:102110002146BDE8F08D514518DAB5F1804F0DD05C
:10212000A5F1005CBCF1FF5C10D1B4F1000C0DDB3B
:1021300018B06146BDE8F04D00F01EBD234618B052
:102140000246BDE8F04D1946FEF784B9060024F0BA
:10215000004C3BD1D9B1514533D1002C06DD002DC7
:10216000A1BF0020514618B0BDE8F08D002C01DD64
:10217000002D1BDB002C13DA002D11DB012A4FF0A0
:10218000000014BF78497C4918B0BDE8F08D022AE0
:1021900018BF002C0AD0012A08D1002C06DA0AE068
:1021A000002CB8BF002D11DA012A04D0002018B08D
:1021B0000146BDE8F08D18B000204FF00041BDE8A9
:1021C000F08DA1F14050B0F17F601AD0012000EBFA
:1021D000E47050EA020421D0624C521E4FF0000B12
:1021E000104304BF4FF0000B644C654883427CDD14
:1021F000644A654893421FDD884217DB002D25DBCA
:1022000037E0002C00DA4AB1022A0CBF01204FF05F
:10221000FF3018B0BDE8F04DFEF75FB80120FFF7C2
:1022200091F918B0BDE8F04DFFF766B94D4A8A4202
:1022300002DC002D0ADC1CE0814202DA002D18DAF3
:1022400004E0484B994220DD002D12DD0220FFF70B
:1022500079F9FFF757F905460E46002253465846CE
:102260002146FEF7F7F818B066F31E012846BDE8D0
:10227000F08D0220FFF766F9FFF74CF90A46214678
:1022800018B062F31E01BDE8F08D002230466146B1
:10229000FEF71DF880460E466FF00102FEF7BBF90F
:1022A0004FF05532394BFEF715F842463346FEF7EC
:1022B000D1F80022364BFEF70DF8824642463346EF
:1022C000049110461946FEF7C5F85246049BFEF7E6
:1022D000C1F88A4600904FF0C0422E4B404631462E
:1022E000FEF7B8F82C4A2B4B00E027E0CDE90601B9
:1022F00051460098FEF7AEF882460191274A284BD6
:1023000040463146FEF7A6F85246019BFDF7DFFF37
:1023100082460B4602460591DDE90601FDF736FFD0
:10232000DDE90623002688463046FDF7D0FF5246F9
:10233000059BFDF7CFFF024600F07EB90020B1F506
:10234000801F07DA352230466146FEF764F90646FB
:102350006FF0340000EB215024E00000FFFF1F006D
:10236000FFFF0F000000F03F0000F07F000040433F
:1023700001FCFFFF6E2D00000000F0FF0000F0BF29
:102380000000E0410000F043FFFFEF3F5555D53F0F
:102390000000E03F4715F73FFE822B6544DF5DF804
:1023A0000BAE543EA0F2FF300190C1F3130040F099
:1023B0007F6141F040510291FE498842D8BF002020
:1023C00004DDFD498142C8BF012001DD0D9008E018
:1023D00000200D900198401C01900298A0F58010FB
:1023E00002900299F54878440B910D9900EBC100D9
:1023F000D0E900230F9330460A920B99FDF767FF4F
:10240000CDE90601DDE90A2130460F9BFDF7BEFE4E
:1024100002460B460020EA49FEF78EF80591024677
:102420000B460090DDE90601FEF714F81490E5482C
:102430008A464FF0000878440299006812904FF0E5
:10244000005040EA61010D980F9B01EB804000F5C0
:10245000002109910A9A1298FDF739FF32460B9B29
:10246000FDF738FF42465346FDF7F4FF064602915A
:1024700040465146099B129AFDF7ECFFDDE9062321
:10248000FDF728FF3246029BFDF721FF059B009ACE
:10249000FDF7E0FF0091149A049053461046194648
:1024A000FDF7D8FF06460246C7480B4602910621B3
:1024B0007844FEF7C2FFCDE90510029B3246104674
:1024C0001946FDF7C7FFDDE90532FDF7C3FF0591AA
:1024D0000646534640461946149AFDF757FE009BA0
:1024E000049AFDF7B7FF3246059BFDF74FFECDE995
:1024F00005104246534610461946FDF7ABFF002231
:10250000B24B02910A90FDF741FEDDE90532FDF77D
:102510003DFE0E464246AD4B4046FDF7D8FE029BBF
:102520000A9AFDF7D4FEDDE90532FDF7D3FE4246F7
:1025300002910A90334610465146FDF78BFFCDE9D4
:1025400006015346149A02990A98FDF783FF8A46BA
:1025500002903346424600990498FDF77BFF5346AC
:10256000029AFDF713FE82460B4602460591DDE90D
:102570000601FDF70BFEDDE906230020884606462E
:10258000FDF7A5FE5246059BFDF7A4FE8246099184
:102590004FF060428E4B30464146FDF75BFF0490A2
:1025A00006918C4A8A4B50460999FDF753FF8246A3
:1025B0000291894A894B30464146FDF74BFF52460E
:1025C000029BFDF7E3FD864B7B440D9A03EBC203B0
:1025D000D3E90023FDF7DAFD0E9007910198FDF78E
:1025E0007CFE0591DDE9061382460E9A0498FDF7FC
:1025F000CDFD7C4A7A440D9B02EBC303D3E9002353
:1026000000930292FDF7C2FD5246059BFDF7BEFD09
:102610000026884652463046059BFDF758FE009B33
:10262000029AFDF754FE069B049AFDF750FE079BA5
:102630000E9AFDF74FFE024600200B4602903846E8
:102640002946FDF707FF824601912B463846194679
:10265000029AFDF73CFE32464346FDF7FBFE52462A
:10266000019BFDF793FD07468A46324643462946BD
:102670000298FDF7EFFE05460E463A465346FDF733
:1026800085FD594A8846914221DBA8EB020353EAB3
:10269000000210D12A463346FDF719FECDE90401A8
:1026A000524A534B38465146FDF770FDDDE904238D
:1026B000FEF71AF821D20220FEF744FFFEF722FFB0
:1026C0000A46214618B062F31E01BDE8F08D494B61
:1026D00028F000429A4210D3474A08EB020353EA1B
:1026E00000027FF4C6AD2A463346FDF7F0FD3A46B8
:1026F0005346FDF7F9FF7FF6BCAD0022019228F0AA
:1027000000403E493E4A01EB2051824223DA481CF8
:102710004FF4801121FA00F040443A4AC0F30A51C4
:102720007A44394BA1F2FF31CB4020EA0303C0F3D6
:10273000130040F48010C1F11401C84012680190E8
:10274000B8F1000FBCBF4042019028463146FDF76A
:10275000BEFD05460E462A46334638465146FDF72D
:1027600015FD4FF000084246284B40460591FDF705
:1027700071FECDE90601264A264B40460599FDF734
:1027800069FE009102902A46334640460599FDF7BE
:102790009EFD3A465346FDF79DFD1F4A1F4BFDF730
:1027A00059FE009B029AFDF7F1FC07468846024657
:1027B0000B4635E08E9803007AB60B00B629000070
:1027C0000000F03FEE2900001C2900000000084036
:1027D00009C7EE3FFD033ADCF5015B14E02F3EBE76
:1027E000F4270000B827000000009040FE822B650F
:1027F0004715973C00CC904000346F3F01FCFFFF31
:102800000000E03F04270000FFFF0F00432EE63FDB
:10281000396CA80C615C20BEEF39FAFE422EE63F0F
:10282000DDE90601FDF7B2FCDDE9062305460E46AB
:10283000FDF74DFD3A464346FDF74CFD0F462A464F
:102840003346009010461946FDF704FE82460246C4
:102850002E4888460B4605217844FEF7EEFD524689
:102860004346FDF7F7FD2A463346FDF733FD804624
:102870008A463B4628463146009AFDF7EBFD3B462B
:10288000009AFDF783FC0691009000224FF08043F0
:1028900040465146FDF71BFD0F460C9042465346FD
:1028A00028463146FDF7D6FD3B460C9AFDF744FE1F
:1028B000069B009AFDF70BFD2A463346FDF707FD00
:1028C0000022134BFDF706FD054601980E4601EB6D
:1028D00000510815002810DC28463146019AFDF702
:1028E0009AFEFEF789FD042808BFFEF713FE28466E
:1028F0003146019AFDF78FFE05460B4618B02A4671
:1029000058462146BDE8F04DFDF7A4BDA4250000C2
:102910000000F03F4FF0D8404088704738B50025A0
:1029200060E005EB8500314901EB8004304904F19A
:102930000C0000F095F880B1626802F108010123F3
:1029400008222068FEF792F82A48009008231A46C9
:10295000D4E90001FDF7DAFF43E0274904F10C0058
:1029600000F07EF878B16268511E012308222068C9
:10297000FEF77CF82148009008231A46D4E90001AC
:10298000FDF7C4FF2DE01E4904F10C0000F068F8CB
:1029900080B1D4E9002102F1080008230122FEF7EA
:1029A00065F81848009008231A46D4E90001FDF79D
:1029B000ADFF16E0144904F10C0000F051F878B1B5
:1029C000D4E90021501E08230122FEF74FF80F48DA
:1029D000009008231A46D4E90001FDF797FF00E0B4
:1029E00038BD6D1C032D9CDB00BFF9E760000020A3
:1029F000D834000838340008E0340008B833000840
:102A0000E834000838330008F0340008B832000811
:102A100010B5FFF70FFA50B110480078012806D121
:102A200000200E49087008460078FFF715F8FFF7F8
:102A3000E1F948B10948007830B901200749087028
:102A400008460078FFF708F8FFF7ECF920B10348D3
:102A5000007808B9012010BD0020FCE71400002018
:102A6000024610680B68984205D150684B6898423E
:102A700001D1012070470020FCE710B5FFF7C6F830
:102A80000446FDF77BFB10BD18B91F210A4A1180CF
:102A900010E0012803D11921074A11800AE0022819
:102AA00003D11321044A118004E0032802D10D212F
:102AB000014A1180704700002834014038B50024D5
:102AC000FFF7FAF800F0B0F800F07CF8FDF7C8FE68
:102AD0000020FEF737FB0020FEF744FB21480823C7
:102AE0001A4600902048016820480068FDF70EFF54
:102AF000FFF7F0F900BF31E0E0211820FFF77AF886
:102B000004EB84011A4A42F82100E0211820FFF763
:102B100071F804EB8401164A02EB8101486001213F
:102B20000020FFF767F808B1012000E0002004EB67
:102B300084010F4A02EB810108720E4804EB840203
:102B40000B4B03EB82020090516804EB840253F8B4
:102B5000220008231A46FDF7D9FE641C032CCBDBA8
:102B600038BD0000383000081C000020180000208C
:102B700060000020383300082DE9F04106460F467A
:102B8000FDF760FD041E0D4618BF0120284320F00C
:102B90000040C0F17F6000F1E040C00F0ED0301C5B
:102BA00018BF0120384320F00040C0F17F6000F1E1
:102BB000E040C00F04BF0120FEF7C4FC20462946B8
:102BC000BDE8F08110B5134800684EF208010843D3
:102BD000104908600F480C3800684EF2080108439D
:102BE0000C490C3908600C48406900F00F0446F2AB
:102BF000606020430849486108468068C0F30B04C0
:102C000044F4405088602820FEF70AFC0920FEF7B3
:102C100007FC10BD0C0401400000014010B5FEF798
:102C20005DFF00F00BF810BD0348008840F0010084
:102C30000149088070470000002C014003480088CB
:102C400040F0010001490880704700000034014055
:102C50000348006820F48070014908607047000054
:102C6000000401400548006820F460400349086002
:102C70000846006820F00800086070470004014022
:102C800010B500F009F800F011F800F019F8FFF79E
:102C9000E9FFFFF7DDFF10BD0348008820F00100C9
:102CA0000149088070470000002C01404FF080402F
:102CB000008820F001004FF080410880704700003C
:102CC0000348008820F00100014908807047000097
:102CD0000034014030B589B0002596E005EB850051
:102CE0004C4901EB80042068059060680690207ACA
:102CF000F0B149492068096888420CD046492068EB
:102D00000968884203DD2068401E20602EE02068AC
:102D1000401C20602AE0414960680968884203DD60
:102D20006068401E606021E06068401C60601DE0DB
:102D30003A496068096888420CD038496068096877
:102D4000884203DD6068401E60600FE06068401CE0
:102D500060600BE0304920680968884203DD206824
:102D6000401E206002E02068401C2060206800288F
:102D700001DC002020602068B0F59C7F02DB40F27F
:102D8000371020606068002801DC00206060606807
:102D9000DA2801DBD920606020680790606808901D
:102DA00005990798401AE06006990898411A216130
:102DB00004201A4A1268184B1B68CDE901200093C1
:102DC000039008231A46D4E90001FEF779FCC8B144
:102DD000FFF780F812480068401C11490860084657
:102DE0000068032804D101200E49086009B030BDF5
:102DF0000B480068022802D10120FFF745FEFEF7CC
:102E00006DFE01E0FFF78AFD6D1C032DFFF666AF36
:102E100000BFEBE7600000203000002034000020FD
:102E2000240000200000002008B5494800684949F6
:102E300009680844474908604548406846490968A8
:102E400008444549086043480068002802DC002027
:102E5000404908603F480068B0F59C7F03DB40F2C2
:102E600037103C4908603C480068002802DC00201C
:102E70003949086038480068DA2802DBD920364929
:102E8000086036493248FFF7EBFD98B1012308226C
:102E90003148016808312F480068FDF7E7FD3048E8
:102EA00008231A4600902C4801682A480068FDF75C
:102EB0002DFD4BE02B492648FFF7D2FD98B126485F
:102EC0000068411E0123082222480068FDF7CEFD5C
:102ED000254808231A4600901F4801681D480068CD
:102EE000FDF714FD32E021491948FFF7B9FD98B10B
:102EF0000823012218480168164800680830FDF7C9
:102F0000B5FD1B4808231A46009013480168114874
:102F10000068FDF7FBFC19E016490D48FFF7A0FD1E
:102F200098B10C490968481E082301220A4909681A
:102F3000FDF79CFD104808231A46009006480168DA
:102F400004480068FDF7E2FC00E008BD00BFFCE7B4
:102F500028000020180000201C000020D8340008A1
:102F6000B8310008E034000838310008E8340008BF
:102F7000B8300008F0340008383000080248806893
:102F8000012121EA10207047002001404FF0D84174
:102F9000088070474FF0D841488070474FF0D841C3
:102FA0004880704770B505460C462846FFF7EEFF8F
:102FB0002046FFF7EFFF70BD00000000E0FFE0FFDC
:102FC000E0FFE0FF000000000000E0FFE0FFE0FFA6
:102FD000E0FFE0FFE0FF0000E0FFE0FFE0FFE0FFD8
:102FE000E0FFE0FFE0FFE0FFE0FFE0FFE0FFE0FFE9
:102FF000E0FFE0FFE0FFE0FFE0FFE0FFE0FFE0FFD9
:10300000E0FFE0FFE0FFE0FFE0FFE0FFE0FFE0FFC8
:10301000E0FFE0FFE0FFE0FF0000E0FFE0FFE0FF97
:10302000E0FFE0FFE0FF000000000000E0FFE0FF45
:10303000E0FFE0FF0000000000000000E0FFE0FF14
:10304000E0FFE0FF000000000000E0FFE0FFE0FF25
:10305000E0FFE0FFE0FF0000E0FFE0FFE0FFE0FF57
:10306000E0FFE0FF00000000E0FFE0FFE0FFE0FF26
:10307000E0FF000000000000E0FFE0FFE0FFE0FFF5
:10308000E0FF000000000000E0FFE0FFE0FFE0FFE5
:10309000E0FFE0FF000000000000E0FFE0FFE0FFD5
:1030A000E0FFE0FFE0FF000000000000E0FFE0FFC5
:1030B000E0FFE0FF0000000000000000E0FFE0FF94
:1030C000E0FFE0FF000000000000E0FFE0FFE0FFA5
:1030D000E0FFE0FFE0FF000000000000E0FFE0FF95
:1030E000E0FFE0FFE0FFE0FF000000000000E0FF85
:1030F000E0FFE0FFE0FFE0FF000000000000E0FF75
:10310000E0FFE0FFE0FFE0FF00000000E0FFE0FF85
:10311000E0FFE0FFE0FFE0FF0000E0FFE0FFE0FF96
:10312000E0FFE0FFE0FF000000000000E0FFE0FF44
:10313000E0FFE0FF000000000000000000000000D1
:1031400000000000000000000000E0FF00000000A0
:1031500000000000E0FF0000E0FFE0FFE0FF0000F3
:103160000000E0FFE0FFE0FFE0FFE0FFE0FFE0FF46
:10317000E0FFE0FFE0FFE0FFE0FFE0FFE0FFE0FF57
:10318000E0FFE0FFE0FFE0FFE0FFE0FFE0FFE0FF47
:10319000E0FFE0FFE0FFE0FF0000E0FFE0FFE0FF16
:1031A000E0FFE0FFE0FF000000000000E0FFE0FFC4
:1031B000E0FFE0FF0000000000000000E0FFE0FF93
:1031C000E0FFE0FF000000000000E0FFE0FFE0FFA4
:1031D000E0FFE0FFE0FF0000E0FFE0FFE0FFE0FFD6
:1031E000E0FFE0FFE0FFE0FFE0FFE0FFE0FFE0FFE7
:1031F000E0FFE0FFE0FFE0FFE0FFE0FFE0FFE0FFD7
:10320000E0FFE0FFE0FFE0FFE0FFE0FFE0FF0000A5
:103210000000E0FFE0FFE0FF0000E0FF0000000032
:1032200000000000E0FF00000000000000000000BF
:1032300000000000000000000000000000F800F89E
:1032400000F800F800000000000000F800F800F8A6
:1032500000F800F800F8000000F800F800F800F8A6
:1032600000F800F800F800F800F800F800F800F89E
:1032700000F800F800F800F800F800F800F800F88E
:1032800000F800F800F800F800F800F800F800F87E
:1032900000F800F800F800F8000000F800F800F866
:1032A00000F800F800F800000000000000F800F846
:1032B00000F800F8000000000000000000F800F82E
:1032C00000F800F800000000000000F800F800F826
:1032D00000F800F800F8000000F800F800F800F826
:1032E00000F800F80000000000F800F800F800F80E
:1032F00000F800000000000000F800F800F800F8F6
:1033000000F800000000000000F800F800F800F8E5
:1033100000F800F800000000000000F800F800F8D5
:1033200000F800F800F800000000000000F800F8C5
:1033300000F800F8000000000000000000F800F8AD
:1033400000F800F800000000000000F800F800F8A5
:1033500000F800F800F800000000000000F800F895
:1033600000F800F800F800F800000000000000F885
:1033700000F800F800F800F800000000000000F875
:1033800000F800F800F800F80000000000F800F86D
:1033900000F800F800F800F8000000F800F800F865
:1033A00000F800F800F800000000000000F800F845
:1033B00000F800F80000000000000000000000001D
:1033C0000000000000000000000000F80000000005
:1033D0000000000000F8000000F800F800F800000D
:1033E000000000F800F800F800F800F800F800F815
:1033F00000F800F800F800F800F800F800F800F80D
:1034000000F800F800F800F800F800F800F800F8FC
:1034100000F800F800F800F8000000F800F800F8E4
:1034200000F800F800F800000000000000F800F8C4
:1034300000F800F8000000000000000000F800F8AC
:1034400000F800F800000000000000F800F800F8A4
:1034500000F800F800F8000000F800F800F800F8A4
:1034600000F800F800F800F800F800F800F800F89C
:1034700000F800F800F800F800F800F800F800F88C
:1034800000F800F800F800F800F800F800F8000074
:10349000000000F800F800F8000000F8000000004C
:1034A0000000000000F80000000000000000000024
:1034B00000000000000000000000FFFFFFFF000010
:1034C000FFFFFFFFFFFFFFFFFFFFFFFFFFFFFFFF0C
:1034D0000000FFFFFFFF000000000000FFFFFFFFF4
:1034E0000000000001000000FFFFFFFF00000000DF
:1034F00001000000000000000000000000000000CB
:1035000000000000000000000404040404000400A3
:103510000A0A0A00000000000A0A1F0A1F0A0A001D
:10352000041E050E140F04000313080402191800EA
:1035300002050502150916000C0C0402000000002B
:103540000804020202040800020408080804020039
:103550000004150E0E1504000004041F04040000EE
:10356000000000000C0C04020000001F000000001E
:1035700000000000000C0C00001008040201000014
:103580000E11131519110E000406040404040E0094
:103590000E11100E01011F001F10080C10110E005B
:1035A000080C0A091F0808001F010F1010110E0057
:1035B0001C02010F11110E001F101008040201005F
:1035C0000E11110E11110E000E11111E1008070020
:1035D00000000400040000000000040004040200D5
:1035E000100804020408100000001F001F00000063
:1035F00002040810080402000E11100C040004005C
:103600000E11151D0D011E00040A11111F111100CC
:103610000F11110F11110F000E11010101110E00F8
:103620000F11111111110F001F01010F01011F00D6
:103630001F01010F010101001E11010119111E00DE
:103640001111111F111111000E04040404040E00C5
:103650001C080808080906001109050305091100DE
:103660000101010101011F00111B151515111100A8
:1036700011111315191111000E11111111110E0054
:103680000F11110F010101000E1111111509160082
:103690000F11110F050911000E11010E10110E006E
:1036A0001F150404040404001111111111110E005E
:1036B00011111111110A04001111111515150A002B
:1036C00011110A040A11110011110A040404040062
:1036D0001F10080E02011F001E02020202021E003D
:1036E00000010204081000001E10101010101E002F
:1036F000040A1100000000000000000000001F008C
:103700000606040800000000000006080E091E005E
:1037100001010D1311130D0000000E1101110E0017
:10372000101016191119160000000E111F010E00BD
:103730000814040E0404040000000E191916100EDB
:1037400001010D13111111000400060404040E0000
:103750000800080808090600010109050305090019
:103760000604040404040E0000000B1515151500D2
:1037700000000D131111110000000E1111110E00A7
:1037800000000D13130D0101000016191916101079
:1037900000000D130101010000001E010E100F00BA
:1037A00004041F040414080000001111111916006C
:1037B00000001111110A04000000111115150A0072
:1037C0000000110A040A1100000011111E10110E50
:1037D00000001F0804021F0008040402040408007B
:1037E00004040400040404000204040804040200A5
:1037F00002150800000000000000000000000000AA
:1038000000000C12120C000000000C1E1E0C000028
:1038100000001E12121E000000001E1E1E1E0000D0
:1038200000000C0C121E000000000C0C1E1E0000FC
:1038300000001E120C0C000000001E1E0C0C0000EC
:1038400000001816161800000000181E1E180000B0
:103850000000061A1A0600000000061E1E060000E0
:1038600000000C12120C000000000C1E1E0C0000C8
:1038700000001E12121E000000001E1E1E1E000070
:103880000000000000000000000000000000000038
:103890000000000000000000000000000000000028
:1038A0000000000000000000000000000000000018
:1038B0000000800180018001800180018001800181
:1038C00080018001800180018001800100000000F2
:1038D00080018001000000000000000000000000E6
:1038E00000000000CC00CC00CC00CC00CC00CC0010
:1038F00000000000000000000000000000000000C8
:1039000000000000000000000000000000000000B7
:10391000000000000000000000000000600C600CCF
:10392000600C30063006FE1FFE1F300638071803F5
:10393000FE1FFE1F180318038C018C018C01000070
:1039400000008000E003F80F9C0E8C1C8C188C008B
:103950009800F801E007800E801C8C188C189C18C9
:10396000B80CF00FE00380008000000000000000B1
:103970000000000000000E181B0C110C11061106AF
:10398000110311039B018E01C038C06C6044604478
:10399000304430441844186C0C380000000000001B
:1039A0000000E001F0033807180618063003F001A4
:1039B000F000F8009C310E33061E061C061C063F64
:1039C000FC73F02100000000000000000000000077
:1039D000000000000C000C000C000C000C000C009F
:1039E00000000000000000000000000000000000D7
:1039F00000000000000000000000000000000000C7
:103A00000000000200038001C000C00060006000F0
:103A10003000300030003000300030003000300026
:103A200060006000C000C0008001000300020000D0
:103A3000000020006000C00080018001000300033E
:103A40000006000600060006000600060006000646
:103A50000003000380018001C0006000200000001E
:103A6000000000000000000000000000C000C000D6
:103A7000D806F807E0013003380700000000000016
:103A80000000000000000000000000000000000036
:103A90000000000000000000000000008001800124
:103AA000800180018001FC3FFC3F8001800180019A
:103AB0008001800100000000000000000000000004
:103AC00000000000000000000000000000000000F6
:103AD00000000000000000000000000000000000E6
:103AE0000000800180010001000180000000000052
:103AF00000000000000000000000000000000000C6
:103B00000000000000000000E007E00700000000E7
:103B100000000000000000000000000000000000A5
:103B20000000000000000000000000000000000095
:103B30000000000000000000000000000000000085
:103B40000000C000C00000000000000000000000F5
:103B50000000000C000C0006000600060003000335
:103B600000038003800180018001C000C000C0000C
:103B70006000600000000000000000000000000085
:103B80000000E003F007380E180C0C180C180C1885
:103B90000C180C180C180C180C180C18180C380EE3
:103BA000F007E0030000000000000000000000003B
:103BB000000000018001C001F0019801880180012E
:103BC00080018001800180018001800180018001ED
:103BD00080018001000000000000000000000000E3
:103BE0000000E003F80F180C0C180C18001800184F
:103BF000000C000600038001C000600030001800C7
:103C0000FC1FFC1F0000000000000000000000007E
:103C10000000E001F807180E0C0C0C0C000C00065C
:103C2000C003C007000C001800180C180C18180C62
:103C3000F807E003000000000000000000000000A2
:103C40000000000C000E000F000F800DC00C600C77
:103C5000600C300C180C0C0CFC3FFC3F000C000CF2
:103C6000000C000C0000000000000000000000003C
:103C70000000F80FF80F180018000C00EC03FC0708
:103C80001C0E001C0018001800180C181C0C180E34
:103C9000F807E00300000000000000000000000042
:103CA0000000C007F00F381C181818000C00CC03D7
:103CB000EC0F3C0E1C1C0C180C180C18181C380EA1
:103CC000F007E0030000000000000000000000001A
:103CD0000000FC1FFC1F000C000600060003800310
:103CE0008001C001C000E000600060007000300092
:103CF0003000300000000000000000000000000064
:103D00000000E003F007380E180C180C180C3806E9
:103D1000F007F007180C0C180C180C180C18380CBD
:103D2000F80FE003000000000000000000000000A9
:103D30000000E003F007380E1C0C0C180C180C18CF
:103D40001C1C381EF81BE0190018000C000C1C0E7F
:103D5000F807F00100000000000000000000000073
:103D60000000000000000000000000008001800151
:103D70000000000000000000000000000000000043
:103D80008001800100000000000000000000000031
:103D90000000000000000000000000008001800121
:103DA0000000000000000000000000000000000013
:103DB000800180010001000180000000000000007F
:103DC00000000000000000000000000000000000F3
:103DD0000010001C800FE003F8001800F800E0035A
:103DE000800F001C00100000000000000000000018
:103DF00000000000000000000000000000000000C3
:103E0000F81F000000000000F81F00000000000084
:103E100000000000000000000000000000000000A2
:103E20000000000000000000000000000000000092
:103E300008003800F001C007001F0018001FC0076D
:103E4000F001380008000000000000000000000041
:103E50000000E003F80F180C0C180C180018000CE8
:103E6000000600038001C000C000C0000000000088
:103E7000C000C000000000000000000000000000C2
:103E800000000000E00718180420C229224A11444B
:103E900009440944094409221113E20C0240042098
:103EA0001818E007000000000000000000000000FB
:103EB000000080038003C006C006C006600C600CD2
:103EC000301830183018F83FF83F1C700C600C6048
:103ED00006C006C000000000000000000000000056
:103EE0000000FC03FC0F0C0C0C180C180C180C0C2C
:103EF000FC07FC0F0C180C300C300C300C300C187C
:103F0000FC1FFC0700000000000000000000000093
:103F10000000C007F01F38381C300C700660060027
:103F20000600060006000600060006600C701C3045
:103F3000F01FE0070000000000000000000000008B
:103F40000000FE03FE0F060E0618061806300630A7
:103F50000630063006300630063006180618060E03
:103F6000FE0FFE0300000000000000000000000043
:103F70000000FC3FFC3F0C000C000C000C000C008F
:103F8000FC1FFC1F0C000C000C000C000C000C00B3
:103F9000FC3FFC3F000000000000000000000000AB
:103FA0000000F83FF83F180018001800180018002B
:103FB000F81FF81F18001800180018001800180043
:103FC00018001800000000000000000000000000C1
:103FD0000000E00FF83F3C780E6006E007C00300E9
:103FE000030003FE03FE03C007C006C00EC03CF082
:103FF000F83FE00F0000000000000000000000009B
:1040000000000C300C300C300C300C300C300C300C
:10401000FC3FFC3F0C300C300C300C300C300C30C2
:104020000C300C3000000000000000000000000018
:1040300000008001800180018001800180018001F9
:104040008001800180018001800180018001800168
:10405000800180010000000000000000000000005E
:104060000000000600060006000600060006000626
:1040700000060006000600060006180618063807A7
:10408000F003E0010000000000000000000000005C
:10409000000006300618060C060606038601C60058
:1040A00066007600DE008E0106030606060C061882
:1040B0000630066000000000000000000000000064
:1040C0000000180018001800180018001800180048
:1040D0001800180018001800180018001800180020
:1040E000F81FF81F000000000000000000000000A2
:1040F00000000EE01EF01EF01EF036D836D836D87E
:1041000036D866CC66CC66CCC6C6C6C6C6C6C6C6DB
:1041100086C386C30000000000000000000000000D
:1041200000000C301C303C303C306C306C30CC30FB
:10413000CC308C310C330C330C360C360C3C0C3C34
:104140000C380C30000000000000000000000000EF
:104150000000E007F81F1C380E70066003C003C0A3
:1041600003C003C003C003C003C006600E701C3848
:10417000F81FE00700000000000000000000000041
:104180000000FC0FFC1F0C380C300C300C300C30D5
:104190000C18FC1FFC070C000C000C000C000C00A1
:1041A0000C000C00000000000000000000000000F7
:1041B0000000E007F81F1C380E70066003E003C023
:1041C00003C003C003C003C007E006630E3F1C3CEE
:1041D000F83FE0F700C00000000000000000000011
:1041E0000000FE0FFE1F0638063006300630063887
:1041F000FE1FFE0706030606060C06180618063004
:104200000630066000000000000000000000000012
:104210000000E003F80F1C0C0C180C180C001C001C
:10422000F803E00F001E0038063006300E301C1C6C
:10423000F80FE00700000000000000000000000090
:104240000000FE7FFE7F80018001800180018001EF
:104250008001800180018001800180018001800156
:10426000800180010000000000000000000000004C
:1042700000000C300C300C300C300C300C300C309A
:104280000C300C300C300C300C300C300C3018185A
:10429000F81FE00700000000000000000000000020
:1042A000000003600630063006300C180C180C189D
:1042B000180C180C380E30063006700760036003C7
:1042C000C001C0010000000000000000000000006C
:1042D00000000360C361C361C36166336633663344
:1042E0006633663366336C1B6C1B6C1B2C1A3C1ECE
:1042F000380E380E00000000000000000000000032
:1043000000000FE00C7018303018700C600EC00701
:1043100080038003C003E006700C301C18180C30BA
:104320000E6007E000000000000000000000000038
:10433000000003C006600C301C383818300C6006D2
:10434000E007C003800180018001800180018001BD
:10435000800180010000000000000000000000005B
:104360000000FC7FFC7F006000300018000C00069D
:1043700000038001C0006000300018000C0006003F
:10438000FE7FFE7F00000000000000000000000033
:104390000000E003E0036000600060006000600077
:1043A000600060006000600060006000600060000D
:1043B00060006000600060006000E003E003000057
:1043C000000030003000600060006000C000C000ED
:1043D000C000C001800180018001000300030003D0
:1043E00000060006000000000000000000000000C1
:1043F0000000E003E00300030003000300030003E8
:104400000003000300030003000300030003000394
:1044100000030003000300030003E003E0030000C7
:1044200000000000C001C0016003600360033006AB
:104430003006180C180C00000000000000000000FE
:10444000000000000000000000000000000000006C
:10445000000000000000000000000000000000005C
:10446000000000000000000000000000000000004C
:104470000000FFFFFFFF0000000000000000000040
:1044800000000C000C000C000C000C000C000000E4
:10449000000000000000000000000000000000001C
:1044A000000000000000000000000000000000000C
:1044B000000000000000000000000000F003F8070A
:1044C0001C0C0C0C000FF00FF80C0C0C0C0C1C0F3F
:1044D000F80FF018000000000000000000000000CD
:1044E000000018001800180018001800D803F80F72
:1044F000380C181818181818181818181818380C14
:10450000F80FD803000000000000000000000000C9
:10451000000000000000000000000000C003F007E1
:10452000300E180C1800180018001800180C300E67
:10453000F007C003000000000000000000000000C1
:10454000000000180018001800180018C01BF01F09
:10455000301C181818181818181818181818301CA3
:10456000F01FC01B00000000000000000000000061
:10457000000000000000000000000000C003F00F79
:10458000300C1818F81FF81F180018003818301CC5
:10459000F00FC00700000000000000000000000055
:1045A0000000800FC00FC000C000C000F007F0077F
:1045B000C000C000C000C000C000C000C000C000FB
:1045C000C000C0000000000000000000000000006B
:1045D000000000000000000000000000E00DF80FE7
:1045E000180E0C0C0C0C0C0C0C0C0C0C0C0C180EEF
:1045F000F80FE00D000C0C0C1C06F807F001000091
:10460000000018001800180018001800D807F80F4C
:10461000381C1818181818181818181818181818F6
:10462000181818180000000000000000000000002A
:104630000000C000C000000000000000C000C0007A
:10464000C000C000C000C000C000C000C000C0006A
:10465000C000C000000000000000000000000000DA
:104660000000C000C000000000000000C000C0004A
:10467000C000C000C000C000C000C000C000C0003A
:10468000C000C000C000C000C000F80078000000FA
:1046900000000C000C000C000C000C000C0C0C06B4
:1046A0000C038C01CC006C00FC009C018C030C03FF
:1046B0000C060C0C000000000000000000000000D0
:1046C0000000C000C000C000C000C000C000C000AA
:1046D000C000C000C000C000C000C000C000C000DA
:1046E000C000C0000000000000000000000000004A
:1046F0000000000000000000000000007C3CFF7E85
:10470000C7E383C183C183C183C183C183C183C123
:1047100083C183C100000000000000000000000011
:104720000000000000000000000000009807F80FE3
:10473000381C1818181818181818181818181818D5
:104740001818181800000000000000000000000009
:10475000000000000000000000000000C003F00F97
:10476000300C181818181818181818181818300CB1
:10477000F00FC00300000000000000000000000077
:10478000000000000000000000000000D803F80F47
:10479000380C181818181818181818181818380C71
:1047A000F80FD803180018001800180018000000AF
:1047B000000000000000000000000000C01BF01F0F
:1047C000301C181818181818181818181818301C31
:1047D000F01FC01B00180018001800180018000077
:1047E000000000000000000000000000B007F0031F
:1047F00070003000300030003000300030003000F9
:104800003000300000000000000000000000000048
:10481000000000000000000000000000E003F003C2
:10482000380E180C3800F003C007000C180C380EB6
:10483000F007E0030000000000000000000000009E
:10484000000000008000C000C000C000F007F007BA
:10485000C000C000C000C000C000C000C000C00058
:10486000C0078007000000000000000000000000FA
:1048700000000000000000000000000018181818D8
:104880001818181818181818181818181818381C84
:10489000F01FE01900000000000000000000000010
:1048A0000000000000000000000000000C18180CC0
:1048B000180C180C300630063006600360036003E5
:1048C000C001C00100000000000000000000000066
:1048D000000000000000000000000000C141C141D4
:1048E000C3616363636363633636363636361C1CD6
:1048F0001C1C1C1C00000000000000000000000048
:104900000000000000000000000000001C38381CFF
:10491000300C6006C003C003C003C0036006300C47
:10492000381C1C38000000000000000000000000DF
:1049300000000000000000000000000018303018E7
:1049400030187018600C600CE00CC006C0068003C4
:104950008003800380018001C001F000700000002E
:10496000000000000000000000000000FC1FFC1F11
:10497000000C000600038001C00060003000180039
:10498000FC1FFC1F000000000000000000000000F1
:10499000000000038001C000C000C000C000C000D3
:1049A000C00060006000300060004000C000C00037
:1049B000C000C000C000C000800100030000000073
:1049C0000000800180018001800180018001800160
:1049D00080018001800180018001800180018001CF
:1049E0008001800180018001800180018001000040
:1049F00000006000C000C0018001800180018001D2
:104A00008001000300030006000300018001800113
:104A10008001800180018001C00060000000000072
:104A20000000000000000000000000000000000086
:104A3000F010F81F080F0000000000000000000048
:104A40000000000000000000000000000000000066
:104A50000000000000000000000000000000000056
:104A60000000000000000000000000000000000046
:104A70000000000000000000000000000000000036
:104A800000000000000000000000C003300C08100F
:104A90000420042002400240024002400240042060
:104AA00004200810300CC0030000000000000000CB
:104AB00000000000000000000000C003F00FF81F1D
:104AC000FC3FFC3FFE7FFE7FFE7FFE7FFE7FFC3FC4
:104AD000FC3FF81FF00FC0030000000000000000C2
:104AE0000000000000000000000000000000E007DF
:104AF000F00F181818181818181818181818F00F98
:104B0000E0070000000000000000000000000000BE
:104B10000000000000000000000000000000E007AE
:104B2000F00FF81FF81FF81FF81FF81FF81FF00FFD
:104B3000E00700000000000000000000000000008E
:104B40000000000000000000000000000000000065
:104B500000000000000000008001C0036006300C6F
:104B600018181818F81FF81F0000000000000000B7
:104B70000000000000000000000000000000000035
:104B800000000000000000008001C003E007F00FFB
:104B9000F81FF81FF81FF81F0000000000000000B9
:104BA0000000000000000000F81FF81F1818181877
:104BB000300C6006C003800100000000000000000F
:104BC00000000000000000000000000000000000E5
:104BD0000000000000000000F81FF81FF81FF81F79
:104BE000F00FE007C003800100000000000000009B
:104BF00000000000000000000000000000000000B5
:104C00000000000000000000000000000000E001C3
:104C1000F00198018C01860186018C019801F00158
:104C2000E0010000000000000000000000000000A3
:104C30000000000000000000000000000000E00193
:104C4000F001F801FC01FE01FE01FC01F801F00198
:104C5000E001000000000000000000000000000073
:104C600000000000000000000000000000008007BD
:104C7000800F801980318061806180318019800FC0
:104C8000800700000000000000000000000000009D
:104C9000000000000000000000000000000080078D
:104CA000800F801F803F807F807F803F801F800F2C
:104CB000800700000000000000000000000000006D
:104CC0000000C00120022002400130060808080848
:104CD000080808080808080808082002200220021E
:104CE00020022002200220022002200220020000D6
:104CF0000000C001E003E003C001F007D80DD80DAB
:104D0000D80DD80DD80DD80DD80D60036003600301
:104D100060036003600360036003600360030000DE
:104D20000000C001200220024001300608080808E7
:104D30000808041002200220400120022002100472
:104D400008080808041004100420044000000000B3
:104D50000000C001E003E003C001F007D80DD80D4A
:104D6000D80DCC19C631C261C00160036003700662
:104D7000380C180C0C180C180C300C6000000000DB
:104D80000600080020000000700000000035000848
:104D9000100018002000000070000000803800089B
:104DA000000000000000F03F000000000000F83F9D
:104DB00000000000000000000000004003B8E23FD7
:104DC000000000000000000006D0CF43EBFD4C3E89
:104DD000033333333333E33FFFAB6FDBB66DDB3F7E
:104DE0004D268F515555D53F01411DA96074D13FC6
:104DF00065DBC9934A86CD3FEF4E454A287ECA3FC0
:104E00003E5555555555C53F93BDBE166CC166BF41
:104E10002CDE25AF6A56113FF16BD2C541BDBBBE3A
:104E2000D0A4BE726937663E00000000000000009A
:104E3000504E00080000002060000000241500080B
:104E4000B04E000860000020400400003415000847
:104E50000000000000000000000000000000000052
:104E60000000000000000000A0000000780000002A
:104E70000000000000000000000000000000000032
:104E800000000000000000000000FFFF0000000024
:104E90000000000000A24A04000000000000000022
:104EA00001020304060708090000000000000000DA
:0400000508000145A9
:00000001FF
